:020000040800F2
:1000000000A00020F124000835250008352500084F
:1000100035250008352500083525000800000000BA
:10002000000000000000000000000000C11B0008EC
:100030003525000800000000211E0008891E000868
:100040003525000835250008352500083525000828
:100050003525000835250008352500083525000818
:100060003525000835250008352500083525000808
:1000700035250008352500083525000835250008F8
:1000800035250008352500083525000835250008E8
:1000900035250008352500083525000835250008D8
:1000A00035250008352500083525000835250008C8
:1000B00035250008352500083525000835250008B8
:1000C00035250008352500083525000835250008A8
:1000D0003525000835250008352500083525000898
:1000E0003525000835250008352500083525000888
:1000F0003525000835250008352500083525000878
:10010000000000000000000000000000352500088D
:100110003525000835250008352500083525000857
:100120003525000835250008352500083525000847
:1001300035250008352500080000000000000000FB
:100140003525000835250008352500080000000089
:10015000000000000000000000000000000000009F
:1001600000000000000000003525000835250008CB
:10017000352500080000000000000000000000001D
:10018000000000003525000880B483B000AF78601F
:100190000B46FB70FB78002B06D00A49094B5A69C5
:1001A0007B6813434B6106E00649064B5A697B683E
:1001B000DB4313404B6100BF0C37BD465DF8047B49
:1001C000704700BF0010024080B487B000AF786075
:1001D000396000237B6100233B610023FB60002327
:1001E0007B617EE001227B6902FA03F33B613B689D
:1001F0001A683B691340FB60FA683B699A426DD10B
:100200003B681B79012B03D03B681B79022B36D14D
:100210007B689A687B695B00032101FA03F3DB4387
:100220001A407B689A607B689A683B685B791946DC
:100230007B695B0001FA03F31A437B689A607B6871
:100240009B889AB27B699BB2012101FA03F39BB2AE
:10025000DB439BB213409AB27B689A807B689B8891
:100260009BB21AB23B689B7919467B699BB201FA33
:1002700003F31BB213431BB29AB27B689A807B686C
:100280001A687B695B00032101FA03F3DB431A4020
:100290007B681A607B681A683B681B7919467B6922
:1002A0005B0001FA03F31A437B681A607B68DA6823
:1002B0007B699BB25B00032101FA03F3DB431A4025
:1002C0007B68DA607B68DA683B68DB7919467B69B2
:1002D0005B0001FA03F31A437B68DA607B69013340
:1002E0007B617B690F2B7FF67DAF00BF1C37BD465E
:1002F0005DF8047B704700BF80B500AF01214FF46B
:100300000010FFF741FF094B4FF47F421A60074B83
:1003100002225A71054B01221A71044B00229A7174
:1003200002490348FFF750FF00BF80BD843D002015
:100330000010004890B583B000AF78601248124BAF
:100340009B8A9BB21AB27B681B78194601238B40AB
:1003500019B27B685B781C460123A3401BB20B4398
:1003600019B27B689B781C460123A3401BB20B4348
:100370001BB253401BB29BB283827B685B681846FA
:1003800000F020FCDAE700BF0010004880B582B022
:1003900002AFFFF7B1FF0023019302230093054B47
:1003A0004FF480720449054800F0A4FA00F03EFCC6
:1003B000FEE700BF000000206C290008350300089C
:1003C00080B400AF00BFBD465DF8047B704700BF3E
:1003D00080B400AFFEE700BF80B483B000AF7860A8
:1003E0003960FEE780B400AF00BFBD465DF8047B16
:1003F000704700BF80B584B002AF00237B6000F07F
:1004000043FA114B1B68002B0BD0104B01930223B6
:10041000009300234FF400720D490E4800F06AFA71
:1004200078607B68002B09D14FF0500383F311886B
:10043000BFF36F8FBFF34F8F3B60FEE77B681846BB
:100440000837BD4680BD00BF580000205C0000207A
:1004500074290008F904000880B584B000AFF86082
:10046000B9607A6008E0FB689B69BA681344BB60B6
:10047000FB681B6AF8689847FB689A69BB68D118E3
:10048000BB687A68F86800F0DBF80346002BEAD115
:1004900000BF1037BD4680BD80B584B000AF786026
:1004A0003960144B1B68DB68DB68FB60FB68043356
:1004B000184601F0F9FAFB6893F8283003F00403BA
:1004C000002B05D03A687968F868FFF7C5FF08E0A7
:1004D000FB6893F8283023F00103DAB2FB6883F855
:1004E0002820FB681B6AF868984700BF1037BD4694
:1004F00080BD00BF5000002080B584B000AF7860A0
:1005000007F10803184600F057F8F860BB68194671
:10051000F86800F003F800F0D5F8F1E780B584B092
:1005200000AF7860396000F0D1FB07F1080318468E
:1005300000F066F8F860BB68002B30D13B68002BF8
:100540000AD17A68FB689A4206D800F0CDFBF968B8
:100550007868FFF7A1FF24E03B68002B08D0134B1D
:100560001B681B68002B01D1012300E000233B60C6
:100570000F4B18687A68FB68D31A3A68194601F07D
:1005800083FF00F0B1FB0346002B0AD1094B4FF06B
:1005900080521A60BFF34F8FBFF36F8F01E000F0FE
:1005A000A3FB00BF1037BD4680BD00BF5400002034
:1005B0005800002004ED00E080B485B000AF786002
:1005C0000E4B1B681B68002B01D1012200E00022AA
:1005D0007B681A607B681B68002B05D1074B1B6882
:1005E000DB681B68FB6001E00023FB60FB681846CA
:1005F0001437BD465DF8047B704700BF50000020F3
:1006000080B584B000AF786000F068FCF8600B4BF8
:100610001B68FA689A4205D200F010F97B68012243
:100620001A6002E07B6800221A60044AFB681360CB
:10063000FB6818461037BD4680BD00BF6000002033
:1006400080B586B000AFF860B9607A603B60002387
:100650007B61FB68BA685A60FB68FA681A61BA681D
:100660007B689A4212D87A683B68D21AFB689B6909
:100670009A4202D301237B611BE0104B1A68FB688E
:1006800004331946104601F0D5F912E07A683B6848
:100690009A4206D2BA683B689A4202D301237B6130
:1006A00007E0074B1A68FB6804331946104601F04F
:1006B000C1F97B6918461837BD4680BD540000203B
:1006C0005000002080B588B000AFA5E0BB68002BCB
:1006D000C0F2A2803B69FB61FB695B69002B04D01F
:1006E000FB690433184601F0DFF93B1D1846FFF79C
:1006F00087FFB861BB68013B082B00F28C8001A228
:1007000052F823F02907000829070008910700087C
:10071000A5070008ED0700082907000829070008B9
:1007200091070008A5070008FB6993F8283043F0FB
:100730000103DAB2FB6983F82820FA68FB699B6938
:10074000D118FB68BA69F869FFF77AFF0346002BF6
:1007500062D0FB6993F8283003F00403002B09D022
:10076000FA68FB699B691344BA691946F869FFF78F
:1007700073FE08E0FB6993F8283023F00103DAB236
:10078000FB6983F82820FB691B6AF869984743E0F6
:10079000FB6993F8283023F00103DAB2FB6983F890
:1007A000282039E0FB6993F8283043F00103DAB2DE
:1007B000FB6983F82820FA68FB699A61FB699B69E9
:1007C000002B09D14FF0500383F31188BFF36F8FD3
:1007D000BFF34F8F7B61FEE7FB699A69BB69D11854
:1007E000BB69BA69F869FFF72BFF15E0FB6993F85D
:1007F000283003F00203002B03D1F86901F040FF19
:100800000AE0FB6993F8283023F00103DAB2FB69B0
:1008100083F8282000E000BF074B1B6807F10801A0
:100820000022184601F078FC0346002B7FF44EAFFF
:1008300000BF2037BD4680BD5800002080B582B083
:1008400000AF09E00E4B1B68DB681B687B604FF054
:10085000FF317868FFF720FE094B1B681B68002BEF
:10086000F0D1074B1B683B60064B1B68044A1360C2
:10087000044A3B68136000BF0837BD4680BD00BF17
:10088000500000205400002080B500AF01F070FA45
:10089000124B1B68002B1DD1114801F09DF8114827
:1008A00001F09AF8104B0E4A1A60104B0D4A1A606C
:1008B00000220C210A2001F0C1FB0246074B1A60FE
:1008C000064B1B68002B05D0044B1B6808491846D3
:1008D00001F08CFD01F07AFA00BF80BD58000020C5
:1008E000280000203C000020500000205400002080
:1008F0007C29000880B58CB004AFF860B9603B601B
:100900001346FB80FB889B00184601F015FE7861BA
:100910007B69002B13D0582001F00EFEF861FB69B3
:10092000002B08D058220021F86901F0D1FFFB69A3
:100930007A691A6305E0786901F0A2FE01E00023FC
:10094000FB61FB69002B13D0FA8800230393FB693A
:100950000293FB6A0193BB6A00933B68B968F8682D
:1009600000F00EF8F86900F097F80123BB6102E08F
:100970004FF0FF33BB61BB6918462037BD4680BDD1
:1009800080B588B000AFF860B9607A603B603B6BBF
:10099000186B7B689B001A46A52101F099FF3B6B01
:1009A0001A6B7B6803F18043013B9B001344BB61DE
:1009B000BB6923F00703BB61BB6903F00703002B8E
:1009C00009D04FF0500383F31188BFF36F8FBFF34B
:1009D0004F8F3B61FEE7BB68002B1ED00023FB61FD
:1009E00012E0BA68FB69134419783A6BFB69134447
:1009F00034330A461A70BA68FB6913441B78002B1B
:100A000006D0FB690133FB61FB69092BE9D900E0E2
:100A100000BF3B6B002283F83D20BB6A042B09D941
:100A20004FF0500383F31188BFF36F8FBFF34F8FE5
:100A30007B61FEE7BB6A042B01D90423BB623B6BDD
:100A4000BA6ADA623B6BBA6A9A643B6B0433184643
:100A500000F0E2FF3B6B1833184600F0DDFF3B6B04
:100A60003A6B1A61BB6AC3F105023B6B9A613B6B3F
:100A70003A6B5A623A68F968B86901F03FF8024681
:100A80003B6B1A60FB6A002B02D0FB6A3A6B1A6060
:100A900000BF2037BD4680BD80B584B000AF786010
:100AA00001F066F9404B1B6801333F4A13603F4B2E
:100AB0001B68002B09D13D4A7B6813603A4B1B68C9
:100AC000012B10D100F096FD0DE0394B1B68002B77
:100AD00009D1364B1B68DA6A7B68DB6A9A4202D816
:100AE000324A7B681360334B1B680133314A136011
:100AF000304B1A687B681A647B68DB6A01229A4073
:100B00002D4B1B6813432C4A13607B68DA6A2B4910
:100B100013469B0013449B000B4404331B68FB608B
:100B20007B68FA689A60FB689A687B68DA60FB68A1
:100B30009B687A6804325A607B681A1DFB689A6069
:100B40007B68DA6A13469B0013449B001B4A1A44D5
:100B50007B685A617B68DA6A184913469B00134424
:100B60009B000B441B68591C144813469B001344FC
:100B70009B000344196001F029F90D4B1B68002B01
:100B80000ED00A4B1B68DA6A7B68DB6A9A4207D28E
:100B90000B4B4FF080521A60BFF34F8FBFF36F8F34
:100BA00000BF1037BD4680BD3C010020640000201E
:100BB0004801002058010020440100206800002066
:100BC00004ED00E080B584B000AF78600023FB60E6
:100BD0007B68002B16D0134B1B68002B09D04FF0FD
:100BE000500383F31188BFF36F8FBFF34F8FBB6048
:100BF000FEE700F06BF80021786800F0B1FD00F02E
:100C000073F8F860FB68002B07D1074B4FF0805258
:100C10001A60BFF34F8FBFF36F8F00BF1037BD4611
:100C200080BD00BF6401002004ED00E080B586B007
:100C300002AF1F4B01930023009300234FF48072F7
:100C40001C491D48FFF756FEF860FB68012B02D1D6
:100C5000FFF7D0FBF860FB68012B15D14FF0500374
:100C600083F31188BFF36F8FBFF34F8F7B60134BFC
:100C70004FF0FF321A60124B01221A60114B002212
:100C80001A6000F0C7FF0DE0FB68B3F1FF3F09D128
:100C90004FF0500383F31188BFF36F8FBFF34F8F73
:100CA000BB60FEE7084B1B6800BF1037BD4680BD28
:100CB0006001002084290008C11500085C010020A3
:100CC00048010020400100200800002080B400AF4F
:100CD000044B1B680133034A136000BFBD465DF837
:100CE000047B70476401002080B588B000AF00230A
:100CF000FB610023BB61704B1B68002B09D14FF0D7
:100D0000500383F31188BFF36F8FBFF34F8F7B6066
:100D1000FEE701F02DF8684B1B68013B664A136043
:100D2000654B1B68002B40F0C080644B1B68002B98
:100D300000F0BB808AE0624BDB68DB68FB61FB692B
:100D40009B6A3B61FB69DB69FA69126A9A60FB691D
:100D50001B6AFA69D2695A603B695A68FB691833A1
:100D60009A4203D1FB691A6A3B695A60FB69002207
:100D70009A623B691B685A1E3B691A60FB695B6992
:100D8000FB60FB699B68FA69D2689A60FB69DB6863
:100D9000FA6992685A60FB685A68FB6904339A42A0
:100DA00003D1FB69DA68FB685A60FB6900225A616B
:100DB000FB681B685A1EFB681A60FB69DB6A01222C
:100DC0009A40404B1B6813433E4A1360FB69DA6A42
:100DD0003D4913469B0013449B000B4404331B689E
:100DE000BB60FB69BA689A60BB689A68FB69DA60A5
:100DF000BB689B68FA6904325A60FB691A1DBB68BC
:100E00009A60FB69DA6A13469B0013449B002E4AE2
:100E10001A44FB695A61FB69DA6A2B4913469B0045
:100E200013449B000B441B68591C274813469B0026
:100E300013449B0003441960FB69DA6A234B1B6867
:100E4000DB6A9A4202D3224B01221A601C4B1B68B8
:100E5000002B7FF470AFFB69002B01D000F046FC43
:100E60001C4B1B687B617B69002B10D000F046F89F
:100E70000346002B02D0164B01221A607B69013B0E
:100E80007B617B69002BF1D1124B00221A60104B61
:100E90001B68002B09D00123BB610F4B4FF0805220
:100EA0001A60BFF34F8FBFF36F8F00F08FFFBB69E6
:100EB00018462037BD4680BD640100203C0100205B
:100EC000FC00002044010020680000206400002095
:100ED000500100204C01002004ED00E080B483B0FC
:100EE00000AF054B1B687B607B6818460C37BD461E
:100EF0005DF8047B704700BF4001002080B58AB0D8
:100F000000AF00237B62814B1B68002B40F0F18017
:100F10007F4B1B6801333B627D4A3B6A13603B6A2F
:100F2000002B1FD17B4B1B681B68002B09D04FF097
:100F3000500383F31188BFF36F8FBFF34F8F7B6034
:100F4000FEE7744B1B68FB61734B1B68714A1360AF
:100F5000714AFB691360714B1B6801336F4A136060
:100F600000F0C4FB6E4B1B683A6A9A42C0F0A68040
:100F7000684B1B681B68002B04D1694B4FF0FF3294
:100F80001A609BE0634B1B68DB68DB68BB61BB6975
:100F90005B687B613A6A7B699A4203D2604A7B69EB
:100FA00013608BE0BB695B693B61BB699B68BA6995
:100FB000D2689A60BB69DB68BA6992685A603B691B
:100FC0005A68BB6904339A4203D1BB69DA683B694A
:100FD0005A60BB6900225A613B691B685A1E3B6913
:100FE0001A60BB699B6A002B1ED0BB699B6AFB60C1
:100FF000BB69DB69BA69126A9A60BB691B6ABA6924
:10100000D2695A60FB685A68BB6918339A4203D1A7
:10101000BB691A6AFB685A60BB6900229A62FB6866
:101020001B685A1EFB681A60BB69DB6A01229A4082
:101030003C4B1B6813433B4A1360BB69DA6A3A496D
:1010400013469B0013449B000B4404331B68BB6096
:10105000BB69BA689A60BB689A68BB69DA60BB68AA
:101060009B68BA6904325A60BB691A1DBB689A60F2
:10107000BB69DA6A13469B0013449B002A4A1A4450
:10108000BB695A61BB69DA6A274913469B0013445E
:101090009B000B441B68591C234813469B001344B8
:1010A0009B0003441960BB69DA6A204B1B68DB6A4A
:1010B0009A427FF65DAF01237B6259E71B4B1B68A9
:1010C000DA6A194913469B0013449B000B441B68C2
:1010D000012B01D901237B62154B1B68002B01D129
:1010E000FFF780F9134B1B68002B09D001237B62AB
:1010F00006E00F4B1B6801330D4A1360FFF772F9CE
:101100007B6A18462837BD4680BD00BF64010020B9
:1011100040010020F4000020F800002054010020CD
:101120005C010020440100206800002064000020D1
:101130004C0100205001002080B588B000AF394B31
:101140001B68002B03D0384B01221A6065E0364B38
:1011500000221A60354B1B681B6BFB614FF0A533F7
:10116000BB61FB691A68BB699A4211D1FB69043300
:101170001A68BB699A420BD1FB6908331A68BB69CC
:101180009A4205D1FB690C331A68BB699A4208D0B0
:10119000264B1A68254B1B68343319461046FFF757
:1011A0001BF9234B1B68BB60BB68B3FA83F3FB716D
:1011B000FB79C3F11F033B611E493A6913469B004B
:1011C00013449B000B441B68002B09D14FF05003C4
:1011D00083F31188BFF36F8FBFF34F8F7B61FEE7FF
:1011E0003A6913469B0013449B00124A1344FB6068
:1011F000FB685B685A68FB685A60FB685A68FB6862
:1012000008339A4204D1FB685B685A68FB685A60ED
:10121000FB685B68DB68054A136000BF2037BD468A
:1012200080BD00BF64010020500100206400002048
:10123000440100206800002080B584B000AF7860D1
:1012400039607B68002B09D14FF0500383F311887C
:10125000BFF36F8FBFF34F8FFB60FEE7074B1B6839
:1012600018331946786800F0E5FB0121386800F072
:1012700077FA00BF1037BD4680BD00BF6400002074
:1012800080B586B000AFF860B9607A60FB68002B6B
:1012900009D14FF0500383F31188BFF36F8FBFF371
:1012A0004F8F3B61FEE7FB685B687B61154B1B68FA
:1012B0007A69DA61134B1B687A6992681A627B69F2
:1012C0009B68104A126818325A600E4B1B6803F173
:1012D00018027B699A600B4B1B68FA689A62FB687C
:1012E0001B685A1CFB681A607B68002B02D04FF009
:1012F000FF33BB607968B86800F032FA00BF183776
:10130000BD4680BD6400002080B48BB000AF786023
:101310007B68DB68DB683B623B6A002B09D14FF0DE
:10132000500383F31188BFF36F8FBFF34F8FFB60C0
:10133000FEE73B6A9B6AFB613B6ADB693A6A126AB9
:101340009A603B6A1B6A3A6AD2695A60FB695A68BA
:101350003B6A18339A4203D13B6A1A6AFB695A60A6
:101360003B6A00229A62FB691B685A1EFB691A607D
:101370004A4B1B68002B5ED13B6A5B69BB613B6AD1
:101380009B683A6AD2689A603B6ADB683A6A9268FC
:101390005A60BB695A683B6A04339A4203D13B6A7C
:1013A000DA68BB695A603B6A00225A61BB691B68F4
:1013B0005A1EBB691A603B6ADB6A01229A40384BAD
:1013C0001B681343364A13603B6ADA6A3549134691
:1013D0009B0013449B000B4404331B687B613B6AF6
:1013E0007A699A607B699A683B6ADA607B699B6874
:1013F0003A6A04325A603B6A1A1D7B699A603B6AFA
:10140000DA6A13469B0013449B00264A1A443B6A3F
:101410005A613B6ADA6A234913469B0013449B00D6
:101420000B441B68591C1F4813469B0013449B0028
:10143000034419601BE01C4B5B683B613B6A3A69E3
:10144000DA613B699A683B6A1A623B699B683A6A4F
:1014500018325A603B6A03F118023B699A603B6A92
:10146000114A9A62104B1B6801330F4A13603B6AA2
:10147000DA6A0E4B1B68DB6A9A4205D901237B624C
:101480000B4B01221A6001E000237B627B6A184645
:101490002C37BD465DF8047B704700BF6401002017
:1014A0004401002068000020FC00002064000020AF
:1014B0005001002080B483B000AF7860064B1A68FA
:1014C0007B681A60054B1A687B685A6000BF0C374E
:1014D000BD465DF8047B70475401002040010020A8
:1014E00080B588B000AF786039607B68002B09D187
:1014F0004FF0500383F31188BFF36F8FBFF34F8F0B
:10150000FB60FEE73B68002B09D14FF0500383F3EB
:101510001188BFF36F8FBFF34F8F3B61FEE700F081
:1015200027FC1F4B1B68BB617B685B68BA69D31AD9
:101530007B613B681B68B3F1FF3F02D10023FB6175
:1015400026E07B681A68174B1B689A420AD07B68B2
:101550005A68BB699A4205D80123FB613B680022A7
:101560001A6015E03B681A687B699A420BD93B68A0
:101570001A687B69D21A3B681A607868FFF79AFF8D
:101580000023FB6104E03B6800221A600123FB6139
:1015900000F01CFCFB6918462037BD4680BD00BF2B
:1015A000400100205401002080B400AF034B012211
:1015B0001A6000BFBD465DF8047B704750010020F3
:1015C00080B582B000AF786000F054F8074B1B681C
:1015D000012B07D9064B4FF080521A60BFF34F8F93
:1015E000BFF36F8FFEF7ECFEEEE700BF6800002050
:1015F00004ED00E080B582B000AF00237B600CE01A
:101600007A6813469B0013449B00124A1344184601
:1016100000F0E2F97B6801337B607B68042BEFD933
:101620000D4800F0D9F90D4800F0D6F90C4800F04B
:10163000D3F90C4800F0D0F90B4800F0CDF90B4B72
:10164000054A1A600A4B054A1A6000BF0837BD46B2
:1016500080BD00BF68000020CC000020E00000201A
:10166000FC0000201001002028010020F4000020D0
:10167000F800002080B582B000AF19E000F078FBE0
:101680000F4BDB68DB687B607B680433184600F037
:101690000BFA0C4B1B68013B0A4A13600A4B1B6890
:1016A000013B094A136000F091FB786800F00EF8E6
:1016B000054B1B68002BE1D100BF0837BD4680BD3C
:1016C000100100203C0100202401002080B582B0E0
:1016D00000AF78607B681B6B184600F0D1FF78681C
:1016E00000F0CEFF00BF0837BD4680BD80B400AF1C
:1016F0000A4B1B681B68002B04D1094B4FF0FF32CB
:101700001A6005E0054B1B68DB681B68044A136020
:1017100000BFBD465DF8047B704700BFF4000020A9
:101720005C01002080B483B000AF0B4B1B68002B22
:1017300002D101237B6008E0084B1B68002B02D11B
:1017400002237B6001E000237B607B6818460C3736
:10175000BD465DF8047B704748010020640100200D
:1017600080B586B000AF78603960364B1B687B610E
:10177000354B1B680433184600F096F90346002BDE
:101780000BD1314B1B68DB6A012202FA03F3DA4307
:101790002E4B1B6813402D4A13607B68B3F1FF3F4B
:1017A00024D13B68002B21D0294B5B683B61264B41
:1017B0001B683A699A60244B1B683A699268DA6040
:1017C0003B699B68204A126804325A601E4B1B68B2
:1017D0001A1D3B699A601C4B1B681D4A5A611C4BC1
:1017E0001B6801331A4A136000BF26E07A697B68E0
:1017F0001344FB60144B1B68FA685A60FA687B69F3
:101800009A4209D2134B1A680F4B1B6804331946CE
:10181000104600F00FF910E00F4B1A680A4B1B68D6
:1018200004331946104600F005F90C4B1B68FA68A2
:101830009A4202D2094AFB68136000BF1837BD46BE
:1018400080BD00BF40010020640000204401002052
:1018500028010020F8000020F40000205C01002096
:1018600080B500AF1F4A1F4BD3F8883043F4700394
:10187000C2F888301C4A1C4B1B6843F001031360FC
:101880001949194B5A68194B13404B60164A164BAD
:101890001B6823F0847323F480331360124A124BC5
:1018A0001B6823F4802313600F4A0F4B5B6823F4FB
:1018B000FE0353600C4A0C4BDB6A23F00F03D36228
:1018C0000949094B1A6B0A4B13400B63064B002264
:1018D0009A6000F00FF8034B4FF000629A6000BF6F
:1018E00080BD00BF00ED00E0001002400CC07FF89A
:1018F000CCFC00FF80B483B000AF00237B600023EA
:101900003B60334A324B1B6843F480331360304BE7
:101910001B6803F400333B607B6801337B603B68EA
:10192000002B03D17B68B3F5A06FF0D1284B1B6867
:1019300003F40033002B02D001233B6001E00023BD
:101940003B603B68012B3CD1224B12221A60204A9B
:101950001F4B5B6853601E4A1D4B5B6853601C4AFB
:101960001B4B5B6843F480635360194A184B5B68F8
:1019700023F47C135360164A154B5B6843F4E81359
:101980005360134A124B1B6843F08073136000BF0F
:101990000F4B1B6803F00073002BF9D00C4A0C4B63
:1019A0005B6823F003035360094A094B5B6843F00B
:1019B0000203536000BF064B5B6803F00C03082B67
:1019C000F9D100BF0C37BD465DF8047B704700BFFE
:1019D000001002400020024080B483B000AF786065
:1019E0007B6803F108027B685A607B684FF0FF3226
:1019F0009A607B6803F108027B68DA607B6803F118
:101A000008027B681A617B6800221A6000BF0C37ED
:101A1000BD465DF8047B704780B483B000AF78604A
:101A20007B6800221A6100BF0C37BD465DF8047B5D
:101A3000704700BF80B485B000AF786039603B6804
:101A40001B68BB60BB68B3F1FF3F03D17B681B69B8
:101A5000FB600CE07B680833FB6002E0FB685B68BE
:101A6000FB60FB685B681A68BB689A42F6D9FB6842
:101A70005A683B685A603B685B683A689A603B68A2
:101A8000FA689A60FB683A685A603B687A681A613B
:101A90007B681B685A1C7B681A6000BF1437BD4600
:101AA0005DF8047B704700BF80B485B000AF7860FC
:101AB0007B681B69FB607B685B687A6892689A60E8
:101AC0007B689B687A6852685A60FB685A687B68D2
:101AD0009A4203D17B689A68FB685A607B6800224F
:101AE0001A61FB681B685A1EFB681A60FB681B685A
:101AF00018461437BD465DF8047B704780B485B046
:101B000000AFF860B9607A60FB68043BFB60FB687B
:101B10004FF080721A60FB68043BFB60BB6823F0E7
:101B20000102FB681A60FB68043BFB600C4AFB681F
:101B30001A60FB68143BFB607A68FB681A60FB68FC
:101B4000043BFB60FB686FF002021A60FB68203BFD
:101B5000FB60FB6818461437BD465DF8047B704790
:101B6000651B000880B485B000AF00237B60114B7B
:101B70001B68B3F1FF3F09D04FF0500383F3118886
:101B8000BFF36F8FBFF34F8FBB60FEE74FF0500383
:101B900083F31188BFF36F8FBFF34F8FFB6000BFDC
:101BA0007B68002BFCD000BF1437BD465DF8047B7A
:101BB000704700BF2000002000000000000000006F
:101BC000074B19680868B0E8F04F80F30988BFF345
:101BD0006F8F4FF0000080F311887047AFF30080E3
:101BE0006400002000BF00BF08480068006880F360
:101BF00008884FF0000080F3148862B661B6BFF326
:101C00004F8FBFF36F8F00DF00BF000008ED00E0D3
:101C100000BF00BF80B588B000AF4C4B1B684C4A7A
:101C2000934209D14FF0500383F31188BFF36F8FB4
:101C3000BFF34F8FFB60FEE7444B1B68454A93425E
:101C400009D14FF0500383F31188BFF36F8FBFF3B7
:101C50004F8F3B61FEE7404BFB61FB691B78DBB2BA
:101C6000BB60FB69FF221A70FB691B78DBB2FB715A
:101C7000FB79DBB203F05003DAB2384B1A70384B01
:101C800007221A6009E0364B1B68013B344A136097
:101C9000FB79DBB25B00DBB2FB71FB79DBB25BB2E1
:101CA000002BF0DB2E4B1B68C3F10703042B09D07C
:101CB0004FF0500383F31188BFF36F8FBFF34F8F43
:101CC0007B61FEE7264B1B68C3F10703042B09D099
:101CD0004FF0500383F31188BFF36F8FBFF34F8F23
:101CE000BB61FEE71E4B1B681B021D4A13601C4BA9
:101CF0001B6803F4E0631A4A1360BB68DAB2FB693D
:101D00001A70184A174B1B6843F470031360154A86
:101D1000144B1B6843F07043136000F0D5F8124B6E
:101D200000221A6000F0F4F8104A104B1B6843F0D0
:101D300040431360FFF758FFFFF7FEF9FFF712FF6C
:101D4000002318462037BD4680BD00BF00ED00E0EF
:101D500071C20F4170C20F4100E400E06801002031
:101D60006C01002020ED00E02000002034EF00E0B6
:101D700080B483B000AF4FF0500383F31188BFF3FA
:101D80006F8FBFF34F8F3B600E4B1B6801330D4AC3
:101D900013600C4B1B68012B0ED10B4B1B68DBB285
:101DA000002B09D04FF0500383F31188BFF36F8FDE
:101DB000BFF34F8F7B60FEE700BF0C37BD465DF879
:101DC000047B70472000002004ED00E080B483B065
:101DD00000AF114B1B68002B09D14FF0500383F368
:101DE0001188BFF36F8FBFF34F8F3B60FEE70A4B45
:101DF0001B68013B084A1360074B1B68002B04D18A
:101E000000237B607B6883F3118800BF0C37BD46DD
:101E10005DF8047B704700BF200000200000000038
:101E2000EFF30980BFF36F8F154B1A681EF0100F88
:101E300008BF20ED108A20E9F04F10602DE909005D
:101E40004FF0500080F31188BFF34F8FBFF36F8FB7
:101E5000FFF772F94FF0000080F3118809BC196890
:101E60000868B0E8F04F1EF0100F08BFB0EC108A01
:101E700080F30988BFF36F8F704700BFAFF3008016
:101E80006400002000BF00BF80B582B000AF4FF0FB
:101E9000500383F31188BFF36F8FBFF34F8F3B6005
:101EA000FFF72CF80346002B03D0064B4FF080526F
:101EB0001A6000237B607B6883F3118800BF0837BA
:101EC000BD4680BD04ED00E080B400AF0B4B0022A6
:101ED0001A600B4B00221A600A4A0B4B1B680B4915
:101EE000A1FB03139B09013B1360044B07221A60FB
:101EF00000BFBD465DF8047B704700BF10E000E006
:101F000018E000E014E000E00C000020D34D621067
:101F1000DFF80C00016841F47001016070470000B7
:101F200088ED00E000BF00BF80B586B000AF7860EC
:101F3000396001237B617B683B613B69002B09D1E0
:101F40004FF0500383F31188BFF36F8FBFF34F8FB0
:101F5000BB60FEE73B69002B5AD03B69DB6B002B73
:101F600056D03B69DB6B4FF0FF32B2FBF3F23B69BB
:101F70001B6C9A424CD3FFF7FBFE3B691A683B6926
:101F8000DB6B3969096C01FB03F31A443B699A6006
:101F90003B6900229A633B691A683B695A603B6956
:101FA0001A683B69DB6B013B3969096C01FB03F380
:101FB0001A443B69DA603B69FF2283F844203B699D
:101FC000FF2283F845203B68002B14D13B691B6935
:101FD000002B1AD03B6910331846FFF795F90346DA
:101FE000002B12D0144B4FF080521A60BFF34F8F6A
:101FF000BFF36F8F09E03B6910331846FFF7ECFC25
:102000003B6924331846FFF7E7FCFFF7DFFE01E0EA
:1020100000237B617B69002B09D14FF0500383F3D0
:102020001188BFF36F8FBFF34F8FFB60FEE77B69B3
:1020300018461837BD4680BD04ED00E080B58AB073
:1020400002AFF860B9601346FB710023FB61FB68C7
:10205000002B2BD04FF0FF32FB68B2FBF3F2BB68D2
:102060009A4223D3FB68BA6802FB03F313F1510FC2
:102070001CD8FB68BA6802FB03F3BB61BB69503331
:10208000184600F059FAF861FB69002B1BD0FB6978
:102090007B617B6950337B61FA79FB69009313465E
:1020A0007A69B968F86800F013F80CE0FB69002B56
:1020B00009D14FF0500383F31188BFF36F8FBFF343
:1020C0004F8F3B61FEE7FB6918462037BD4680BD58
:1020D00080B584B000AFF860B9607A60FB70BB680F
:1020E000002B03D1BB69BA691A6002E0BB697A6848
:1020F0001A60BB69FA68DA63BB69BA681A640121BD
:10210000B869FFF711FFBB69FA7883F84C2000BF6C
:102110001037BD4680BD00BF80B58CB000AFF86001
:10212000B9607A600023FB62FB68BB62BB6A002B6C
:1021300009D14FF0500383F31188BFF36F8FBFF3C2
:102140004F8FBB61FEE7BB68002B03D1BB6A1B6CE2
:10215000002B01D1012300E00023002B09D14FF017
:10216000500383F31188BFF36F8FBFF34F8FFB6171
:10217000FEE7FFF7D7FA0346002B02D17B68002B5E
:1021800001D1012300E00023002B09D14FF05003BF
:1021900083F31188BFF36F8FBFF34F8F3B62FEE76E
:1021A000FFF7E6FDBB6A9B6B7B627B6A002B1FD04F
:1021B000B968B86A00F08CF87B6A5A1EBB6A9A63E9
:1021C000BB6A1B69002B0FD0BB6A10331846FFF7A0
:1021D0009BF80346002B07D03C4B4FF080521A600F
:1021E000BFF34F8FBFF36F8FFFF7F0FD012369E05F
:1021F0007B68002B03D1FFF7E9FD002362E0FB6A57
:10220000002B06D107F110031846FFF753F90123FD
:10221000FB62FFF7DBFDFEF759FDFFF7A9FDBB6A87
:1022200093F844305BB2B3F1FF3F03D1BB6A0022A5
:1022300083F84420BB6A93F845305BB2B3F1FF3FAB
:1022400003D1BB6A002283F84520FFF7BFFD3A1D8A
:1022500007F1100311461846FFF742F90346002B19
:1022600023D1B86A00F0ACF80346002B17D0BB6A44
:1022700024337A6811461846FEF7DEFFB86A00F08C
:102280004DF8FEF731FD0346002B89D10F4B4FF07F
:1022900080521A60BFF34F8FBFF36F8F80E7B86A29
:1022A00000F03CF8FEF720FD7AE7B86A00F036F857
:1022B000FEF71AFDB86A00F083F80346002B3FF4DE
:1022C0006FAF002318463037BD4680BD04ED00E0F7
:1022D00080B582B000AF786039607B681B6C002BE2
:1022E00018D07B68DA687B681B6C1A447B68DA60FC
:1022F0007B68DA687B689B689A4203D37B681A68BC
:102300007B68DA607B68D9687B681B6C1A46386822
:1023100000F044FA00BF0837BD4680BD80B584B0E8
:1023200000AF7860FFF724FD7B6893F84530FB73BE
:1023300011E07B685B6A002B12D07B68243318465F
:10234000FEF7E2FF0346002B01D0FFF72DF9FB7BE0
:10235000013BDBB2FB7397F90F30002BE9DC00E0A7
:1023600000BF7B68FF2283F84520FFF72FFDFFF7B2
:10237000FFFC7B6893F84430BB7311E07B681B69FA
:10238000002B12D07B6810331846FEF7BDFF0346C2
:10239000002B01D0FFF708F9BB7B013BDBB2BB731D
:1023A00097F90E30002BE9DC00E000BF7B68FF22CC
:1023B00083F84420FFF70AFD00BF1037BD4680BDFB
:1023C00080B584B000AF7860FFF7D2FC7B689B6B70
:1023D000002B02D10123FB6001E00023FB60FFF72B
:1023E000F5FCFB6818461037BD4680BD80B487B049
:1023F00000AF7860396000233B617B68002B09D116
:102400004FF0500383F31188BFF36F8FBFF34F8FEB
:10241000FB60FEE73B68002B24D000237B611EE0BD
:10242000184A7B69DB0013445A687B689A4205D1DD
:102430007B69DB00134A13443B6113E03B69002BCB
:102440000AD1104A7B6952F83330002B04D17B69E2
:10245000DB000C4A13443B617B6901337B617B6980
:10246000072BDDD93B69002B05D03B693A681A6020
:102470003B697A685A6000BF1C37BD465DF8047B33
:10248000704700BF8C3D002080B586B000AFF8607B
:10249000B9607A60FB687B61FFF76AFC7B6993F83F
:1024A00044305BB2B3F1FF3F03D17B69002283F874
:1024B00044207B6993F845305BB2B3F1FF3F03D111
:1024C0007B69002283F84520FFF780FC7B699B6BCA
:1024D000002B06D17B6924337A68B9681846FEF769
:1024E000CFFE7869FFF71AFF00BF1837BD4680BDE1
:1024F000002103E00A4B5B584350043109480A4B62
:1025000042189A42F6D3094A02E0002342F8043BFB
:10251000074B9A42F9D3FFF7A3F9FDF737FF70474E
:102520008929000800000020280000202800002041
:10253000CC3D0020FEE7000080B58AB000AF786097
:102540000023FB61FEF7C2FB494B1B68002B04D143
:1025500000F0FAF8464B01221A607B68002B13D07A
:1025600008231A467B6803F00703D31A08337B61FC
:102570007B69DA437B689A4204D37A687B691344A7
:102580007B6001E000237B607B68002B63DB7B6862
:10259000002B60D0374B1B687A689A425BD8364B69
:1025A0003B62354B1B687B6204E07B6A3B627B6A63
:1025B0001B687B627B6A5A687B689A4203D27B6A9B
:1025C0001B68002BF1D17B6A2C4A934243D03B6AB3
:1025D0001B6808221344FB617B6A1A683B6A1A6015
:1025E0007B6A5A687B68D31A08225200934222D928
:1025F0007A6A7B6813443B617B6A5A687B68D21AAB
:102600003B695A607B6A7A685A603B695B68FB6029
:10261000194BBB6102E0BB691B68BB61BB691B68EE
:102620005A68FB689A42F6D3BB691A683B691A601C
:10263000BB693A691A600F4B1A687B6A5B68D31AE8
:102640000C4A13607B6A5B6843F000427B6A5A6005
:102650007B6A00221A60FEF747FBFB69002B01D161
:10266000FDF7B6FEFB6918462837BD4680BD00BFA2
:10267000803D002024000020703D0020783D002097
:1026800080B588B000AF78607B68BB617B68002B49
:1026900051D008235B42BA691344BB61BB697B61BB
:1026A0007B695B68002B09DB4FF0500383F31188D3
:1026B000BFF36F8FBFF34F8FBB60FEE77B691B6873
:1026C000002B09D04FF0500383F31188BFF36F8FB5
:1026D000BFF34F8FFB60FEE77B695B68002B2ADA54
:1026E0007B691B68002B26D17B695B6823F0004265
:1026F0007B695A60FEF7EAFA7B695B683B61104BC5
:10270000FB6102E0FB691B68FB61FB691B685A689F
:102710003B699A42F6D3FB691A687B691A60FB69C8
:102720007A691A607B695A68064B1B681344054A2C
:102730001360FEF7D9FA00BF2037BD4680BD00BF49
:10274000703D00202400002080B483B000AF104B07
:1027500023F007037B600F4A7B6813600D4B002258
:102760005A600D4B43F6F8325A600B4B00221A6048
:102770007B683B603B6843F6F8325A603B68064A28
:102780001A6000BF0C37BD465DF8047B704700BF80
:1027900077010020703D0020783D0020844641EA0A
:1027A000000313F003036DD1403A41D351F8043BC9
:1027B00040F8043B51F8043B40F8043B51F8043B1B
:1027C00040F8043B51F8043B40F8043B51F8043B0B
:1027D00040F8043B51F8043B40F8043B51F8043BFB
:1027E00040F8043B51F8043B40F8043B51F8043BEB
:1027F00040F8043B51F8043B40F8043B51F8043BDB
:1028000040F8043B51F8043B40F8043B51F8043BCA
:1028100040F8043B51F8043B40F8043B51F8043BBA
:1028200040F8043B51F8043B40F8043B403ABDD229
:10283000303211D351F8043B40F8043B51F8043BCB
:1028400040F8043B51F8043B40F8043B51F8043B8A
:1028500040F8043B103AEDD20C3205D351F8043B5A
:1028600040F8043B043AF9D2043208D0D2071CBF26
:1028700011F8013B00F8013B01D30B88038060464F
:10288000704700BF082A13D38B078DD010F00303C5
:102890008AD0C3F10403D21ADB071CBF11F8013B35
:1028A00000F8013B80D331F8023B20F8023B7BE784
:1028B000043AD9D3013A11F8013B00F8013BF9D2AF
:1028C0000B7803704B7843708B7883706046704749
:1028D00070B4840746D0541E002A41D0CDB20346BE
:1028E00002E0621EE4B3144603F8015B9A07F8D1D4
:1028F000032C2ED9CDB245EA05250F2C45EA054516
:1029000019D903F110022646103E0F2E42F8105C32
:1029100042F80C5C42F8085C42F8045C02F11002D8
:10292000F2D8A4F1100222F00F0204F00F041032CA
:10293000032C13440DD91E462246043A032A46F8B6
:10294000045BFAD8221F22F003020432134404F07D
:1029500003042CB1C9B21C4403F8011BA342FBD1F0
:1029600070BC704714460346C2E700BF7461736BC6
:1029700000000000546D722053766300546D725154
:092980000000000049444C450030
:1029890008090A002C0100000400000000A24A0402
:102999000000000000000000010203040607080906
:0829A900AAAAAAAAF83B00004B
:0400000508000000EF
:00000001FF
