:020000040800F2
:1000000000A000202106000865060008650600081B
:100010006506000865060008650600080000000087
:10002000000000000000000000000000650600085D
:100030006506000800000000650600086506000867
:1000400065060008650600086506000865060008E4
:1000500065060008650600086506000865060008D4
:1000600065060008650600086506000865060008C4
:1000700065060008650600086506000865060008B4
:1000800065060008650600086506000865060008A4
:100090006506000865060008650600086506000894
:1000A0006506000865060008650600086506000884
:1000B0006506000865060008650600086506000874
:1000C0006506000865060008650600086506000864
:1000D0006506000865060008650600086506000854
:1000E0006506000865060008650600086506000844
:1000F0006506000865060008650600086506000834
:10010000000000000000000000000000650600087C
:100110006506000865060008650600086506000813
:100120006506000865060008650600086506000803
:1001300065060008650600080000000000000000D9
:100140006506000865060008650600080000000056
:10015000000000000000000000000000000000009F
:1001600000000000000000006506000865060008A9
:10017000650600080000000000000000000000000C
:10018000000000006506000880B483B000AF78600E
:100190000B46FB70FB78002B06D00A49094B5A69C5
:1001A0007B6813434B6106E00649064B5A697B683E
:1001B000DB4313404B6100BF0C37BD465DF8047B49
:1001C000704700BF0010024080B487B000AF786075
:1001D000396000237B6100233B610023FB60002327
:1001E0007B617EE001227B6902FA03F33B613B689D
:1001F0001A683B691340FB60FA683B699A426DD10B
:100200003B681B79012B03D03B681B79022B36D14D
:100210007B689A687B695B00032101FA03F3DB4387
:100220001A407B689A607B689A683B685B791946DC
:100230007B695B0001FA03F31A437B689A607B6871
:100240009B889AB27B699BB2012101FA03F39BB2AE
:10025000DB439BB213409AB27B689A807B689B8891
:100260009BB21AB23B689B7919467B699BB201FA33
:1002700003F31BB213431BB29AB27B689A807B686C
:100280001A687B695B00032101FA03F3DB431A4020
:100290007B681A607B681A683B681B7919467B6922
:1002A0005B0001FA03F31A437B681A607B68DA6823
:1002B0007B699BB25B00032101FA03F3DB431A4025
:1002C0007B68DA607B68DA683B68DB7919467B69B2
:1002D0005B0001FA03F31A437B68DA607B69013340
:1002E0007B617B690F2B7FF67DAF00BF1C37BD465E
:1002F0005DF8047B704700BF80B483B000AF7860C6
:100300000B467B807A887B689A6100BF0C37BD46BC
:100310005DF8047B704700BF80B483B000AF7860A5
:100320000B467B807B687A881A8500BF0C37BD46F8
:100330005DF8047B704700BF90B585B000AF786072
:100340000023FB60786801F009F90DA3D3E90023CD
:1003500001F07AF903460C461846214601F00EFCDE
:1003600003467B600023FB6002E0FB680133FB6017
:10037000FA687B689A42F8D900BF1437BD4690BD31
:10038000CDCCCCCCCCCC1C4080B582B000AF78605A
:1003900039604FF42A410A48FFF7AEFF7868FFF74B
:1003A000CBFF4FF42A410648FFF7B6FF3A687B6857
:1003B000D31A1846FFF7C0FF00BF0837BD4680BDFF
:1003C0000010004880B500AF01214FF40010FFF786
:1003D000DBFE0B4B4FF42A421A60094B01221A71C3
:1003E000074B02225A71064B00229A71044B0022DD
:1003F000DA7103490348FFF7E7FE00BF80BD00BF85
:10040000080000200010004898B500AFFFF7DAFFA1
:10041000234BD3E900341846214601F0CFFB0346B5
:1004200000EE103A00F020F9B0EE407AF7EE007AD4
:1004300077EE277A9FED1B7A67EE877AFCEEE77AF4
:100440004FF47A7117EE900AFFF79EFF144BD3E931
:1004500000010FA3D3E9002300F044FF03460C463C
:100460000F4AC2E900340E4BD3E900010AA3D3E9D5
:10047000002301F06FFB0346002B06D0084A4FF023
:1004800000034FF00004C2E90034C1E7AFF300807D
:100490007B14AE47E17A843F1F85EB51B81E1940AB
:1004A000000000200000FA4380B500AF1F4A1F4B38
:1004B000D3F8883043F47003C2F888301C4A1C4BD0
:1004C0001B6843F0010313601949194B5A68194B13
:1004D00013404B60164A164B1B6823F0847323F4B9
:1004E00080331360124A124B1B6823F4802313607D
:1004F0000F4A0F4B5B6823F4FE0353600C4A0C4B0E
:10050000DB6A23F00F03D3620949094B1A6B0A4BCC
:1005100013400B63064B00229A6000F00FF8034B68
:100520004FF000629A6000BF80BD00BF00ED00E0A8
:10053000001002400CC07FF8CCFC00FF80B483B0F8
:1005400000AF00237B6000233B60334A324B1B68C3
:1005500043F480331360304B1B6803F400333B607B
:100560007B6801337B603B68002B03D17B68B3F56C
:10057000A06FF0D1284B1B6803F40033002B02D08E
:1005800001233B6001E000233B603B68012B3CD131
:10059000224B12221A60204A1F4B5B6853601E4A8E
:1005A0001D4B5B6853601C4A1B4B5B6843F48063C4
:1005B0005360194A184B5B6823F47C135360164A46
:1005C000154B5B6843F4E8135360134A124B1B68E6
:1005D00043F08073136000BF0F4B1B6803F0007380
:1005E000002BF9D00C4A0C4B5B6823F003035360DB
:1005F000094A094B5B6843F00203536000BF064B96
:100600005B6803F00C03082BF9D100BF0C37BD4623
:100610005DF8047B704700BF0010024000200240DC
:10062000002103E00A4B5B584350043109480A4B50
:1006300042189A42F6D3094A02E0002342F8043BEA
:10064000074B9A42F9D3FFF72FFFFFF7DDFE704704
:100650002C200008000000200000002000000020E6
:1006600010000020FEE7000000B510EE103A214A0D
:1006700023F00043934283B01ADDB3F1FF4F04DB54
:1006800030EE400A03B05DF804FB684600F036F82F
:1006900000F0030001281DD0022811D008B3DDEDC1
:1006A000010A9DED000A00F075F9B1EE400AE9E794
:1006B0000020DFED110A00F003FD03B05DF804FB3C
:1006C0000120DDED010A9DED000A00F0F9FCB1EE1C
:1006D000400AD7E7DDED010A9DED000A00F05AF966
:1006E000D0E70120DDED010A9DED000A00F0E8FCF5
:1006F000C8E700BFD80F493F0000000070B510EEFA
:10070000103A964A23F00044944286B05FDD944A42
:10071000944210EE106A1BDC002BDFED927A924AB5
:1007200024F00F0440F3D580944270EE677A5ED0D7
:100730009FED8E7A77EEC76A012377EEE67AC0EDF9
:10074000006A77EEC77AC0ED017A184606B070BD30
:10075000874A944205465CDDB4F1FF4F3FDAE2156B
:10076000863AA4EBC25307EE103AFDEEC76ADFEDFE
:10077000817AF8EEE66A37EE667ACDED036A27EE07
:10078000277AFDEEC76AF8EEE66A37EE667ACDEDB7
:10079000046A67EE277AF5EE407AF1EE10FACDEDB5
:1007A000057A40F0B780F5EE406AF1EE10FA0CBF22
:1007B00001230223704901910221009103A82946D7
:1007C00000F06AF9002EC0F29780034604E0002290
:1007D00080ED000A42600023184606B070BD70EE3E
:1007E000407A0023C0ED017AC0ED007AF4E7DFED36
:1007F000636A9FED637A77EEE67A012377EEC76A44
:1008000077EEE67AC0ED006A77EEC77AC0ED017A3E
:10081000E2E700F09DFCDFED5B6ADFED525A9FEDF1
:10082000537AF6EE007AE0EE267AFDEEE77A17EEDE
:10083000903AF8EEE76A1F2BB1EE666AA6EE250A3B
:1008400066EE877A1DDC5049581E24F0FF0251F8ED
:1008500020108A4215D030EE677A85ED007A30EEAE
:10086000470A002E30EE670A85ED010AB4DAB1EED0
:10087000477AB1EE400A85ED007A85ED010A5B42C8
:10088000AAE730EE677AE41517EE102AC2F3C752D2
:10089000A21A082AE1DDDFED397A9FED397AF0EE10
:1008A000405AE6EE275A30EE650AA6EE270AF0EE29
:1008B000407AD6EE877A35EEE77A17EE102AC2F341
:1008C000C752A41A192C3ADC85ED007AB0EE650AFD
:1008D000C5E7944270EE277A1ED09FED247A77EE1A
:1008E000876A4FF0FF3377EEE67AC0ED006A77EE65
:1008F000877AC0ED017A6FE795ED007AD5ED017A40
:10090000B1EE477AF1EE677A434285ED007AC5EDA4
:10091000017A61E703234DE7DFED186A9FED187A4E
:1009200077EEA67A4FF0FF3377EE876A77EEE67AB6
:10093000C0ED006A77EE877AC0ED017A4CE79FED53
:10094000137A9FED135AB0EE650AA6EE070A75EE0C
:10095000C07AE6EE077AD6EE857A7CE7D80F493F73
:10096000E3CB1640800FC93FD00FC93F4344353712
:10097000800F494300008043DC1C000800443537E9
:1009800008A3852E84F9223F5C1C000800A3852E55
:1009900032318D2410EE103A23F00043B3F1485F5A
:1009A0002CDAFDEEC07A17EE903A002B60D020EEE4
:1009B000007ADFED314A9FED315ADFED315A9FED7C
:1009C000316ADFED317ADFED316AA7EE245AE7EEC6
:1009D000055AA7EE256AE7EE067AE7EE276A66EE85
:1009E000876A60EEC00AB6EE006AE7EE260AF7EE06
:1009F000007AD7EE060A37EEE00A704720EE007A5A
:100A0000DFED1D4A9FED1D5ADFED1D5A9FED1D6A5A
:100A1000DFED1D7ADFED1D6A1D4AA7EE245A9342D1
:100A2000E7EE055AA7EE256AE7EE067AE7EE276AB3
:100A300066EE876AD5DD174A934214DC03F17F43E3
:100A400007EE903AB7EE006A36EE676A60EEC00ACB
:100A5000F6EE005AE7EE260AD7EE257A77EEE07A30
:100A600036EE670A7047B6EE076AF5EE027AEDE7F2
:100A7000B7EE000A704700BF4ED747ADF6740F318E
:100A80007CF293B4010DD037610BB6BAABAA2A3D04
:100A90009999993E0000483F2DE9F04F2DED048BC8
:100AA000D7B05F1EDA4C649D0193D31E48BF131D5F
:100AB00054F82560DB1023EAE37303F1010A8B4647
:100AC000F11902938146A2EBCA0AA3EB070314D4DF
:100AD0001944659801311AAA002BAABF50F8234087
:100AE000DFEDD07A07EE904A03F10103A8BFF8EEDC
:100AF000E77A8B42E2EC017AEED1002EC0F2D68288
:100B0000019B42AD9C0006F1010E1AAB05EB8E0E67
:100B1000181909EB0401002FC0F2C081DFEDC17A82
:100B20004B460246F3EC016A32ED017A8B42E6EE67
:100B3000877AF7D1E5EC017A754500F10400EAD136
:100B400006F18043023B9B0006AA03F10408DFED97
:100B5000B18A9FEDB18ACDF810B013444C44904453
:100B60000393354656AB03EB8503002D13ED140AB2
:100B700019DD42A901EB850305AA60EE287AB0EEE3
:100B8000407AFDEEE77A73ED016AF8EEE77A8B4280
:100B9000A7EEC87A37EEA60ABDEEC77A17EE100A9E
:100BA00042F8040FE9D1504600F022FBB0EE409A23
:100BB000B4EE000A29EE000A00F0D2FAF2EE007A52
:100BC000A0EE679ABAF1000FFDEEC97A17EE90BA5F
:100BD000F8EEE77A39EE679A40F3458105F1FF3E7A
:100BE00006ABCAF1080253F82E3043FA02F000FABD
:100BF00002F206A99B1ACAF1070241F82E3083447B
:100C000043FA02F1002937DD002D0BF1010B40F30F
:100C10002882002210460DF1140E8C4608E0C3F520
:100C2000807113B1CEF800100120013295420CDD25
:100C30005EF8043F0028F2D00132C3F1FF03954271
:100C4000CEF800304FF00100F2DC6146BAF1000F3F
:100C500010DDBAF1010F00F00D81BAF1020F09D1D8
:100C60006A1E06AB0DF1180E53F8223003F03F0355
:100C70004EF8223002295CD0B5EE409AF1EE10FA1F
:100C800069D105F1FF3E76450FDC05F18042013A5E
:100C900006AB03EB8202002052F80439424540EAD9
:100CA0000300F9D1002840F01081731E06AA52F803
:100CB0002330002B40F0D281039B4FF0010E53F8FC
:100CC00004290EF1010E002AF9D0AE446B1C7345C5
:100CD0002DDC029A9818019A00F1804051190EEB10
:100CE000020C659A013802EB80001AAA02EB81011E
:100CF00002EB8C0C42AA02EB830550F8043F07EE8E
:100D0000903AF8EEE77A002FE1EC017ADFED457AD0
:100D100009DB4B460A46F3EC016A32ED017AA34245
:100D2000E6EE877AF7D16145E5EC017AE5D17546C3
:100D300018E7B7EE000A30EE499A00289CD05046DA
:100D4000059100F055FA39EE409A0599B5EE409AB2
:100D5000F1EE10FA95D0B0EE490ACAF1000009EEA2
:100D600090BA8846DDF810B000F042FA9FED2A7A7A
:100D7000B4EEC70AF1EE10FAC0F27E81DFED257AFB
:100D800060EE277A06A9FDEEE77A6B1CF8EEE77AAB
:100D90000AF1080AA7EEC70AFDEEE77ABDEEC00A1F
:100DA00010EE102A41F8252017EE902A41F8232052
:100DB0005046B7EE000A019300F01AFA019B002B8F
:100DC000C0F266819F0042AC06AA381D04EB070EF4
:100DD0009FED107A10440EF1040270ED017AF8EEE6
:100DE000E77A67EE807A20EE070A62ED017AA24286
:100DF000F3D10DF5827C0025002EC0F22181074839
:100E00009FED077ADFED077A7146002211E000BFFF
:100E1000F41F00080000803B000080430020000811
:100E20000000C93F00000000954209DB043090ED4E
:100E3000007AF1EC016A01329642E6EE877AF3DA43
:100E4000AEF1040E56AA02EB8502F44542ED287A73
:100E500005F10105D0D1649A032A00F2AE80DFE8E3
:100E600002F0DCB5B55010D16B1E06AA52F8231063
:100E70000912C7E66A1E06AB0DF1180E53F82230B0
:100E800003F07F034EF82230F4E6F6EE007AB4EE7B
:100E9000E79AF1EE10FA0BDA0021EDE65FED1F7A2A
:100EA000E5EC017A754500F104007FF434AE47E6C5
:100EB000002D0BF1010BC8BF02213FF7AAAEF7EEE0
:100EC000007A37EEC99A0221D6E606AA09EE90BA50
:100ED00052F82E20DDF810B073468846AAF1080AB1
:100EE000002A7FF465AF0EF18042013A06A901EBBA
:100EF000820252F80419013BAAF1080A0029F8D02D
:100F000056E7002B40F3C18003F18042013A900084
:100F100056A9CD19041D2EA9083015ED287A0C44C8
:100F200008442FAD74ED017A77EE876A77EEE67AA2
:100F300077EE877AB0EE667A60ED017AA842C4ED6A
:100F4000006AEFD1012B40F3A080920056AB1F4402
:100F500002F108002EAB1844043217ED287A13442E
:100F600030AC024673ED017A77EE276A77EEE67AC7
:100F700077EE877AB0EE667A62ED017A9442C3ED3D
:100F8000006AEFD15FED597A30ED017A844277EE55
:100F9000877AF9D14346002B65D0DDED2E6A9DEDB1
:100FA0002F7AF1EE677AF1EE666AB1EE477ACBED11
:100FB000027ACBED006A8BED017A19EE903A03F0DC
:100FC000070057B0BDEC048BBDE8F08F3A1D2EA88A
:100FD0005FED6C7A024432ED017A824277EE877AD5
:100FE000F9D142467AB3DDED2E6AB1EE677A002B75
:100FF00076EEE77A8BED007A0ADD2FA80122B0ECBD
:10100000017A0132934277EE877AF8DA43460BB1E0
:10101000F1EE677ACBED017ACFE756AA3A445FED5D
:101020007F7A9C3A32ED017A013B591C77EE877A40
:10103000F8D143460BB1F1EE677ACBED007ABCE70D
:101040005FED887AFCE69DED2E7ACBED007A002BE1
:1010500077EE677AD1DCCBED017AAEE74FF0010E87
:1010600033E60020F2E52E9A2F9BCBED027ACBF8E7
:101070000020CBF80430A0E7BDEEC00A06A910EEB0
:10108000102A2B4641F8252092E65FED9A7A81E7F7
:10109000649A032A91D801A151F822F0B9100008EE
:1010A000B3100008B31000088B100008019B9C00CF
:1010B00046E55FEDA47A94E75FEDA67AB9E700BF55
:1010C00010EE103A23F00043B3F1485F04DAFDEE6E
:1010D000C07A17EE903A23B360EE007A9FED155A6E
:1010E000DFED155A9FED156ADFED156A9FED157A54
:1010F000E7EE855A20EE275AA7EEA56AE7EE866A44
:10110000A7EEA67A70B127EE457AF6EE006AA0EE59
:10111000A67ADFED0D6AD7EE870AE5EE260A30EEF5
:10112000600A7047DFED096AE7EE876AA5EE260AD6
:10113000704700BFD3C92E2F342FD7B21BEF3836DC
:10114000010D50B98988083CABAA2A3EABAA2ABE39
:1011500010EE103A23F0004300EE103A704700BF43
:1011600010EE102A22F00041CB0D7F3B162B17DC2E
:10117000002B10EE100A19DB1A4919410A4222D03D
:10118000DFED197A70EE277AF5EEC07AF1EE10FAFB
:1011900019DD002A18DB20EA010300EE103A70473F
:1011A000B1F1FF4F0FD330EE000A7047DFED0E7A3A
:1011B00070EE277AF5EEC07AF1EE10FA03DD002A20
:1011C00008DB9FED0A0A70474FF4000242FA03F36E
:1011D0001844E0E70029FFEE007A18BFB0EE670A76
:1011E000704700BFFFFF7F00CAF249710000000096
:1011F00008B510EE103A33F000422DED028B11D0FD
:10120000B2F1FF4F11D2B2F5000F13D3D20D024449
:10121000FE2A2EDC002A1ADD23F0FF4343EAC253E4
:1012200000EE103ABDEC028B08BDBDEC028B30EE37
:10123000000A08BD1D4BDFED1E7A984220EE270AFA
:1012400022DB10EE103AC3F3C752193ADFE712F16E
:10125000160F1EDA4CF2503398420ADC9FED158AC5
:10126000F0EE400AB0EE480A00F02AF820EE080A34
:10127000D8E79FED118AF0EE400AB0EE480A00F080
:101280001FF820EE080ACDE7DFED0A0A20EE200A5B
:10129000C8E7193223F0FF4343EAC253DFED077A70
:1012A00000EE103A20EE270ABCE700BFB03CFFFF7B
:1012B0000000004C6042A20DCAF2497100000033E8
:1012C00010EE103A23F0004210EE903A03F0004383
:1012D000134300EE103A704781F0004102E000BF76
:1012E00083F0004330B54FEA41044FEA430594EAE6
:1012F000050F08BF90EA020F1FBF54EA000C55EA21
:10130000020C7FEA645C7FEA655C00F0E2804FEAF1
:101310005454D4EB5555B8BF6D420CDD2C4480EAD3
:10132000020281EA030382EA000083EA010180EA03
:10133000020281EA0303362D88BF30BD11F0004F51
:101340004FEA01314FF4801C4CEA113102D0404287
:1013500061EB410113F0004F4FEA03334CEA1333C2
:1013600002D0524263EB430394EA050F00F0A780DA
:10137000A4F10104D5F1200E0DDB02FA0EFC22FAD5
:1013800005F2801841F1000103FA0EF2801843FAC9
:1013900005F359410EE0A5F120050EF1200E012ABA
:1013A00003FA0EFC28BF4CF0020C43FA05F3C018F8
:1013B00051EBE37101F0004507D54FF0000EDCF171
:1013C000000C7EEB00006EEB0101B1F5801F1BD31A
:1013D000B1F5001F0CD349085FEA30004FEA3C0C1E
:1013E00004F101044FEA445212F5800F80F09A8014
:1013F000BCF1004F08BF5FEA500C50F1000041EB18
:10140000045141EA050130BD5FEA4C0C404141EB1B
:10141000010111F4801FA4F10104E9D191F0000F42
:1014200004BF01460020B1FA81F308BF2033A3F1C5
:101430000B03B3F120020CDA0C3208DD02F1140CBC
:10144000C2F10C0201FA0CF021FA02F10CE002F1F7
:101450001402D8BFC2F1200C01FA02F120FA0CFCF0
:10146000DCBF41EA0C019040E41AA2BF01EB045139
:10147000294330BD6FEA04041F3C1CDA0C340EDC37
:1014800004F11404C4F1200220FA04F001FA02F37A
:1014900040EA030021FA04F345EA030130BDC4F138
:1014A0000C04C4F1200220FA02F001FA04F340EA2D
:1014B0000300294630BD21FA04F0294630BD94F0DE
:1014C000000F83F4801306BF81F480110134013DC5
:1014D0004EE77FEA645C18BF7FEA655C29D094EA36
:1014E000050F08BF90EA020F05D054EA000C04BFB4
:1014F0001946104630BD91EA030F1EBF002100209F
:1015000030BD5FEA545C05D14000494128BF41F03D
:10151000004130BD14F580043CBF01F5801130BDA1
:1015200001F0004545F0FE4141F470014FF000002C
:1015300030BD7FEA645C1ABF194610467FEA655CDD
:101540001CBF0B46024650EA013406BF52EA03357F
:1015500091EA030F41F4002130BD00BF90F0000F6D
:1015600004BF0021704730B54FF4806404F13204A9
:101570004FF000054FF0000150E700BF90F0000F62
:1015800004BF0021704730B54FF4806404F1320489
:1015900010F0004548BF40424FF000013EE700BF59
:1015A00042004FEAE2014FEA31014FEA02701FBFE9
:1015B00012F07F4393F07F4F81F06051704792F0BB
:1015C000000F14BF93F07F4F704730B54FF4607435
:1015D00001F0004521F0004120E700BF50EA010280
:1015E00008BF704730B54FF000050AE050EA01022D
:1015F00008BF704730B511F0004502D5404261EB9D
:1016000041014FF4806404F132045FEA915C3FF4DD
:10161000DCAE4FF003025FEADC0C18BF03325FEA76
:10162000DC0C18BF033202EBDC02C2F1200300FA2B
:1016300003FC20FA02F001FA03FE40EA0E0021FA50
:1016400002F11444C1E600BF70B54FF0FF0C4CF43A
:10165000E06C1CEA11541DBF1CEA135594EA0C0FF0
:1016600095EA0C0F00F0DEF82C4481EA030621EA2B
:101670004C5123EA4C5350EA013518BF52EA033566
:1016800041F4801143F4801338D0A0FB02CE4FF018
:101690000005E1FB02E506F00042E0FB03E54FF048
:1016A0000006E1FB03569CF0000F18BF4EF0010E40
:1016B000A4F1FF04B6F5007F64F5407404D25FEA3C
:1016C0004E0E6D4146EB060642EAC62141EA5551EF
:1016D0004FEAC52040EA5E504FEACE2EB4F1FD0C31
:1016E00088BFBCF5E06F1ED8BEF1004F08BF5FEAAF
:1016F000500E50F1000041EB045170BD06F0004661
:1017000046EA010140EA020081EA0301B4EB5C040D
:10171000C2BFD4EB0C0541EA045170BD41F4801105
:101720004FF0000E013C00F3AB8014F1360FDEBF2A
:10173000002001F0004170BDC4F10004203C35DA06
:101740000C341BDC04F11404C4F1200500FA05F389
:1017500020FA04F001FA05F240EA020001F000422A
:1017600021F0004110EBD37021FA04F642EB0601A0
:101770005EEA430E08BF20EAD37070BDC4F10C04CA
:10178000C4F1200500FA04F320FA05F001FA04F28E
:1017900040EA020001F0004110EBD37041F100017A
:1017A0005EEA430E08BF20EAD37070BDC4F1200585
:1017B00000FA05F24EEA020E20FA04F301FA05F2ED
:1017C00043EA020321FA04F001F0004121FA04F295
:1017D00020EA020000EBD3705EEA430E08BF20EA65
:1017E000D37070BD94F0000F0FD101F0004640009F
:1017F00041EB010111F4801F08BF013CF7D041EA21
:10180000060195F0000F18BF704703F00046520024
:1018100043EB030313F4801F08BF013DF7D043EAF5
:101820000603704794EA0C0F0CEA135518BF95EAAB
:101830000C0F0CD050EA410618BF52EA4306D1D132
:1018400081EA030101F000414FF0000070BD50EA51
:10185000410606BF1046194652EA430619D094EADB
:101860000C0F02D150EA013613D195EA0C0F05D1C5
:1018700052EA03361CBF104619460AD181EA030119
:1018800001F0004141F0FE4141F470014FF00000D1
:1018900070BD41F0FE4141F4780170BD70B54FF06C
:1018A000FF0C4CF4E06C1CEA11541DBF1CEA1355EC
:1018B00094EA0C0F95EA0C0F00F0A7F8A4EB0504CE
:1018C00081EA030E52EA03354FEA013100F08880C5
:1018D0004FEA03334FF0805545EA131343EA12638E
:1018E0004FEA022245EA111545EA10654FEA002643
:1018F0000EF000419D4208BF964244F1FD0404F5FC
:10190000407402D25B084FEA3202B61A65EB030557
:101910005B084FEA32024FF480104FF4002CB6EB14
:10192000020E75EB030E22BFB61A754640EA0C0094
:101930005B084FEA3202B6EB020E75EB030E22BFD4
:10194000B61A754640EA5C005B084FEA3202B6EB15
:10195000020E75EB030E22BFB61A754640EA9C00D4
:101960005B084FEA3202B6EB020E75EB030E22BFA4
:10197000B61A754640EADC0055EA060E18D04FEA62
:10198000051545EA16754FEA06164FEAC30343EA02
:1019900052734FEAC2025FEA1C1CC0D111F4801FCF
:1019A0000BD141EA00014FF000004FF0004CB6E7C8
:1019B00011F4801F04BF01430020B4F1FD0C88BF67
:1019C000BCF5E06F3FF6AFAEB5EB030C04BFB6EB72
:1019D000020C5FEA500C50F1000041EB045170BD65
:1019E0000EF0004E4EEA113114EB5C04C2BFD4EB92
:1019F0000C0541EA045170BD41F480114FF0000E16
:101A0000013C90E645EA060E8DE60CEA135594EA91
:101A10000C0F08BF95EA0C0F3FF43BAF94EA0C0F94
:101A20000AD150EA01347FF434AF95EA0C0F7FF409
:101A300025AF104619462CE795EA0C0F06D152EA5D
:101A400003353FF4FDAE1046194622E750EA410641
:101A500018BF52EA43067FF4C5AE50EA41047FF452
:101A60000DAF52EA43057FF4EBAE12E74FF0FF3CB7
:101A700006E000BF4FF0010C02E000BF4FF0010C88
:101A80004DF804CD4FEA410C7FEA6C5C4FEA430C01
:101A900018BF7FEA6C5C1BD001B050EA410C0CBF50
:101AA00052EA430C91EA030F02BF90EA020F0020B2
:101AB000704710F1000F91EA030F58BF994208BF19
:101AC00090422CBFD8176FEAE37040F001007047D6
:101AD0004FEA410C7FEA6C5C02D150EA013C07D12D
:101AE0004FEA430C7FEA6C5CD6D152EA033CD3D078
:101AF0005DF8040B704700BF8446104662468C4672
:101B00001946634600E000BF01B5FFF7B7FF0028A4
:101B100048BF10F1000F01BD4DF808EDFFF7F4FFCD
:101B20000CBF012000205DF808FB00BF4DF808ED58
:101B3000FFF7EAFF34BF012000205DF808FB00BF7B
:101B40004DF808EDFFF7E0FF94BF012000205DF89D
:101B500008FB00BF4DF808EDFFF7CEFF94BF012052
:101B600000205DF808FB00BF4DF808EDFFF7C4FF4B
:101B700034BF012000205DF808FB00BF4A0011D2ED
:101B800012F5001211D20DD56FF47873B3EB6252D7
:101B90000ED44FEAC12343F0004343EA505323FAE3
:101BA00002F070474FF00000704750EA013002D158
:101BB0004FF0FF3070474FF0000070474FEA41028E
:101BC000B2F1E04324BFB3F5001CDCF1FE5C0DD99B
:101BD00001F0004C4FEAC0024CEA5070B2F1004FE5
:101BE00040EB830008BF20F00100704711F0804FE8
:101BF00021D113F13872BCBF01F00040704741F4AD
:101C000080114FEA5252C2F11802C2F1200C10FAB0
:101C10000CF320FA02F018BF40F001004FEAC12394
:101C20004FEAD32303FA0CFC40EA0C0023FA02F338
:101C30004FEA4303CCE77FEA625307D150EA01330E
:101C40001EBF4FF0FE4040F44000704701F00040DE
:101C500040F0FE4040F40000704700BF000FC93F55
:101C6000000F494000CB9640000FC9400053FB4095
:101C700000CB164100ED2F41000F49410031624178
:101C800000537B41003A8A4100CB9641005CA3415E
:101C900000EDAF41007EBC41000FC94100A0D5411D
:101CA0000031E24100C2EE410053FB4100F2034229
:101CB000003A0A420083104200CB164200141D4233
:101CC000005C234200A5294200ED2F420036364237
:101CD000007E3C4200C74242000F4942A200000081
:101CE000F9000000830000006E0000004E000000BC
:101CF000440000001500000029000000FC00000066
:101D00002700000057000000D1000000F50000008F
:101D100034000000DD000000C0000000DB00000017
:101D20006200000095000000990000003C000000E7
:101D3000430000009000000041000000FE00000091
:101D40005100000063000000AB000000DE00000056
:101D5000BB000000C500000061000000B7000000EB
:101D6000240000006E0000003A0000004200000065
:101D70004D000000D2000000E0000000060000005E
:101D8000490000002E000000EA00000009000000E9
:101D9000D1000000920000001C000000FE000000C6
:101DA0001D000000EB0000001C000000B10000005E
:101DB00029000000A70000003E000000E80000002D
:101DC0008200000035000000F50000002E00000039
:101DD000BB0000004400000084000000E900000097
:101DE0009C0000007000000026000000B40000000D
:101DF0005F0000007E00000041000000390000008C
:101E000091000000D60000003900000083000000AF
:101E10005300000039000000F40000009C000000A6
:101E2000840000005F0000008B000000BD00000087
:101E3000F9000000280000003B0000001F00000027
:101E4000F800000097000000FF000000DE00000026
:101E500005000000980000000F000000EF000000E7
:101E60002F000000110000008B0000005A0000004D
:101E70000A0000006D0000001F0000006D0000005F
:101E8000360000007E000000CF00000027000000A8
:101E9000CB00000009000000B70000004F00000068
:101EA000460000003F000000660000009E000000A9
:101EB0005F000000EA0000002D0000007500000037
:101EC00027000000BA000000C7000000EB0000007F
:101ED000E5000000F10000007B0000003D00000074
:101EE0000700000039000000F70000008A00000031
:101EF0005200000092000000EA0000006B000000A9
:101F0000FB0000005F000000B10000001F000000A7
:101F10008D0000005D000000080000005600000079
:101F2000030000003000000046000000FC0000003C
:101F30007B0000006B000000AB000000F000000020
:101F4000CF000000BC000000200000009A0000004C
:101F5000F4000000360000001D000000A900000091
:101F6000E300000091000000610000005E0000003E
:101F7000E60000001B0000000800000065000000F3
:101F800099000000850000005F00000014000000C0
:101F9000A000000068000000400000008D0000006C
:101FA000FF000000D8000000800000004D0000008D
:101FB0007300000027000000310000000600000050
:101FC000060000001500000056000000CA000000D6
:101FD00073000000A8000000C900000060000000BD
:101FE000E20000007B000000C00000008C00000048
:101FF0006B00000004000000070000000900000062
:102000000000C93F0000F0390000DA370000A233B9
:102010000000842E0000502B0000C2270000D022B8
:0C2020000000C41F0000C61B0000441795
:0400000508000000EF
:00000001FF
