:020000040800F2
:1000000000A0002089100008CD100008CD100008C5
:10001000CD100008CD100008CD1000080000000031
:10002000000000000000000000000000CD100008EB
:10003000CD10000800000000CD1000080D0D0008D4
:10004000CD100008CD100008CD100008CD1000081C
:10005000CD100008CD100008CD100008CD1000080C
:10006000CD100008CD100008CD100008CD100008FC
:10007000CD100008CD100008CD100008CD100008EC
:10008000CD100008CD100008810D0008CD1000082B
:10009000CD100008CD100008CD100008CD100008CC
:1000A000CD100008CD100008CD100008CD100008BC
:1000B000CD100008CD100008CD100008CD100008AC
:1000C000CD100008CD100008CD100008CD1000089C
:1000D000CD100008CD100008CD100008CD1000088C
:1000E000CD100008CD100008CD100008CD1000087C
:1000F000CD100008CD100008CD100008CD1000086C
:10010000000000000000000000000000CD1000080A
:10011000CD100008CD100008CD100008CD1000084B
:10012000CD100008CD100008CD100008CD1000083B
:10013000CD100008CD1000080000000000000000F5
:10014000CD100008CD100008CD1000080000000000
:10015000000000000000000000000000000000009F
:100160000000000000000000CD100008CD100008C5
:10017000CD1000080000000000000000000000009A
:1001800000000000CD10000880B48BB000AF786094
:1001900000233B620023FB610023BB6100237B61E2
:1001A00000233B6100237B620023FB600023BB60D4
:1001B000924B5B6803F00C033B623B6A042B07D055
:1001C000082B09D0002B30D17B688D4A1A6030E0B3
:1001D0007B688B4A1A602CE0884B5B6803F47013D1
:1001E000FB61864B5B6803F48033BB61FB699B0C4E
:1001F0000233FB61BB69002B05D1FB69814A02FB1D
:1002000003F37B620DE07D4BDB6A03F00F030133E8
:100210007B617B4A7B69B2FBF3F3FA6902FB03F370
:100220007B627B687A6A1A6003E07B68744A1A60B2
:1002300000BF724B5B6803F0F0033B623B6A1B0933
:100240003B62714A3B6A13441B78DBB2BB607B683C
:100250001A68BB68DA407B685A60684B5B6803F4D5
:10026000E0633B623B6A1B0A3B62674A3B6A13449A
:100270001B78DBB23B617B685A683B69DA407B687C
:100280009A605E4B5B6803F460533B623B6ADB0A37
:100290003B625D4A3B6A13441B78DBB2FB607B68C0
:1002A0005A68FB68DA407B68DA60544BDB6A03F417
:1002B000F8733B623B6A1B093B62544A3B6A32F863
:1002C00013309BB23B613B6903F01003002B06D057
:1002D0007A6A3B69B2FBF3F27B681A6103E07B68E0
:1002E0001A687B681A61454BDB6A03F478533B62FA
:1002F0003B6A5B0A3B62454A3B6A32F813309BB269
:100300003B613B6903F01003002B06D07A6A3B691E
:10031000B2FBF3F27B685A6103E07B681A687B6882
:100320005A61364B1B6B03F01003002B03D17B6823
:10033000334A9A6103E07B681A687B689A612F4BA5
:100340001B6B03F02003002B03D17B682C4ADA617E
:1003500003E07B681A687B68DA61284B1B6B03F447
:100360008073002B0DD07B681A687B6A9A4208D193
:10037000FA68BB689A4204D17B6A5A007B681A62A9
:1003800003E07B68DA687B681A621C4B1B6B03F422
:100390000073002B0DD07B681A687B6A9A4208D1E3
:1003A000FA68BB689A4204D17B6A5A007B685A6239
:1003B00003E07B68DA687B685A62104B1B6B03F0C2
:1003C0000303002B04D17B68DA687B689A6228E01B
:1003D0000A4B1B6B03F00303012B04D17B681A68E3
:1003E0007B689A621DE0054B1B6B03F00303022B35
:1003F0000ED17B684FF400429A6212E00010024076
:1004000000127A0000093D000000002010000020CA
:10041000604B1B6B03F00303032B02D17B685E4A26
:100420009A625C4B1B6B03F44033002B04D17B6856
:100430009A687B68DA6221E0564B1B6B03F4403309
:10044000B3F5803F04D17B681A687B68DA6215E0F7
:10045000504B1B6B03F44033B3F5003F04D17B6872
:100460004FF40042DA6209E04A4B1B6B03F440335D
:10047000B3F5403F02D17B68474ADA62454B1B6BBC
:1004800003F44023002B04D17B689A687B681A63CD
:1004900021E0404B1B6B03F44023B3F5802F04D1C4
:1004A0007B681A687B681A6315E03A4B1B6B03F490
:1004B0004023B3F5002F04D17B684FF400421A6348
:1004C00009E0344B1B6B03F44023B3F5402F02D1FA
:1004D0007B68314A1A632F4B1B6B03F44013002BCC
:1004E00004D17B689A687B685A6321E0294B1B6BB7
:1004F00003F44013B3F5801F04D17B681A687B684E
:100500005A6315E0234B1B6B03F44013B3F5001F34
:1005100004D17B684FF400425A6309E01D4B1B6B0A
:1005200003F44013B3F5401F02D17B681A4A5A63A3
:10053000184B1B6B03F44003002B04D17B689A68B3
:100540007B689A6321E0134B1B6B03F44003B3F504
:10055000800F04D17B681A687B689A6315E00D4BA5
:100560001B6B03F44003B3F5000F04D17B684FF419
:1005700000429A6309E0074B1B6B03F44003B3F599
:10058000400F02D17B68044A9A6300BF2C37BD46F6
:1005900080BC70470010024000127A0080B485B021
:1005A00000AF78600023FB607B681B0FFB60FB687B
:1005B000002B06D00B4A0B4BDB6A23F47853D36233
:1005C00005E0084A074BDB6A23F4F873D362054958
:1005D000044BDA6A7B681343CB6200BF1437BD4615
:1005E00080BC70470010024080B483B000AF7860D8
:1005F0000B46FB70FB78002B06D00949084B5A6963
:100600007B6813434B6106E00549054B5A697B68DB
:10061000DB4313404B6100BF0C37BD4680BC7047C5
:100620000010024080B483B000AF78600B46FB70CE
:10063000FB78002B06D00949084B9A697B68134365
:100640008B6106E00549054B9A697B68DB431340E3
:100650008B6100BF0C37BD4680BC70470010024064
:1006600080B485B000AF786039600023FB607B68A0
:10067000DB68FB60FA68194B1340FB603B681A6843
:100680003B685B681A433B689B681A433B68DB68BE
:100690001A433B681B691A433B685B691A433B6812
:1006A0009B691343FA681343FB607B68FA68DA605E
:1006B0007B681B6BFB60FB6823F00F03FB603B68F0
:1006C0001B7F013B1A46FB681343FB607B68FA689B
:1006D0001A6300BF1437BD4680BC704707C0FFFDDA
:1006E00080B483B000AF78600B46FB70FB78002BC2
:1006F00006D07B689B6843F001027B689A6005E046
:100700007B689B6843F002027B689A6000BF0C37ED
:10071000BD4680BC704700BF80B485B000AF786034
:10072000084611461A460346FB700B46BB7013463B
:100730007B700023FB600023BB60BB78042B21D8B7
:100740007B681B6BFB60BA7813465B0013445B004D
:100750001A461F239340BB60BB68DB43FA68134013
:10076000FB60F978BA7813465B0013445B0001FA2A
:1007700003F3BB60FA68BB681343FB607B68FA68ED
:100780001A6374E0BB78092B23D87B685B6BFB6032
:10079000BB785A1F13465B0013445B001A461F23A5
:1007A0009340BB60BB68DB43FA681340FB60F97899
:1007B000BB785A1F13465B0013445B0001FA03F336
:1007C000BB60FA68BB681343FB607B68FA685A63D6
:1007D0004DE0BB780E2B25D87B689B6BFB60BB780C
:1007E000A3F10A0213465B0013445B001A461F2361
:1007F0009340BB60BB68DB43FA681340FB60F97849
:10080000BB78A3F10A0213465B0013445B0001FAB4
:1008100003F3BB60FA68BB681343FB607B68FA684C
:100820009A6324E07B68DB6BFB60BB78A3F10F026B
:1008300013465B0013445B001A461F239340BB60C2
:10084000BB68DB43FA681340FB60F978BB78A3F11F
:100850000F0213465B0013445B0001FA03F3BB6015
:10086000FA68BB681343FB607B68FA68DA63FB785D
:10087000092B23D97B689B69FB60FB78A3F10A02F3
:1008800013465B001344072202FA03F3BB607B6844
:100890009A69BB68DB431A407B689A617B689969F7
:1008A0007878FB78A3F10A0213465B00134400FA40
:1008B00003F341EA03027B689A611FE07B685B698E
:1008C000FB60FB785A1E13465B001344382202FA81
:1008D00003F3BB607B685A69BB68DB431A407B68E3
:1008E0005A617B6859697878FA7813465B0013443B
:1008F00000FA03F341EA03027B685A6100BF143730
:10090000BD4680BC704700BF80B483B000AF786044
:100910000B467B8013463B807B68DB6823F47C625C
:100920007B68DA607B68DB6839887A880A4392B230
:100930001A437B68DA6000BF0C37BD4680BC704745
:1009400080B483B000AF78607B689B6843F004029A
:100950007B689A6000BF0C37BD4680BC704700BF03
:1009600080B483B000AF78607B681B6C9BB2184684
:100970000C37BD4680BC704780B485B000AFF860CE
:10098000B9601346FB71FB79002B06D0FB685A68EF
:10099000BB681A43FB685A6006E0FB685A68BB688C
:1009A000DB431A40FB685A6000BF1437BD4680BC69
:1009B000704700BF80B483B000AF786039607B6857
:1009C0001A683B681A437B681A6000BF0C37BD4643
:1009D00080BC704780B487B000AF78603960002376
:1009E0007B6100233B610023FB6000237B617EE091
:1009F00001227B6902FA03F33B613B681A683B6999
:100A00001340FB60FA683B699A426DD13B681B79E1
:100A1000012B03D03B681B79022B36D17B689A6887
:100A20007B695B00032101FA03F3DB431A407B6817
:100A30009A607B689A683B685B7919467B695B00C2
:100A400001FA03F31A437B689A607B689B889AB229
:100A50007B699BB2012101FA03F39BB2DB439BB29A
:100A600013409AB27B689A807B689B889BB21AB2CB
:100A70003B689B7919467B699BB201FA03F31BB271
:100A800013431BB29AB27B689A807B681A687B69B1
:100A90005B00032101FA03F3DB431A407B681A6011
:100AA0007B681A683B681B7919467B695B0001FA11
:100AB00003F31A437B681A607B68DA687B699BB230
:100AC0005B00032101FA03F3DB431A407B68DA6021
:100AD0007B68DA683B68DB7919467B695B0001FA61
:100AE00003F31A437B68DA607B6901337B617B69BE
:100AF0000F2B7FF67DAF00BF1C37BD4680BC704713
:100B000080B483B000AF0346FB71084997F9073002
:100B10005B09FA7902F01F02012000FA02F241F8A3
:100B2000232000BF0C37BD4680BC704700E100E0C9
:100B300080B483B000AF03463960FB7197F907308A
:100B4000002B0BDA0D49FB7903F00F03043B3A68E5
:100B5000D2B21201D2B20B441A7609E0084997F9D1
:100B600007303A68D2B21201D2B20B4483F80023A4
:100B700000BF0C37BD4680BC704700BF00ED00E0F1
:100B800000E100E080B582B000AF78607B68B3F12F
:100B9000807F01D3012311E00A4A7B6823F07F4361
:100BA000013B53600F214FF0FF30FFF7C1FF054BB2
:100BB00000229A60034B07221A6000231846083768
:100BC000BD4680BD10E000E080B582B000AF0121DD
:100BD0004FF40030FFF708FD01214FF40010FFF73C
:100BE00003FD4FF400733B6001233B7101237B71D4
:100BF0000023BB710023FB713B4619460848FFF7F1
:100C0000E9FE01233B6003233B713B4619464FF04D
:100C10009040FFF7DFFE00BF0837BD4680BD00BF34
:100C20000010004880B588B000AF01214FF080501F
:100C3000FFF7DAFC4FF49870FFF7B0FC00233B603D
:100C400000237B604FF41073BB604FF48063FB6044
:100C500000233B6100237B610023BB6101233B77C1
:100C60003B4619464FF0A040FFF7FAFC0323012250
:100C700001214FF0A040FFF74FFD4FF480624FF489
:100C800010714FF0A040FFF73FFE012204214FF00A
:100C9000A040FFF771FE01214FF0A040FFF720FDBB
:100CA00000BF2037BD4680BD80B592B000AF3B4647
:100CB0001846FFF769FA7B68124AA2FB03235B0B15
:100CC0001846FFF75FFF01214FF40060FFF7AAFC11
:100CD00048F6A043BB8714233B640023FB872021F5
:100CE000094800F0B9F907F13C031946064800F03D
:100CF0001DF90121044800F08FF900BF4837BD46B7
:100D000080BD00BF5917B7D1002C014080B400AF9F
:100D1000184B1B78DBB2002B07D1174A164B9B8A66
:100D20009BB243F400739BB29382124B1B78DBB2ED
:100D30009AB2124B1B889BB29A4207D10E4A0E4BB5
:100D40009B8A9BB223F400739BB29382094B1B785E
:100D5000DBB20133DAB2074B1A70064B1B78DBB2F9
:100D6000802B02D1034B00221A7000BFBD4680BC0D
:100D7000704700BF2E000020001000482C0000200B
:100D800080B500AF4FF0A040FFF7EAFD03465B09D6
:100D90009AB2044B1A8004214FF0A040FFF70AFEDC
:100DA00000BF80BD2C00002080B500AFFFF70CFF16
:100DB000FFF738FFFFF778FF1220FFF7A1FE4FF093
:100DC000A040FFF7BDFDFEE780B500AF1B4A1B4BFF
:100DD0001B6843F0010313601849184B5A68184BFD
:100DE00013404B60154A154B1B6823F0847323F4A2
:100DF00080331360114A114B1B6823F48023136066
:100E00000E4A0E4B5B6823F4FE0353600B4A0B4BF8
:100E1000DB6A23F00F03D3620849084B1A6B094BB6
:100E200013400B63054B00229A6000F00FF8064B4D
:100E30004FF000629A6000BF80BD00BF001002400A
:100E40000CC07FF8CCFC00FF00ED00E080B483B064
:100E500000AF00237B6000233B60324A314B1B68AC
:100E600043F4803313602F4B1B6803F400333B6063
:100E70007B6801337B603B68002B03D17B68B3F553
:100E8000A06FF0D1274B1B6803F40033002B02D076
:100E900001233B6001E000233B603B68012B3CD118
:100EA000214B12221A601F4A1E4B5B6853601D4A79
:100EB0001C4B5B6853601B4A1A4B5B6843F48063AE
:100EC0005360184A174B5B6823F47C135360154A30
:100ED000144B5B6843F4E8135360124A114B1B68D0
:100EE00043F08073136000BF0E4B1B6803F0007368
:100EF000002BF9D00B4A0B4B5B6823F003035360C4
:100F0000084A084B5B6843F00203536000BF054B7F
:100F10005B6803F00C03082BF9D100BF0C37BD460A
:100F200080BC7047001002400020024080B485B0B1
:100F300000AF786039600023FB817B681B88FB81F0
:100F40007B682C4A93420FD07B682B4A93420BD08C
:100F50007B68B3F1804F07D07B68284A934203D067
:100F60007B68274A934208D1FB8923F07003FB81F9
:100F70003B685A88FB891343FB817B68214A934273
:100F80000CD07B68204A934208D0FB8923F440733D
:100F9000FB813B681A89FB891343FB817B68FA89D3
:100FA0001A803B685A687B68DA623B681A887B68FB
:100FB0001A857B680F4A93420FD07B680E4A934292
:100FC0000BD07B68114A934207D07B68104A93424A
:100FD00003D07B680F4A934204D13B689B7A9AB254
:100FE0007B681A867B6801225A6100BF1437BD46B0
:100FF00080BC7047002C01400034014000040040D8
:101000000008004000100040001400400040014073
:10101000004401400048014080B483B000AF7860D4
:101020000B46FB70FB78002B08D07B681B889BB2BB
:1010300043F001039AB27B681A8007E07B681B8843
:101040009BB223F001039AB27B681A8000BF0C3771
:10105000BD4680BC704700BF80B483B000AF7860ED
:101060000B467B807B685A684FF68F7313407A6813
:1010700053607B685A687B881A437B685A6000BF5C
:101080000C37BD4680BC7047002103E00A4B5B581B
:101090004350043109480A4B42189A42F6D3094A90
:1010A00002E0002342F8043B074B9A42F9D3FFF7D2
:1010B0008BFEFFF779FE7047CE100008000000207D
:0E10C0002C0000202C00002030000020FEE755
:1010CE0000000000010203040102030406070809E0
:1010DE000000010002000400060008000A000C00D7
:0C10EE0010002000400080000001000005
:0400000508000000EF
:00000001FF
