:020000040800F2
:1000000000A000209D070008E1070008E1070008A4
:10001000E1070008E1070008E10700080000000010
:10002000000000000000000000000000E1070008E0
:10003000E107000800000000E1070008E1070008F0
:10004000E1070008E1070008E1070008E1070008F0
:10005000E1070008E1070008E1070008E1070008E0
:10006000E1070008E1070008E1070008E1070008D0
:10007000E1070008E1070008E1070008E1070008C0
:10008000E1070008E1070008E1070008E1070008B0
:10009000E1070008E1070008E1070008E1070008A0
:1000A000E1070008E1070008E1070008E107000890
:1000B000E1070008E1070008E1070008E107000880
:1000C000E1070008E1070008E1070008E107000870
:1000D000E1070008E1070008E1070008E107000860
:1000E000E1070008E1070008E1070008E107000850
:1000F000E1070008E1070008E1070008E107000840
:10010000000000000000000000000000E1070008FF
:10011000E1070008E1070008E1070008E10700081F
:10012000E1070008E1070008E1070008E10700080F
:10013000E1070008E10700080000000000000000DF
:10014000E1070008E1070008E107000800000000DF
:10015000000000000000000000000000000000009F
:100160000000000000000000E1070008E1070008AF
:10017000E10700080000000000000000000000008F
:1001800000000000E107000880B483B000AF786091
:100190000B46FB70FB78002B06D00949084B5A69C7
:1001A0007B6813434B6106E00549054B5A697B6840
:1001B000DB4313404B6100BF0C37BD4680BC70472A
:1001C0000010024080B483B000AF78600B46FB7033
:1001D000FB78002B06D00949084BDA697B6813438A
:1001E000CB6106E00549054BDA697B68DB431340C8
:1001F000CB6100BF0C37BD4680BC70470010024089
:1002000080B487B000AF7860396000237B61002341
:100210003B610023FB6000237B617EE001227B6960
:1002200002FA03F33B613B681A683B691340FB60C9
:10023000FA683B699A426DD13B681B79012B03D068
:100240003B681B79022B36D17B689A687B695B001F
:10025000032101FA03F3DB431A407B689A607B6851
:100260009A683B685B7919467B695B0001FA03F386
:100270001A437B689A607B689B889AB27B699BB2C1
:10028000012101FA03F39BB2DB439BB213409AB204
:100290007B689A807B689B889BB21AB23B689B798B
:1002A00019467B699BB201FA03F31BB213431BB2DD
:1002B0009AB27B689A807B681A687B695B0003212D
:1002C00001FA03F3DB431A407B681A607B681A6803
:1002D0003B681B7919467B695B0001FA03F31A43FB
:1002E0007B681A607B68DA687B699BB25B000321DC
:1002F00001FA03F3DB431A407B68DA607B68DA6853
:100300003B68DB7919467B695B0001FA03F31A430A
:100310007B68DA607B6901337B617B690F2B7FF639
:100320007DAF00BF1C37BD4680BC704780B582B032
:1003300000AF01214FF40010FFF726FF4FF40073C8
:100340003B6001233B7101237B710023BB710023C0
:10035000FB713B4619460A48FFF752FF01233B60F9
:1003600003237B7100233B710223FB713B4619463B
:100370004FF09040FFF744FF00BF0837BD4680BDF7
:100380000010004880B582B000AF37233B710023D6
:100390007B710023BB710123FB713B1D184600F0EC
:1003A000E5F800BF0837BD4680BD00BF80B584B00A
:1003B00000AF01212020FFF705FF0023FB8048F656
:1003C000A043BB804FF47A73BB603B1D19460848BD
:1003D00000F02EF901220121054800F0BFF90121AA
:1003E000034800F09BF900BF1037BD4680BD00BF39
:1003F0000014004080B500AFFFF798FFFFF7C2FF81
:10040000FFF7D4FFFEE700BF80B500AF1B4A1B4BD0
:100410001B6843F0010313601849184B5A68184BC6
:1004200013404B60154A154B1B6823F0847323F46B
:1004300080331360114A114B1B6823F4802313602F
:100440000E4A0E4B5B6823F4FE0353600B4A0B4BC2
:10045000DB6A23F00F03D3620849084B1A6B094B80
:1004600013400B63054B00229A6000F00FF8064B17
:100470004FF000629A6000BF80BD00BF00100240D4
:100480000CC07FF8CCFC00FF00ED00E080B483B02E
:1004900000AF00237B6000233B60324A314B1B6876
:1004A00043F4803313602F4B1B6803F400333B602D
:1004B0007B6801337B603B68002B03D17B68B3F51D
:1004C000A06FF0D1274B1B6803F40033002B02D040
:1004D00001233B6001E000233B603B68012B3CD1E2
:1004E000214B12221A601F4A1E4B5B6853601D4A43
:1004F0001C4B5B6853601B4A1A4B5B6843F4806378
:100500005360184A174B5B6823F47C135360154AF9
:10051000144B5B6843F4E8135360124A114B1B6899
:1005200043F08073136000BF0E4B1B6803F0007331
:10053000002BF9D00B4A0B4B5B6823F0030353608D
:10054000084A084B5B6843F00203536000BF054B49
:100550005B6803F00C03082BF9D100BF0C37BD46D4
:1005600080BC7047001002400020024080B487B079
:1005700000AF786000237B6100233B610F23FB60A9
:100580007B68DB78002B3AD0274BDB68DB4303F436
:10059000E0631B0A7B617B69C3F104033B61FA687A
:1005A0007B6922FA03F3FB607B685B781A463B6940
:1005B00002FA03F37B617B689B781A46FB68134061
:1005C0007A6913437B617B691B017B61174A7B68F6
:1005D0001B787969C9B213440A4683F80023134A89
:1005E0007B681B785B09DBB218467B681B7803F0DD
:1005F0001F03012101FA03F342F820300FE00B49F9
:100600007B681B785B09DBB218467B681B7803F0BC
:100610001F0301229A4000F1200341F8232000BF6C
:100620001C37BD4680BC704700ED00E000E100E0F3
:1006300080B485B000AF786039600023FB817B68AF
:100640001B88FB817B682C4A93420FD07B682B4A26
:1006500093420BD07B68B3F1804F07D07B68284A68
:10066000934203D07B68274A934208D1FB8923F049
:100670007003FB813B685A88FB891343FB817B68CD
:10068000214A93420CD07B68204A934208D0FB89D0
:1006900023F44073FB813B681A89FB891343FB8178
:1006A0007B68FA891A803B685A687B68DA623B6823
:1006B0001A887B681A857B680F4A93420FD07B6843
:1006C0000E4A93420BD07B68114A934207D07B6855
:1006D000104A934203D07B680F4A934204D13B688F
:1006E0009B7A9AB27B681A867B6801225A6100BFA6
:1006F0001437BD4680BC7047002C014000340140D7
:1007000000040040000800400010004000140040B9
:1007100000400140004401400048014080B483B0E3
:1007200000AF78600B46FB70FB78002B08D07B682D
:100730001B889BB243F001039AB27B681A8007E0E2
:100740007B681B889BB223F001039AB27B681A80F6
:1007500000BF0C37BD4680BC704700BF80B483B07B
:1007600000AF78600B467B8013467B707B78002B54
:1007700006D07B68DA687B881A437B68DA6007E01A
:100780007B68DB687A88D24392B21A407B68DA6071
:1007900000BF0C37BD4680BC704700BF002103E09E
:1007A0000A4B5B584350043109480A4B42189A429D
:1007B000F6D3094A02E0002342F8043B074B9A4271
:1007C000F9D3FFF721FEFFF715FE7047E207000897
:1007D0000000002000000020000000200000002099
:0207E000FEE732
:0400000508000000EF
:00000001FF
