:020000040800F2
:1000000000A0002081040008C5040008C504000801
:10001000C5040008C5040008C5040008000000006D
:10002000000000000000000000000000C5040008FF
:10003000C504000800000000C5040008C50400084D
:10004000C5040008C5040008C5040008C50400086C
:10005000C5040008C5040008C5040008C50400085C
:10006000C5040008C5040008C5040008C50400084C
:10007000C5040008C5040008C5040008C50400083C
:10008000C5040008C5040008C5040008C50400082C
:10009000C5040008C5040008C5040008C50400081C
:1000A000C5040008C5040008C5040008C50400080C
:1000B000C5040008C5040008C5040008C5040008FC
:1000C000C5040008C5040008C5040008C5040008EC
:1000D000C5040008C504000819020008C50400088A
:1000E000C5040008C5040008C5040008C5040008CC
:1000F000C5040008C5040008C5040008C5040008BC
:10010000000000000000000000000000C50400081E
:10011000C5040008C5040008C5040008C50400089B
:10012000C5040008C5040008C5040008C50400088B
:10013000C5040008C504000800000000000000001D
:10014000C5040008C5040008C5040008000000003C
:10015000000000000000000000000000000000009F
:100160000000000000000000C5040008C5040008ED
:10017000C5040008000000000000000000000000AE
:1001800000000000C504000890B585B000AF78609D
:100190000023FB60786800F0D9FA0DA3D3E90023AF
:1001A00000F04AFB03460C461846214600F056FD77
:1001B00003467B600023FB6002E0FB680133FB60C9
:1001C000FA687B689A42F8D900BF1437BD4690BDE3
:1001D000CDCCCCCCCCCC1C4080B400AF00BF0C4B01
:1001E000DB6903F08003002BF9D0094A094B1B7827
:1001F0009BB203F007039BB21385064B1B780133B8
:10020000DAB2044B1A7000BFBD4680BC704700BF15
:10021000003801400000002080B400AF094BDB69CA
:1002200003F02003002B09D0074A064B9B8C9BB29E
:100230000833012101FA03F39BB2938200BFBD464C
:1002400080BC7047004400400010004880B500AFFB
:100250002C4A2C4B5B6943F408135361294A294B00
:100260009B6943F480439361264A264BDB6943F440
:100270000033D3614FF090424FF090431B6843F43A
:10028000002343F0800313604FF090424FF09043FF
:10029000DB6843F48023D3604FF090424FF09043EB
:1002A0001B6A43F4E04313624FF090424FF09043D7
:1002B0005B6A43F070035362134A134B1B6843F0AD
:1002C000AA4343F4AA031360104B41F64C529A819F
:1002D0000E4A0E4B1B6843F0090313600C4B40F6AB
:1002E000A6629A810A4A0A4B1B6843F025031360F1
:1002F000084B40225A60FFF76FFF0748FFF744FFA3
:10030000F9E700BF0010024000100048003801402B
:100310000044004000E100E04019010080B500AF5A
:100320001B4A1B4B1B6843F0010313601849184B11
:100330005A68184B13404B60154A154B1B6823F045
:10034000847323F480331360114A114B1B6823F428
:10035000802313600E4A0E4B5B6823F4FE03536048
:100360000B4A0B4BDB6A23F00F03D3620849084B9F
:100370001A6B094B13400B63054B00229A6000F087
:100380000FF8064B4FF000629A6000BF80BD00BFBF
:10039000001002400CC07FF8CCFC00FF00ED00E034
:1003A00080B483B000AF00237B6000233B60324AFF
:1003B000314B1B6843F4803313602F4B1B6803F4ED
:1003C00000333B607B6801337B603B68002B03D1CB
:1003D0007B68B3F5A06FF0D1274B1B6803F40033A3
:1003E000002B02D001233B6001E000233B603B680F
:1003F000012B3CD1214B12221A601F4A1E4B5B6815
:1004000053601D4A1C4B5B6853601B4A1A4B5B6868
:1004100043F480635360184A174B5B6823F47C13E2
:100420005360154A144B5B6843F4E8135360124A57
:10043000114B1B6843F08073136000BF0E4B1B68A9
:1004400003F00073002BF9D00B4A0B4B5B6823F0D1
:1004500003035360084A084B5B6843F00203536090
:1004600000BF054B5B6803F00C03082BF9D100BFFC
:100470000C37BD4680BC704700100240002002408F
:10048000002103E00A4B5B584350043109480A4BF2
:1004900042189A42F6D3094A02E0002342F8043B8C
:1004A000074B9A42F9D3FFF739FFFFF7CFFE7047AA
:1004B0009C0C00080000002000000020000000202C
:1004C00004000020FEE7000081F0004102E000BFD0
:1004D00083F0004330B54FEA41044FEA430594EA04
:1004E000050F08BF90EA020F1FBF54EA000C55EA3F
:1004F000020C7FEA645C7FEA655C00F0E2804FEA10
:100500005454D4EB5555B8BF6D420CDD2C4480EAF1
:10051000020281EA030382EA000083EA010180EA21
:10052000020281EA0303362D88BF30BD11F0004F6F
:100530004FEA01314FF4801C4CEA113102D04042A5
:1005400061EB410113F0004F4FEA03334CEA1333E0
:1005500002D0524263EB430394EA050F00F0A780F8
:10056000A4F10104D5F1200E0DDB02FA0EFC22FAF3
:1005700005F2801841F1000103FA0EF2801843FAE7
:1005800005F359410EE0A5F120050EF1200E012AD8
:1005900003FA0EFC28BF4CF0020C43FA05F3C01816
:1005A00051EBE37101F0004507D54FF0000EDCF18F
:1005B000000C7EEB00006EEB0101B1F5801F1BD338
:1005C000B1F5001F0CD349085FEA30004FEA3C0C3C
:1005D00004F101044FEA445212F5800F80F09A8032
:1005E000BCF1004F08BF5FEA500C50F1000041EB36
:1005F000045141EA050130BD5FEA4C0C404141EB3A
:10060000010111F4801FA4F10104E9D191F0000F60
:1006100004BF01460020B1FA81F308BF2033A3F1E3
:100620000B03B3F120020CDA0C3208DD02F1140CDA
:10063000C2F10C0201FA0CF021FA02F10CE002F115
:100640001402D8BFC2F1200C01FA02F120FA0CFC0E
:10065000DCBF41EA0C019040E41AA2BF01EB045157
:10066000294330BD6FEA04041F3C1CDA0C340EDC55
:1006700004F11404C4F1200220FA04F001FA02F398
:1006800040EA030021FA04F345EA030130BDC4F156
:100690000C04C4F1200220FA02F001FA04F340EA4B
:1006A0000300294630BD21FA04F0294630BD94F0FC
:1006B000000F83F4801306BF81F480110134013DE3
:1006C0004EE77FEA645C18BF7FEA655C29D094EA54
:1006D000050F08BF90EA020F05D054EA000C04BFD2
:1006E0001946104630BD91EA030F1EBF00210020BD
:1006F00030BD5FEA545C05D14000494128BF41F05C
:10070000004130BD14F580043CBF01F5801130BDBF
:1007100001F0004545F0FE4141F470014FF000004A
:1007200030BD7FEA645C1ABF194610467FEA655CFB
:100730001CBF0B46024650EA013406BF52EA03359D
:1007400091EA030F41F4002130BD00BF90F0000F8B
:1007500004BF0021704730B54FF4806404F13204C7
:100760004FF000054FF0000150E700BF90F0000F80
:1007700004BF0021704730B54FF4806404F13204A7
:1007800010F0004548BF40424FF000013EE700BF77
:1007900042004FEAE2014FEA31014FEA02701FBF07
:1007A00012F07F4393F07F4F81F06051704792F0D9
:1007B000000F14BF93F07F4F704730B54FF4607453
:1007C00001F0004521F0004120E700BF50EA01029E
:1007D00008BF704730B54FF000050AE050EA01024B
:1007E00008BF704730B511F0004502D5404261EBBB
:1007F00041014FF4806404F132045FEA915C3FF4FC
:10080000DCAE4FF003025FEADC0C18BF03325FEA94
:10081000DC0C18BF033202EBDC02C2F1200300FA49
:1008200003FC20FA02F001FA03FE40EA0E0021FA6E
:1008300002F11444C1E600BF70B54FF0FF0C4CF458
:10084000E06C1CEA11541DBF1CEA135594EA0C0F0E
:1008500095EA0C0F00F0DEF82C4481EA030621EA49
:100860004C5123EA4C5350EA013518BF52EA033584
:1008700041F4801143F4801338D0A0FB02CE4FF036
:100880000005E1FB02E506F00042E0FB03E54FF066
:100890000006E1FB03569CF0000F18BF4EF0010E5E
:1008A000A4F1FF04B6F5007F64F5407404D25FEA5A
:1008B0004E0E6D4146EB060642EAC62141EA55510D
:1008C0004FEAC52040EA5E504FEACE2EB4F1FD0C4F
:1008D00088BFBCF5E06F1ED8BEF1004F08BF5FEACD
:1008E000500E50F1000041EB045170BD06F000467F
:1008F00046EA010140EA020081EA0301B4EB5C042C
:10090000C2BFD4EB0C0541EA045170BD41F4801123
:100910004FF0000E013C00F3AB8014F1360FDEBF48
:10092000002001F0004170BDC4F10004203C35DA24
:100930000C341BDC04F11404C4F1200500FA05F3A7
:1009400020FA04F001FA05F240EA020001F0004248
:1009500021F0004110EBD37021FA04F642EB0601BE
:100960005EEA430E08BF20EAD37070BDC4F10C04E8
:10097000C4F1200500FA04F320FA05F001FA04F2AC
:1009800040EA020001F0004110EBD37041F1000198
:100990005EEA430E08BF20EAD37070BDC4F12005A3
:1009A00000FA05F24EEA020E20FA04F301FA05F20B
:1009B00043EA020321FA04F001F0004121FA04F2B3
:1009C00020EA020000EBD3705EEA430E08BF20EA83
:1009D000D37070BD94F0000F0FD101F000464000BD
:1009E00041EB010111F4801F08BF013CF7D041EA3F
:1009F000060195F0000F18BF704703F00046520043
:100A000043EB030313F4801F08BF013DF7D043EA13
:100A10000603704794EA0C0F0CEA135518BF95EAC9
:100A20000C0F0CD050EA410618BF52EA4306D1D150
:100A300081EA030101F000414FF0000070BD50EA6F
:100A4000410606BF1046194652EA430619D094EAF9
:100A50000C0F02D150EA013613D195EA0C0F05D1E3
:100A600052EA03361CBF104619460AD181EA030137
:100A700001F0004141F0FE4141F470014FF00000EF
:100A800070BD41F0FE4141F4780170BD70B54FF08A
:100A9000FF0C4CF4E06C1CEA11541DBF1CEA13550A
:100AA00094EA0C0F95EA0C0F00F0A7F8A4EB0504EC
:100AB00081EA030E52EA03354FEA013100F08880E3
:100AC0004FEA03334FF0805545EA131343EA1263AC
:100AD0004FEA022245EA111545EA10654FEA002661
:100AE0000EF000419D4208BF964244F1FD0404F51A
:100AF000407402D25B084FEA3202B61A65EB030576
:100B00005B084FEA32024FF480104FF4002CB6EB32
:100B1000020E75EB030E22BFB61A754640EA0C00B2
:100B20005B084FEA3202B6EB020E75EB030E22BFF2
:100B3000B61A754640EA5C005B084FEA3202B6EB33
:100B4000020E75EB030E22BFB61A754640EA9C00F2
:100B50005B084FEA3202B6EB020E75EB030E22BFC2
:100B6000B61A754640EADC0055EA060E18D04FEA80
:100B7000051545EA16754FEA06164FEAC30343EA20
:100B800052734FEAC2025FEA1C1CC0D111F4801FED
:100B90000BD141EA00014FF000004FF0004CB6E7E6
:100BA00011F4801F04BF01430020B4F1FD0C88BF85
:100BB000BCF5E06F3FF6AFAEB5EB030C04BFB6EB90
:100BC000020C5FEA500C50F1000041EB045170BD83
:100BD0000EF0004E4EEA113114EB5C04C2BFD4EBB0
:100BE0000C0541EA045170BD41F480114FF0000E34
:100BF000013C90E645EA060E8DE60CEA135594EAB0
:100C00000C0F08BF95EA0C0F3FF43BAF94EA0C0FB2
:100C10000AD150EA01347FF434AF95EA0C0F7FF427
:100C200025AF104619462CE795EA0C0F06D152EA7B
:100C300003353FF4FDAE1046194622E750EA41065F
:100C400018BF52EA43067FF4C5AE50EA41047FF470
:100C50000DAF52EA43057FF4EBAE12E74A0011D222
:100C600012F5001211D20DD56FF47873B3EB625206
:100C70000ED44FEAC12343F0004343EA505323FA12
:100C800002F070474FF00000704750EA013002D187
:0C0C90004FF0FF3070474FF0000070473D
:0400000508000000EF
:00000001FF
