:020000040800F2
:1000000028040020FD0400085D0500085D050008C7
:100010005D0500085D0500085D05000800000000A2
:100020000000000000000000000000005D05000866
:100030005D050008000000005D0500085D05000882
:100040005D0500085D0500085D0500085D05000808
:100050005D0500085D0500085D0500085D050008F8
:100060005D0500085D0500085D0500085D050008E8
:100070005D0500085D0500085D0500085D050008D8
:100080005D0500085D0500085D0500085D050008C8
:100090005D0500085D0500085D050008A50E000867
:1000A0005D050008510E00085D0500085D050008AB
:1000B0005D0500081D0F0008490F00085D050008D8
:1000C0005D0500085D0500085D0500085D05000888
:1000D0005D0500085D0500085D0500085D05000878
:1000E0005D0500085D0500085D05000800000000D2
:1000F0000000000000000000000000000000000000
:1001000000000000000000005FF808F180B485B036
:1001100000AF786039600023FB817B681B88FB811E
:100120007B682E4A934213D07B682D4A93420FD0AE
:100130007B68B3F1804F0BD07B682A4A934207D08B
:100140007B68294A934203D07B68284A934208D1AE
:10015000FB8923F07003FB813B685A88FB891343BA
:10016000FB817B68224A93420CD07B68214A9342F0
:1001700008D0FB8923F44073FB813B68DA88FB8954
:100180001343FB817B68FA891A803B689A887B68F5
:100190009A853B681A887B681A857B680F4A934268
:1001A0000FD07B680E4A93420BD07B68124A934271
:1001B00007D07B68114A934203D07B68104A934270
:1001C00004D13B681B7A9AB27B681A867B6801224D
:1001D0009A8200BF1437BD4680BC7047002C014096
:1001E000003401400004004000080040000C0040C2
:1001F0000010004000140040004001400044014055
:100200000048014080B483B000AF78607B684FF64F
:10021000FF729A807B6800221A807B680022DA8055
:100220007B6800225A807B6800221A7200BF0C375C
:10023000BD4680BC704700BF80B483B000AF78601B
:100240000B46FB70FB78002B08D07B681B889BB2A9
:1002500043F001039AB27B681A8007E07B681B8831
:100260009BB223F001039AB27B681A8000BF0C375F
:10027000BD4680BC704700BF80B483B000AF7860DB
:100280000B467B8013467B707B78002B08D07B6805
:100290009B899AB27B8813439AB27B689A8109E062
:1002A0007B689B899AB27B88DB439BB213409AB2EE
:1002B0007B689A8100BF0C37BD4680BC704700BF89
:1002C00080B483B000AF78600B467B807B687A880F
:1002D0009A8400BF0C37BD4680BC704780B483B0A1
:1002E00000AF78607B689B8C9BB218460C37BD468C
:1002F00080BC704780B483B000AF78600B467B80D1
:100300007B88DB439AB27B681A8200BF0C37BD46FC
:1003100080BC704780B485B000AF78600B467B80AE
:100320000023FB730023BB8100237B817B681B8A36
:100330009AB27B881340BB817B689B899AB27B8889
:1003400013407B81BB89002B05D07B89002B02D019
:100350000123FB7301E00023FB73FB7B184614377A
:10036000BD4680BC704700BF80B483B000AF7860EA
:100370000B467B807B88DB439AB27B681A8200BF86
:100380000C37BD4680BC704780B500AF154A154B91
:100390001B6843F0010313601249124B5A68124B59
:1003A00013404B600F4A0F4B1B6823F0847323F4F8
:1003B000803313600B4A0B4B1B6823F480231360BC
:1003C000084A084B5B6823F4FE035360054B4FF467
:1003D0001F029A6000F00CF8044B4FF000629A6024
:1003E00000BF80BD001002400000FFF800ED00E0FB
:1003F00080B500AF00F002F800BF80BD80B483B0CC
:1004000000AF00237B6000233B603A4A394B1B68F6
:1004100043F480331360374B1B6803F400333B60B5
:100420007B6801337B603B68002B03D17B68B3F5AD
:10043000A06FF0D12F4B1B6803F40033002B02D0C8
:1004400001233B6001E000233B603B68012B4BD163
:10045000294A294B1B6843F010031360264A264B98
:100460001B6823F003031360234A234B1B6843F0EC
:10047000020313601F4A1F4B5B6853601D4A1D4BEC
:100480005B6853601B4A1B4B5B6843F4806353609B
:10049000184A184B5B6823F47C135360154A154BBC
:1004A0005B6843F4E8135360124A124B1B6843F035
:1004B0008073136000BF0F4B1B6803F00073002BA9
:1004C000F9D00C4A0B4B5B6823F003035360094AD5
:1004D000084B5B6843F00203536000BF054B5B6849
:1004E00003F00C03082BF9D100BF0C37BD4680BCCC
:1004F000704700BF001002400020024080B582B06B
:1005000000AF114B7B60114B3B6007E03B681A1D4D
:100510003A607A68111D796012681A603B680C4A6B
:100520009342F3D30B480C494FF000028842B8BF06
:1005300040F8042BFADBFFF727FF00F02BF900BF90
:100540000837BD4680BD00BF7227000800000020AC
:1005500014000020140000202400002080B400AF0C
:10056000FEE700BF80B489B000AF78603960002337
:10057000FB6100233B610023BB610023FB60002380
:100580007B610023BB603B68DB7803F00F03FB61FA
:100590003B68DB7803F01003002B05D03B689B78A9
:1005A0001A46FB691343FB613B681B88DBB2002BD7
:1005B00044D07B681B687B610023BB6138E001226B
:1005C000BB6902FA03F3FB603B681B881A46FB68B1
:1005D00013403B613A69FB689A4226D1BB699B0094
:1005E000FB600F22FB6802FA03F3BB60BB68DB43CE
:1005F0007A6913407B61FA69FB6802FA03F37A694E
:1006000013437B613B68DB78282B05D10122BB6952
:100610009A407B685A6108E03B68DB78482B04D13C
:100620000122BB699A407B681A61BB690133BB61D7
:10063000BB69072BC3D97B687A691A603B681B8842
:10064000FF2B46D97B685B687B610023BB613AE086
:10065000BB690833012202FA03F3FB603B681B8885
:100660001A46FB6813403B613A69FB689A4227D1FE
:10067000BB699B00FB600F22FB6802FA03F3BB60BF
:10068000BB68DB437A6913407B61FA69FB6802FA55
:1006900003F37A6913437B613B68DB78282B05D130
:1006A000BB69083301229A407B685A613B68DB785A
:1006B000482B05D1BB69083301229A407B681A6137
:1006C000BB690133BB61BB69072BC1D97B687A6900
:1006D0005A6000BF2437BD4680BC704780B483B0E9
:1006E00000AF78607B689B689BB218460C37BD46AC
:1006F00080BC704780B483B000AF78600B467B80CD
:100700007A887B685A6100BF0C37BD4680BC704751
:1007100090B484B000AF03460A46FB711346BB7128
:100720000023FB60BB7903F003039B000F2202FA56
:1007300003F3FB601649BB799B08DBB21846144AE9
:10074000BB799B08DBB2023352F82320FB68DB4302
:100750001A40831C41F823200D48BB799B08DBB26B
:100760001C460B4ABB799B08DBB2023352F82320AC
:10077000F979BB7903F003039B0001FA03F31A43F1
:10078000A31C40F8232000BF1037BD4690BC704723
:100790000000014080B500AF00F042F8012140F6B2
:1007A0001D0001F0DFF81A4800F064FA00F070F85C
:1007B00000F0FEF8174B00221A7000F083F800F0EA
:1007C00033F900F087F900F0EBF900F0B5F91048C3
:1007D00000F050FA0E4800F04DFA0D4800F04AFAC9
:1007E00000F006FB0C4B1B88C3F57F630F33C82B4F
:1007F00002DD0A4BFF221A70074B1B88C3F57F638B
:100800000F33632BEEDC054B00221A70EAE700BFC2
:10081000404B4C001A00002018000020200000204F
:1008200080B582B000AF00F0A1FE4FF4803000F040
:10083000CBFE00F0F7FE0346FB71FB79012B23D1C1
:10084000002000F06FFF002000F0A4FF4FF4806054
:1008500000F084FF4FF4E0114FF4803000F00AFF05
:10086000012000F025FF00BF392001F0B7F8034652
:10087000002BF9D0022000F02BFF00BF00F044FF56
:100880000346082BFAD100E0FEE70837BD4680BDDD
:1008900080B582B000AF4FF40053BB801023FB71D2
:1008A0000323BB713B1D19460548FFF75BFE4FF460
:1008B00000510348FFF71EFF00BF0837BD4680BD4B
:1008C0000010014080B584B000AF4FF460433B811D
:1008D0000323BB721823FB7207F108031946314842
:1008E000FFF740FE4FF480533B8107F108031946A0
:1008F0002C48FFF737FE4FF4E0633B810323BB72C4
:100900001823FB7207F1080319462748FFF72AFE50
:100910004FF480533B811C23FB7207F108031946F7
:100920002148FFF71FFE214B48F270021A811F4B2E
:1009300000229A804FF4AF73FB811C4AFB89938697
:100940001A4AFB891387194AFB899387174B41F28F
:1009500094129A85154B01221A80144B4EF6E80228
:100960001A83124B46F6E8029A83104B40229A8172
:1009700001210E48FFF7BEFC012201210B48FFF7C1
:100980007BFC19233B7101237B710023BB71012385
:10099000FB713B1D184601F0B7FB00BF1037BD4689
:1009A00080BD00BF000C014000080140002C014048
:1009B00080B584B000AF4FF46073BB814823FB73F4
:1009C0000223BB7307F10C0319461648FFF7CAFD53
:1009D00017233B7000237B700023BB700123FB7047
:1009E0003B46184601F090FB07210120FFF790FEDF
:1009F00008210120FFF78CFE09210120FFF788FE66
:100A00004FF460737B600123BB7200233B721023A1
:100A10007B723B1D184601F01BF800BF1037BD4626
:100A200080BD00BF000C014080B586B000AF002340
:100A3000FB750223BB8207F1140319462348FFF715
:100A400091FD4FF4004000F0C1FE01214FF4007011
:100A500000F088FF00233B6000233B7101237B7182
:100A60004FF46023BB600023FB6001233B7403232E
:100A700001220921164801F069F93B46194614483C
:100A800001F08AF80121124801F0D8F8104801F06D
:100A9000F1F800BF0E4801F0FDF80346002BF9D134
:100AA0000B4801F00FF900BF094801F01BF903469C
:100AB000002BF9D10121064801F0C0F801210448BA
:100AC00001F028F900BF1837BD4680BD000C014079
:100AD0000024014080B584B000AF0121022000F065
:100AE0005FFF3B1D1846FFF78DFB0023FB8048236B
:100AF000BB804FF6FF733B813B1D19460D48FFF746
:100B000005FB012201210B48FFF7B6FB0021094834
:100B1000FFF7D6FB1D233B7003237B700023BB70C4
:100B20000123FB703B46184601F0EEFA00BF103778
:100B3000BD4680BD0004004080B584B000AF0121F7
:100B4000042000F02DFF3B1D1846FFF75BFB002340
:100B5000FB804FF4E153BB8042F210733B813B1D9D
:100B600019460E48FFF7D2FA012201210B48FFF780
:100B700083FB01210948FFF75FFB1E233B70032322
:100B80007B700023BB700123FB703B46184601F0CD
:100B9000BBFA00BF1037BD4680BD00BF0008004053
:100BA00080B586B000AF01214FF4003000F0F8FEB0
:100BB00026233B7503237B750123BB750123FB753E
:100BC00007F11403184601F09FFA04233B8218230F
:100BD000FB740323BB7407F1100319461348FFF796
:100BE000C1FC08233B820423FB7407F11003194660
:100BF0000E48FFF7B7FC4FF4E1333B600023BB80A6
:100C00000023FB8000233B810023BB810C237B81DD
:100C10003B461946064801F06FF90121044801F0EE
:100C200025FA00BF1837BD4680BD00BF000801404F
:100C30000044004080B582B000AF786010E07B686F
:100C40005A1C7A601B789BB21946094801F02EFAAB
:100C500000BF4021064801F03BFA0346002BF8D0C4
:100C60007B681B78002BEAD100BF0837BD4680BDEA
:100C70000044004080B483B000AF786002E07B683D
:100C8000013B7B607B68002BF9D100BF0C37BD4670
:100C900080BC704780B582B000AF1D48FFF71EFDD5
:100CA000034603F46073DB11FB71FB79013B052BF9
:100CB00026D801A252F823F0D90C0008E90C00084C
:100CC000E10C0008F90C0008D10C0008F10C000838
:100CD000104B00221A7017E00E4B01221A7013E01D
:100CE0000C4B02221A700FE00A4B03221A700BE021
:100CF000084B04221A7007E0064B05221A7003E025
:100D0000044B00221A7000BF00BF0837BD4680BDEB
:100D1000000C01401A00002080B400AF324B1B7859
:100D2000052B5DD801A252F823F000BF450D000845
:100D30005F0D0008790D0008930D0008AD0D000847
:100D4000C70D0008294B40F259521A84274B4CF624
:100D5000E8021A83254B46F6D8029A8340E0234BDB
:100D600040F259521A84214B4DF6E8021A831F4B68
:100D700046F6C8029A8333E01C4B40F295521A841F
:100D80001A4B4EF6D8021A83184B46F6C8029A83BD
:100D900026E0164B40F295521A84144B4EF6C802C8
:100DA0001A83124B46F6D8029A8319E00F4B40F68D
:100DB00055121A840D4B4DF6C8021A830B4B46F69A
:100DC000E8029A830CE0094B40F655121A84074B4F
:100DD0004CF6D8021A83054B46F6E8029A8300BF08
:100DE00000BFBD4680BC70471A000020002C0140A7
:100DF00080B500AF064B00221A84FFF74BFFFFF7C8
:100E00008BFF034B4FF43C42A3F8442000BF80BD4E
:100E1000002C014080B485B000AF0346FB80FB8806
:100E200041F2941202FB03F3002B01DA03F6FF7385
:100E30001B13FB81FB8941F29412934202D941F2C8
:100E40009413FB81FB8918461437BD4680BC70475C
:100E500080B582B000AF01211048FFF75BFA03466E
:100E6000002B17D001210D48FFF77EFA0C4801F046
:100E700037F80346FB80FB881846FFF7CBFF034695
:100E8000BB80064ABB889386044ABB881387034A03
:100E9000BB88938700BF0837BD4680BD002C01404A
:100EA0000024014098B500AF802000F043FE0346C7
:100EB0001C464FF4807000F03DFE03462343DCB235
:100EC0004FF4007000F036FE03462343DBB2002BE4
:100ED0001DD0802000F052FE4FF4807000F04EFED6
:100EE0004FF4007000F04AFE0A48FFF7F7F9034696
:100EF0001A46094B1A8001210648FFF79DF9002187
:100F00000448FFF7DDF9FFF7C5FEFFF705FF00BF57
:100F100098BD00BF000400401400002080B500AF61
:100F200001210748FFF7F6F90346002B06D00121FF
:100F30000348FFF719FA034B00221A8000BF80BD57
:100F4000000400401400002080B596B000AF0121DD
:100F50002548FFF7DFF90346002B40D00121224846
:100F6000FFF702FA3B1D50220021184601F0ACFBAE
:100F70000023A7F856301D4B1B889BB2002B21D0B5
:100F80001A4B1B889BB2184601F0D6F90346184944
:100F9000184601F0DDFA03461649184601F024FA16
:100FA000034619464FF07E5001F0D2FA034612492B
:100FB000184601F019FA0346184601F065FB03468E
:100FC000A7F85630B7F856200C4B9B8E9BB2381DB5
:100FD0000B4900F0B5FA3B1D1846FFF72BFE00BF8A
:100FE0005837BD4680BD00BF0008004014000020F7
:100FF000002474490000C04100007042002C0140F0
:101000006427000880B483B000AF78600B46FB70A3
:101010007B68FA781A70012318460C37BD4680BCED
:10102000704700BF80B485B000AF7860396000239E
:10103000FB600AE07B685A1C7A603A68511C396090
:1010400012781A70FB680133FB603B681B78002B39
:10105000F0D1FB6818461437BD4680BC704700BF0E
:1010600080B586B000AFF8607A603B600B46FB72DB
:1010700000237B617B68013B7B603B68092B1DD9AA
:101080003B681D4AA2FB0323DB08F97A7A68F868FB
:10109000FFF7E6FF78617B69FA681344FB6010E0B4
:1010A000FB7A1946F868FFF7ADFFFB680133FB6078
:1010B0007B6901337B617B68013B7B607B68002B34
:1010C000EEDC39680C4BA3FB0123DA0813469B00C6
:1010D00013445B00CA1AD3B23033DBB21946F86846
:1010E000FFF790FF02467B6913447B617B691846DA
:1010F0001837BD4680BD00BFCDCCCCCC80B586B006
:1011000000AFF8607A603B600B46FB7200237B61A6
:101110003B68002B03DA3B685B423B6101E03B68C4
:101120003B617B68013B7B603B69092B1FD93B68B6
:10113000002B0CDA3B692E4AA2FB0323DB085B423F
:10114000F97A7A68F868FFF7D9FF78610AE03B69B5
:10115000274AA2FB0323DB08F97A7A68F868FFF7CD
:10116000CDFF78617B69FA681344FB6025E03B683A
:10117000002B11DA7B68013B7B600DE0FB7A19469E
:10118000F868FFF73FFFFB680133FB607B690133C1
:101190007B617B68013B7B607B68002BEEDC3B68FE
:1011A000002B0ADA2D21F868FFF72CFF02467B6935
:1011B00013447B61FB680133FB6039690C4BA3FB73
:1011C0000123DA0813469B0013445B00CA1AD3B20A
:1011D0003033DBB21946F868FFF714FF02467B692B
:1011E00013447B617B6918461837BD4680BD00BF3C
:1011F000CDCCCCCC80B588B002AFF8607A601A460E
:101200000B46FB721346BB7200237B617B68013B7C
:101210007B603B6A1B09002B20D03B6A1B09BA7A12
:10122000F97A009313467A68F868FFF7E3FF0246FD
:101230007B6913447B617B69FA681344FB6010E0AF
:10124000FB7A1946F868FFF7DDFEFB680133FB60A7
:101250007B6901337B617B68013B7B607B68002B92
:10126000EEDC3B6A03F00F03092B0BD83B6ADBB2C1
:1012700003F00F03DBB23033DBB21946F868FFF737
:10128000C1FE19E0BB7A002B0BD03B6ADBB203F046
:101290000F03DBB23733DBB21946F868FFF7B2FE53
:1012A0000AE03B6ADBB203F00F03DBB25733DBB279
:1012B0001946F868FFF7A6FE7B6901337B617B69FD
:1012C00018461837BD4680BD80B58AB002AFF860B9
:1012D000B9607A603B600023BB6100237B61FB68DF
:1012E000002B00F0FC80FB6800221A70F7E07B689E
:1012F0001B78252B0BD0FB685A1CFA607A68511CAE
:10130000796012781A707B6901337B61E7E07B6852
:1013100001331B78252B0BD1FB685A1CFA60252260
:101320001A707B6802337B607B6901337B61D6E096
:101330002023FB770023BB777B6801337B607B68CE
:101340001B78302B14D13023FB777B6801337B6013
:101350000EE0BB7F1A46920013445B00DAB27B6852
:101360001B781344DBB2303BBB777B6801337B6077
:101370007B681B782F2B03D97B681B78392BE8D926
:10138000BA7F7B6913441A46BB689A4205D9BB6889
:10139000DAB27B69DBB2D31ABB777B681B78583B28
:1013A000202B00F28E8001A252F823F07D14000859
:1013B000C3140008C3140008C3140008C3140008B1
:1013C000C3140008C3140008C3140008C3140008A1
:1013D000C3140008C3140008AD1400083114000839
:1013E000C3140008C3140008C3140008C314000881
:1013F00031140008C3140008C3140008C314000803
:10140000C3140008C3140008C3140008C314000860
:10141000C3140008C314000899140008C31400087A
:1014200049140008C3140008C3140008611400081C
:10143000B87F3B681A1D3A601B68F97F0246F8685E
:10144000FFF75CFEB8613FE0B87F3B681A1D3A6069
:101450001B68F97F0246F868FFF702FEB86133E0C7
:10146000B87F3B681A1D3A601B68F97F0093002320
:101470000246F868FFF7BEFEB86125E0B87F3B681A
:101480001A1D3A601B68F97F009301230246F86831
:10149000FFF7B0FEB86117E03B681A1D3A601B68A1
:1014A0001946F868FFF7BEFDB8610DE03B681A1DEC
:1014B0003A601B68DBB21946F868FFF7A3FDB86114
:1014C00002E04FF0FF3325E07B6801337B60BB69AE
:1014D000FA681344FB607A69BB6913447B617B68DB
:1014E0001B78002B04D07A69BB689A42FFF4FFAEE8
:1014F0007A69BB689A4203D2FB6800221A7008E03E
:10150000FB68013BFB60FB6800221A707B69013BB2
:101510007B617B6918462037BD4680BD80B584B0AD
:1015200000AFF860B9607A607B68BA686421F868D7
:10153000FFF7CAFE034618461037BD4680BD00BF00
:101540000EB480B585B000AF786007F12003BB60B2
:10155000BA68F9697868FFF7E1FFF860FB68184638
:101560001437BD46BDE8804003B0704780B400AF7B
:10157000134A134B1B6843F0010313601049104BCF
:101580005A68104B13404B600D4A0D4B1B6823F0FB
:10159000847323F480331360094A094B1B6823F4D6
:1015A00080231360064A064B5B6823F4FE035360F6
:1015B000034B4FF41F029A6000BFBD4680BC7047CA
:1015C000001002400000FFF880B483B000AF7860E4
:1015D000134A134B1B6823F480331360104A104BDB
:1015E0001B6823F4802313607B68B3F5803F03D02E
:1015F000B3F5802F07D00DE0094A094B1B6843F46F
:101600008033136006E0064A054B1B6843F4A023B1
:10161000136000BF00BF0C37BD4680BC704700BFE1
:101620000010024080B582B000AF00233B60002371
:10163000FB710023BB71312000F0D0F90346BB7170
:101640003B6801333B603B68B3F5A06F02D0BB79C8
:10165000002BF0D0312000F0C1F90346002B02D05E
:101660000123FB7101E00023FB71FB791846083769
:10167000BD4680BD80B485B000AF7860396000237E
:10168000FB600A4B5B68FB60FB6823F47C13FB6028
:101690007A683B681343FA681343FB60034AFB68AC
:1016A000536000BF1437BD4680BC70470010024035
:1016B00080B483B000AF0346FB71044AFB7913602A
:1016C00000BF0C37BD4680BC704700BF600042427F
:1016D00080B485B000AF78600023FB60094B5B6885
:1016E000FB60FB6823F00303FB60FA687B6813432D
:1016F000FB60044AFB68536000BF1437BD4680BCE2
:10170000704700BF0010024080B400AF044B5B681C
:10171000DBB203F00C03DBB21846BD4680BC704759
:101720000010024080B485B000AF78600023FB60F9
:10173000094B5B68FB60FB6823F0F003FB60FA6811
:101740007B681343FB60044AFB68536000BF143797
:10175000BD4680BC704700BF0010024080B485B019
:1017600000AF78600023FB60094B5B68FB60FB689F
:1017700023F4E063FB60FA687B681343FB60044A70
:10178000FB68536000BF1437BD4680BC704700BF84
:101790000010024080B485B000AF78600023FB6089
:1017A000094B5B68FB60FB6823F46053FB607B685C
:1017B000DB00FA681343FB60034AFB68536000BF19
:1017C0001437BD4680BC70470010024080B485B01D
:1017D00000AF78600023FB60094B5B68FB60FB682F
:1017E00023F44043FB60FA687B681343FB60044AC0
:1017F000FB68536000BF1437BD4680BC704700BF14
:101800000010024080B487B000AF786000237B6195
:1018100000233B610023FB600023BB604C4B5B68F3
:1018200003F00C037B617B69042B07D0082B09D0E4
:10183000002B33D17B68474A1A6033E07B68454A06
:101840001A602FE0424B5B6803F470133B61404B1E
:101850005B6803F48033FB603B699B0C02333B61A4
:10186000FB68002B06D13B693B4A02FB03F27B6815
:101870001A6017E0364B5B6803F40033002B06D088
:101880003B69354A02FB03F27B681A600AE03B6958
:10189000304A02FB03F27B681A6003E07B682D4A42
:1018A0001A6000BF2A4B5B6803F0F0037B617B6921
:1018B0001B097B61294A7B6913441B78DBB2BB603F
:1018C0007B681A68BB68DA407B685A60204B5B68AB
:1018D00003F4E0637B617B691B0A7B611F4A7B69C0
:1018E00013441B78DBB2BB607B685A68BB68DA4084
:1018F0007B689A60164B5B6803F460537B617B697D
:10190000DB0A7B61154A7B6913441B78DBB2BB6041
:101910007B685A68BB68DA407B68DA600C4B5B68AE
:1019200003F440437B617B699B0B7B610C4A7B69C1
:1019300013441B78DBB2BB607B68DA68BB68B2FB20
:10194000F3F27B681A6100BF1C37BD4680BC70474C
:101950000010024000127A0000093D000000002043
:101960001000002080B483B000AF78600B46FB709D
:10197000FB78002B06D00949084B9A697B68134312
:101980008B6106E00549054B9A697B68DB43134090
:101990008B6100BF0C37BD4680BC70470010024011
:1019A00080B483B000AF78600B46FB70FB78002BEF
:1019B00006D00949084BDA697B681343CB6106E01E
:1019C0000549054BDA697B68DB431340CB6100BFF7
:1019D0000C37BD4680BC70470010024080B487B011
:1019E00000AF0346FB710023FB6000237B610023F3
:1019F000FB74FB795B09DBB2FB60FB68012B03D155
:101A0000124B1B687B6109E0FB68022B03D10F4B73
:101A10001B6A7B6102E00D4B5B6A7B61FB7903F023
:101A20001F03FB607A69FB6822FA03F303F00103EA
:101A3000002B02D00123FB7401E00023FB74FB7C2C
:101A400018461C37BD4680BC704700BF00100240DE
:101A500080B485B000AF78600023FB60344BFB603E
:101A60007B689B79002B4FD03149314B1A687B68DA
:101A70001B68DB4313400B602D492D4B5A687B6874
:101A80001B68DB4313404B607B681B791A46FB687D
:101A90001344FB60FB68FA6811687A6812680A43AD
:101AA0001A602349224B9A687B681B68DB4313400A
:101AB0008B601F491E4BDA687B681B68DB43134051
:101AC000CB607B685B79102B0ED11949184B9A6853
:101AD0007B681B6813438B601549154BDA687B687C
:101AE0001B681343CB601DE0114BFB607B685B7987
:101AF0001A46FB681344FB60FB68FA6811687A6851
:101B000012680A431A600DE07B681B791A46FB686D
:101B10001344FB60FB68FA6811687A681268D24364
:101B20000A401A6000BF1437BD4680BC704700BF32
:101B30000004014080B485B000AF78600023FB73DF
:101B40000023BB600C4B1A687B681340BB600A4BD8
:101B50005A697B681340002B05D0BB68002B02D06C
:101B60000123FB7301E00023FB73FB7B1846143752
:101B7000BD4680BC704700BF0004014080B483B004
:101B800000AF7860034A7B68536100BF0C37BD46E5
:101B900080BC70470004014080B485B000AF78601D
:101BA00039600023FB600023FB727B685B68FB608D
:101BB000FB6823F4702323F48073FB603B681A688E
:101BC0003B681B791B021343FA681343FB607B6875
:101BD000FA685A607B689B68FB60FA68164B134092
:101BE000FB603B68DA683B689B681A433B685B793B
:101BF0005B001343FA681343FB607B68FA689A60E2
:101C00007B68DB6AFB60FB6823F47003FB603B6866
:101C10001B7C013BDAB2FB7A1343FB72FB7A1B0598
:101C2000FA681343FB607B68FA68DA6200BF143716
:101C3000BD4680BC704700BFFDF7F1FF80B483B0A4
:101C400000AF78600B46FB70FB78002B06D07B68FA
:101C50009B6843F001027B689A6005E07B689B68A3
:101C600023F001027B689A6000BF0C37BD4680BC40
:101C7000704700BF80B483B000AF78607B689B681A
:101C800043F008027B689A6000BF0C37BD4680BCF9
:101C9000704700BF80B485B000AF78600023FB734D
:101CA0007B689B6803F00803002B02D00123FB73C1
:101CB00001E00023FB73FB7B18461437BD4680BC54
:101CC000704700BF80B483B000AF78607B689B68CA
:101CD00043F004027B689A6000BF0C37BD4680BCAD
:101CE000704700BF80B485B000AF78600023FB73FD
:101CF0007B689B6803F00403002B02D00123FB7375
:101D000001E00023FB73FB7B18461437BD4680BC03
:101D1000704700BF80B483B000AF78600B46FB70A3
:101D2000FB78002B06D07B689B6843F4A0027B689D
:101D30009A6005E07B689B6823F4A0027B689A6048
:101D400000BF0C37BD4680BC704700BF80B485B073
:101D500000AF7860084611461A460346FB700B46F2
:101D6000BB7013467B700023FB600023BB60FB78D5
:101D7000092B23D97B68DB68FB60FB78A3F10A029F
:101D800013465B001344072202FA03F3BB60BB68EF
:101D9000DB43FA681340FB607978FB78A3F10A0211
:101DA00013465B00134401FA03F3BB60FA68BB6897
:101DB0001343FB607B68FA68DA601EE07B681B698E
:101DC000FB60FA7813465B001344072202FA03F320
:101DD000BB60BB68DB43FA681340FB607978FA7834
:101DE00013465B00134401FA03F3BB60FA68BB6857
:101DF0001343FB607B68FA681A61BB78062B21D815
:101E00007B685B6BFB60BB785A1E13469B001344D8
:101E10001F2202FA03F3BB60BB68DB43FA6813407E
:101E2000FB60F978BB785A1E13469B00134401FAF5
:101E300003F3BB60FA68BB681343FB607B68FA6816
:101E40005A6347E0BB780C2B21D87B681B6BFB6087
:101E5000BB78DA1F13469B0013441F2202FA03F3D8
:101E6000BB60BB68DB43FA681340FB60F978BB7862
:101E7000DA1F13469B00134401FA03F3BB60FA68B0
:101E8000BB681343FB607B68FA681A6322E07B68D7
:101E9000DB6AFB60BB78A3F10D0213469B00134481
:101EA0001F2202FA03F3BB60BB68DB43FA681340EE
:101EB000FB60F978BB78A3F10D0213469B00134435
:101EC00001FA03F3BB60FA68BB681343FB607B68ED
:101ED000FA68DA6200BF1437BD4680BC704700BFA5
:101EE00080B483B000AF78607B68DB6C9BB218462F
:101EF0000C37BD4680BC704780B58CB000AF7860B1
:101F000039600023FB620023BB6200237B62002355
:101F10003B620023FB617B68FB617B681B8A9BB291
:101F2000FB62FA6A4CF6FF731340FB623B68DB8886
:101F30001A46FB6A1343FB62FB6A9AB27B681A82F9
:101F40007B689B899BB2FB62FA6A4EF6F3131340DF
:101F5000FB623B689A883B681B8913439AB23B68D3
:101F60005B8913439BB21A46FB6A1343FB62FB6A0D
:101F70009AB27B689A817B689B8A9BB2FB62FA6A01
:101F80004FF6FF431340FB623B689B891A46FB6A8E
:101F90001343FB62FB6A9AB27B689A8207F10803DB
:101FA0001846FFF72FFCFB692E4A934202D17B694A
:101FB000BB6201E03B69BB627B689B899BB21BB241
:101FC000002B0CDABA6A13469B0013449A001A4499
:101FD0003B681B685B00B2FBF3F37B620BE0BA6A01
:101FE00013469B0013449A001A443B681B689B00ED
:101FF000B2FBF3F37B627B6A1B4AA2FB03235B0900
:102000001B01FB62FB6A1B09642202FB03F37A6A71
:10201000D31A3B627B689B899BB21BB2002B0CDA04
:102020003B6ADB003233104AA2FB03235B0903F057
:102030000703FA6A1343FB620BE03B6A1B0132336E
:10204000094AA2FB03235B0903F00F03FA6A134357
:10205000FB62FB6A9AB27B681A8100BF3037BD46CB
:1020600080BD00BF003801401F85EB5180B483B0B4
:1020700000AF78600B46FB70FB78002B08D07B68C4
:102080009B899BB243F400539AB27B689A8107E024
:102090007B689B899BB223F400539AB27B689A8138
:1020A00000BF0C37BD4680BC704700BF80B483B012
:1020B00000AF78600B467B807B88C3F308039AB23D
:1020C0007B689A8000BF0C37BD4680BC704700BF5C
:1020D00080B485B000AF78600B467B800023FB7333
:1020E0007B681B889AB27B8813409BB2002B02D07E
:1020F0000123FB7301E00023FB73FB7B18461437BD
:10210000BD4680BC704700BF80B487B000AF786028
:1021100000237B6100233B610F23FB607B68DB783E
:10212000002B3AD0274BDB68DB4303F4E0631B0A48
:102130007B617B69C3F104033B61FA687B6922FA26
:1021400003F3FB607B685B781A463B6902FA03F392
:102150007B617B689B781A46FB6813407A6913435E
:102160007B617B691B017B61174A7B681B787969FE
:10217000C9B213440A4683F80023134A7B681B78CC
:102180005B09DBB218467B681B7803F01F03012153
:1021900001FA03F342F820300FE00B497B681B780B
:1021A0005B09DBB218467B681B7803F01F03012232
:1021B0009A4000F1200341F8232000BF1C37BD46A0
:1021C00080BC704700ED00E000E100E080F00040DE
:1021D00002E000BF81F0004142001FBF5FEA4103FF
:1021E00092EA030F7FEA226C7FEA236C6AD04FEAFF
:1021F0001262D2EB1363C1BFD21841404840414044
:10220000B8BF5B42192B88BF704710F0004F40F4F5
:10221000000020F07F4018BF404211F0004F41F411
:10222000000121F07F4118BF494292EA030F3FD0DD
:10223000A2F1010241FA03FC10EB0C00C3F12003F0
:1022400001FA03F100F0004302D5494260EB40007F
:10225000B0F5000F13D3B0F1807F06D340084FEAEA
:10226000310102F10102FE2A51D2B1F1004F40EBDF
:10227000C25008BF20F0010040EA03007047490047
:1022800040EB000010F4000FA2F10102EDD1B0FA12
:1022900080FCACF1080CB2EB0C0200FA0CF0AABF07
:1022A00000EBC25052421843BCBFD04018437047A5
:1022B00092F0000F81F4000106BF80F400000132AB
:1022C000013BB5E74FEA41037FEA226C18BF7FEA82
:1022D000236C21D092EA030F04D092F0000F08BFC4
:1022E0000846704790EA010F1CBF0020704712F0AB
:1022F0007F4F04D1400028BF40F00040704712F1EA
:1023000000723CBF00F50000704700F0004343F04E
:10231000FE4040F4000070477FEA226216BF084684
:102320007FEA23630146420206BF5FEA412390EA47
:10233000010F40F4800070474FF0000304E000BF3D
:1023400010F0004348BF40425FEA000C08BF7047EE
:1023500043F0964301464FF000001CE050EA0102B2
:1023600008BF70474FF000030AE000BF50EA0102C7
:1023700008BF704711F0004302D5404261EB4101B4
:102380005FEA010C02BF84460146002043F0B643D9
:1023900008BFA3F18053A3F50003BCFA8CF2083AFE
:1023A000A3EBC25310DB01FA02FC634400FA02FC07
:1023B000C2F12002BCF1004F20FA02F243EB02000E
:1023C00008BF20F00100704702F1200201FA02FC70
:1023D000C2F1200250EA4C0021FA02F243EB020063
:1023E00008BF20EADC7070474FF0FF0C1CEAD052A7
:1023F0001EBF1CEAD15392EA0C0F93EA0C0F6FD068
:102400001A4480EA010C400218BF5FEA41211ED045
:102410004FF0006343EA501043EA5111A0FB013131
:102420000CF00040B1F5000F3EBF490041EAD37106
:102430005B0040EA010062F17F02FD2A1DD8B3F182
:10244000004F40EBC25008BF20F00100704790F0F1
:10245000000F0CF0004C08BF49024CEA502040EA43
:1024600051207F3AC2BFD2F1FF0340EAC250704709
:1024700040F400004FF00003013A5DDC12F1190F47
:10248000DCBF00F000407047C2F10002410021FAB9
:1024900002F1C2F1200200FA02FC5FEA310040F1D1
:1024A000000053EA4C0308BF20EADC70704792F04A
:1024B000000F00F0004C02BF400010F4000F013A82
:1024C000F9D040EA0C0093F0000F01F0004C02BF7D
:1024D000490011F4000F013BF9D041EA0C018FE7EC
:1024E0000CEAD15392EA0C0F18BF93EA0C0F0AD0F2
:1024F00030F0004C18BF31F0004CD8D180EA010018
:1025000000F00040704790F0000F17BF90F0004FB0
:10251000084691F0000F91F0004F14D092EA0C0F92
:1025200001D142020FD193EA0C0F03D14B0218BF25
:10253000084608D180EA010000F0004040F0FE406B
:1025400040F40000704740F0FE4040F44000704707
:102550004FF0FF0C1CEAD0521EBF1CEAD15392EA86
:102560000C0F93EA0C0F69D0A2EB030280EA010C76
:1025700049024FEA402037D04FF0805343EA11110F
:1025800043EA10130CF000408B4238BF5B0042F16D
:102590007D024FF4000C8B4224BF5B1A40EA0C0012
:1025A000B3EB510F24BFA3EB510340EA5C00B3EB44
:1025B000910F24BFA3EB910340EA9C00B3EBD10F32
:1025C00024BFA3EBD10340EADC001B0118BF5FEA84
:1025D0001C1CE0D1FD2A3FF650AF8B4240EBC250AD
:1025E00008BF20F0010070470CF0004C4CEA50206E
:1025F0007F32C2BFD2F1FF0340EAC250704740F4BD
:1026000000004FF00003013A37E792F0000F00F0AE
:10261000004C02BF400010F4000F013AF9D040EA2C
:102620000C0093F0000F01F0004C02BF490011F4C0
:10263000000F013BF9D041EA0C0195E70CEAD153B8
:1026400092EA0C0F08D142027FF47DAF93EA0C0F9F
:102650007FF470AF084676E793EA0C0F04D14B0283
:102660003FF44CAF08466EE730F0004C18BF31F035
:10267000004CCAD130F000427FF45CAF31F000432F
:102680007FF43CAF5FE700BF42000ED2B2F1FE4FD5
:102690000BD34FF09E03B3EB126209D44FEA002331
:1026A00043F0004323FA02F070474FF000007047F8
:1026B00012F1610F01D1420202D14FF0FF30704799
:1026C0004FF00000704700BF70B4840746D0541E1E
:1026D000002A41D0CDB2034602E0621EE4B31446A4
:1026E00003F8015B9A07F8D1032C2ED9CDB245EA45
:1026F00005250F2C45EA054519D9264603F1100298
:10270000103E0F2E42F8105C42F80C5C42F8085C58
:1027100042F8045C02F11002F2D8A4F1100222F097
:102720000F0204F00F041032032C13440DD91E467F
:102730002246043A032A46F8045BFAD8221F22F004
:1027400003020432134404F003042CB1C9B21C4444
:1027500003F8011BA342FBD170BC7047144603462B
:10276000C2E700BF73706565643D25642025640D74
:022770000A005D
:102772000000000001020304010203040607080925
:04278200020406083F
:0400000508000000EF
:00000001FF
