:020000040800F2
:1000000000A00020E12C0008252D0008252D000867
:10001000252D0008252D0008252D000800000000D2
:10002000000000000000000000000000B1230008F4
:10003000252D000800000000112600087926000880
:10004000252D0008252D0008252D0008252D000848
:10005000252D0008252D0008252D0008252D000838
:10006000252D0008252D0008252D0008252D000828
:10007000252D0008252D0008252D0008252D000818
:10008000252D0008252D0008252D0008252D000808
:10009000252D0008252D0008252D0008252D0008F8
:1000A000252D0008252D0008252D0008252D0008E8
:1000B000252D0008252D0008252D0008252D0008D8
:1000C000252D0008252D0008252D0008252D0008C8
:1000D000252D0008252D0008252D0008252D0008B8
:1000E000252D0008252D0008252D0008252D0008A8
:1000F000252D0008252D0008252D0008252D000898
:10010000000000000000000000000000252D000895
:10011000252D0008252D0008252D0008252D000877
:10012000252D0008252D0008252D0008252D000867
:10013000252D0008252D000800000000000000000B
:10014000252D0008252D0008252D000800000000A1
:10015000000000000000000000000000000000009F
:100160000000000000000000252D0008252D0008DB
:10017000252D000800000000000000000000000025
:1001800000000000252D000880B483B000AF786027
:100190000B46FB70FB78002B06D00A49094B5A69C5
:1001A0007B6813434B6106E00649064B5A697B683E
:1001B000DB4313404B6100BF0C37BD465DF8047B49
:1001C000704700BF0010024080B483B000AF786079
:1001D0000B46FB70FB78002B06D00A49094B9A6945
:1001E0007B6813438B6106E00649064B9A697B687E
:1001F000DB4313408B6100BF0C37BD465DF8047BC9
:10020000704700BF0010024080B487B000AF786034
:10021000396000237B6100233B610023FB600023E6
:100220007B617EE001227B6902FA03F33B613B685C
:100230001A683B691340FB60FA683B699A426DD1CA
:100240003B681B79012B03D03B681B79022B36D10D
:100250007B689A687B695B00032101FA03F3DB4347
:100260001A407B689A607B689A683B685B7919469C
:100270007B695B0001FA03F31A437B689A607B6831
:100280009B889AB27B699BB2012101FA03F39BB26E
:10029000DB439BB213409AB27B689A807B689B8851
:1002A0009BB21AB23B689B7919467B699BB201FAF3
:1002B00003F31BB213431BB29AB27B689A807B682C
:1002C0001A687B695B00032101FA03F3DB431A40E0
:1002D0007B681A607B681A683B681B7919467B69E2
:1002E0005B0001FA03F31A437B681A607B68DA68E3
:1002F0007B699BB25B00032101FA03F3DB431A40E5
:100300007B68DA607B68DA683B68DB7919467B6971
:100310005B0001FA03F31A437B68DA607B690133FF
:100320007B617B690F2B7FF67DAF00BF1C37BD461D
:100330005DF8047B704700BF80B483B000AF786085
:100340000B467B807A887B689A6100BF0C37BD467C
:100350005DF8047B704700BF80B483B000AF786065
:100360000B467B807B687A881A8500BF0C37BD46B8
:100370005DF8047B704700BF80B483B000AF786045
:100380000B467B807B687A889A8200BF0C37BD461B
:100390005DF8047B704700BF80B485B000AF786023
:1003A0000B467B8013467B700023FB600023BB6001
:1003B0007A787B8803F007039B0002FA03F3FB6063
:1003C0007B88DB089BB218467B88DB089BB21A4609
:1003D0007B68083253F822207B8803F007039B00D8
:1003E0000F2101FA03F3DB4302EA03017B6800F10A
:1003F000080243F822107B88DB089BB21A467B6810
:10040000083253F82220FB681343BB607B88DB086B
:100410009BB21A467B680832B96843F8221000BFC5
:100420001437BD465DF8047B704700BF80B582B0CD
:1004300000AF01214FF40010FFF7A6FE01214FF499
:100440000030FFF7A1FE4FF47F433B6001233B7177
:1004500001237B710023BB713B4619461948FFF706
:10046000D3FE02233B71E0233B600023BB710323D7
:100470007B713B4619464FF09040FFF7C5FE0522C1
:1004800005214FF09040FFF787FF062206214FF02D
:100490009040FFF781FF072207214FF09040FFF7C0
:1004A0007BFF01233B7108233B600023BB710323C7
:1004B0007B713B4619460348FFF7A6FE00BF08378D
:1004C000BD4680BD0010004880B586B000AF012158
:1004D0004FF48050FFF778FE0023BB804FF4E063B9
:1004E0003B8102237B810123BB814FF40073FB819D
:1004F00010233B8200237B820723BB824FF482734D
:10050000FB803B1D1946084801F032FC01210648DA
:1005100001F0BAFC4FF48051034801F0D5FC00BF54
:100520001837BD4680BD00BF0030014080B582B0A5
:1005300000AF37233B7100237B710023BB71012384
:10054000FB713B1D184601F06FFE00BF0837BD462A
:1005500080BD00BF80B582B000AF03460A46FB7184
:100560001346BB7108210948FFF7F6FEFB791846D0
:1005700000F00EF8BB79184600F00AF8082103488D
:10058000FFF7DAFE00BF0837BD4680BD0010004807
:1005900080B582B000AF0346FB7100BF02210D4859
:1005A00001F0D8FC0346002BF8D0FB791946094826
:1005B00001F0A6FC00BF0121064801F0CBFC034678
:1005C000002BF8D0034801F0B1FC03461846083769
:1005D000BD4680BD00300140B0B582B000AF78604C
:1005E0000821B348FFF7B8FEE820FFF7D1FF00204D
:1005F000FFF7CEFF03461A46AE4B1A700020FFF7F6
:10060000C7FF03461A46AB4B5A700821A848FFF7AC
:1006100093FEA84B1B781AB2A64B5B781B021BB249
:1006200013431BB29BB20A3B9AB2A34B1A80A24B54
:100630001B881BB2002B03DBA04B00221A7010E0BA
:100640009E4B01221A709C4B1B88C3F30E039AB277
:10065000994B1A80984B1A88994B9B1A9AB2964BD1
:100660001A80954B1B881F2B02D8934B00221A80AF
:10067000924B1B78002B23D18F4B1B88184602F01E
:10068000D7FD83A3D3E9002302F038FE03460C46CE
:100690001846214680A3D3E9002302F02FFE03462B
:1006A0000C4618462146874BD3E900341A462346A8
:1006B00002F072FC03460C46824AC2E9003420E094
:1006C000804BD3E900457C4B1B88184602F0B0FDF7
:1006D0006FA3D3E9002302F011FE02460B46104639
:1006E00019466DA3D3E9002302F008FE02460B462B
:1006F0002046294602F04EFC03460C46714AC2E9E8
:10070000003400216A48FFF737FE6E4BD3E9000141
:1007100063A3D3E9002303F081F80346002B0FD035
:10072000684BD3E900014FF00002674B03F058F823
:100730000346002B04D04FF480715D48FFF7FCFDA9
:10074000604BD3E900014FF000025F4B03F066F805
:100750000346002B0FD05B4BD3E900014FF00002A2
:100760005A4B03F03DF80346002B04D04FF40071C0
:100770004F48FFF7E1FD534BD3E900014FF0000272
:10078000524B03F04BF80346002B0FD04D4BD3E9EF
:1007900000014FF000024E4B03F022F80346002BFD
:1007A00004D04FF480614248FFF7C6FD454BD3E9C2
:1007B00000014FF00002464B03F030F80346002BD7
:1007C0000FD0404BD3E900014FF00002414B03F042
:1007D00007F80346002B04D04FF400613448FFF7BC
:1007E000ABFD384BD3E900014FF00002394B03F069
:1007F00015F80346002B0FD0324BD3E900014FF020
:100800000002354B02F0ECFF0346002B04D04FF4FE
:1008100080512748FFF790FD2A4BD3E900014FF0A4
:1008200000022D4B02F0FAFF0346002B0FD0254BA0
:10083000D3E900011CA3D3E9002302F0D1FF034652
:10084000002B04D04FF400511948FFF775FD1D4BE4
:10085000D3E9000114A3D3E9002302F0DFFF03462C
:10086000002B00D110E0174BD3E900014FF000023C
:100870001A4B02F0B5FF0346002B00D104E04FF401
:1008800080410B48FFF758FD00BF0837BD46B0BD9B
:10089000EC51B81E85EBB13F9A9999999999993F76
:1008A0000000000000405AC00000000000C052409C
:1008B00000100048803D0020943D0020903D002025
:1008C0000080FFFF883D002000C052C0008046C06D
:1008D00000002EC000002E400080464000405A40DC
:1008E00090B583B002AFFFF7A1FDFFF7EDFDFFF775
:1008F0001DFE0E4A4FF000034FF00004C2E9003421
:100900000A212020FFF726FE30212320FFF722FEB8
:10091000002301930223009300234FF480720449C3
:10092000044800F0A3FA00F009FCFEE7883D00202F
:10093000003A0008D905000880B400AF00BFBD46EA
:100940005DF8047B704700BF80B400AFFEE700BFD6
:1009500080B483B000AF78603960FEE780B400AF48
:1009600000BFBD465DF8047B704700BF80B584B012
:1009700002AF00237B6000F043FA114B1B68002B91
:100980000BD0104B01930223009300234FF400720D
:100990000D490E4800F06AFA78607B68002B09D197
:1009A0004FF0500383F31188BFF36F8FBFF34F8F66
:1009B0003B60FEE77B6818460837BD4680BD00BF38
:1009C0005000002054000020083A0008710A000876
:1009D00080B584B000AFF860B9607A6008E0FB6869
:1009E0009B69BA681344BB60FB681B6AF868984748
:1009F000FB689A69BB68D118BB687A68F86800F030
:100A0000DBF80346002BEAD100BF1037BD4680BD9E
:100A100080B584B000AF78603960144B1B68DB6828
:100A2000DB68FB60FB680433184601F0D3FBFB680E
:100A300093F8283003F00403002B05D03A68796856
:100A4000F868FFF7C5FF08E0FB6893F8283023F04B
:100A50000103DAB2FB6883F82820FB681B6AF86898
:100A6000984700BF1037BD4680BD00BF480000203A
:100A700080B584B000AF786007F10803184600F035
:100A800057F8F860BB681946F86800F003F800F002
:100A9000D5F8F1E780B584B000AF7860396000F038
:100AA0009DFB07F10803184600F066F8F860BB6884
:100AB000002B30D13B68002B0AD17A68FB689A4240
:100AC00006D800F099FBF9687868FFF7A1FF24E0E9
:100AD0003B68002B08D0134B1B681B68002B01D10F
:100AE000012300E000233B600F4B18687A68FB6825
:100AF000D31A3A68194602F0BFF800F07DFB0346AE
:100B0000002B0AD1094B4FF080521A60BFF34F8F70
:100B1000BFF36F8F01E000F06FFB00BF1037BD46E1
:100B200080BD00BF4C0000205000002004ED00E01C
:100B300080B485B000AF78600E4B1B681B68002B3B
:100B400001D1012200E000227B681A607B681B68EB
:100B5000002B05D1074B1B68DB681B68FB6001E0BD
:100B60000023FB60FB6818461437BD465DF8047B24
:100B7000704700BF4800002080B584B000AF7860A7
:100B800000F034FCF8600B4B1B68FA689A4205D2FF
:100B900000F010F97B6801221A6002E07B680022F5
:100BA0001A60044AFB681360FB6818461037BD469C
:100BB00080BD00BF5800002080B586B000AFF8604F
:100BC000B9607A603B6000237B61FB68BA685A6059
:100BD000FB68FA681A61BA687B689A4212D87A6828
:100BE0003B68D21AFB689B699A4202D301237B615E
:100BF0001BE0104B1A68FB6804331946104601F0DD
:100C0000AFFA12E07A683B689A4206D2BA683B684B
:100C10009A4202D301237B6107E0074B1A68FB6805
:100C200004331946104601F09BFA7B6918461837C1
:100C3000BD4680BD4C0000204800002080B588B033
:100C400000AFA5E0BB68002BC0F2A2803B69FB614E
:100C5000FB695B69002B04D0FB690433184601F083
:100C6000B9FA3B1D1846FFF787FFB861BB68013B27
:100C7000082B00F28C8001A252F823F0A10C00088E
:100C8000A10C0008090D00081D0D0008650D0008E5
:100C9000A10C0008A10C0008090D00081D0D00089A
:100CA000FB6993F8283043F00103DAB2FB6983F85B
:100CB0002820FA68FB699B69D118FB68BA69F86952
:100CC000FFF77AFF0346002B62D0FB6993F82830C8
:100CD00003F00403002B09D0FA68FB699B691344F5
:100CE000BA691946F869FFF773FE08E0FB6993F8E3
:100CF000283023F00103DAB2FB6983F82820FB696E
:100D00001B6AF869984743E0FB6993F8283023F0A1
:100D10000103DAB2FB6983F8282039E0FB6993F814
:100D2000283043F00103DAB2FB6983F82820FA681F
:100D3000FB699A61FB699B69002B09D14FF0500355
:100D400083F31188BFF36F8FBFF34F8F7B61FEE793
:100D5000FB699A69BB69D118BB69BA69F869FFF781
:100D60002BFF15E0FB6993F8283003F00203002BFA
:100D700003D1F86902F07CF80AE0FB6993F82830A7
:100D800023F00103DAB2FB6983F8282000E000BFFA
:100D9000074B1B6807F108010022184601F0B4FD5B
:100DA0000346002B7FF44EAF00BF2037BD4680BD09
:100DB0005000002080B582B000AF09E00E4B1B68E8
:100DC000DB681B687B604FF0FF317868FFF720FE1F
:100DD000094B1B681B68002BF0D1074B1B683B605D
:100DE000064B1B68044A1360044A3B68136000BF4B
:100DF0000837BD4680BD00BF480000204C000020E1
:100E000080B500AF01F0ACFB124B1B68002B1DD16D
:100E1000114801F077F9114801F074F9104B0E4AAE
:100E20001A60104B0D4A1A6000220C210A2001F0B2
:100E3000FDFC0246074B1A60064B1B68002B05D0D1
:100E4000044B1B680849184601F0C8FE01F0B6FBC8
:100E500000BF80BD50000020200000203400002092
:100E6000480000204C000020103A000880B58CB0EB
:100E700004AFF860B9603B601346FB80FB889B00C1
:100E8000184601F051FF78617B69002B13D0582080
:100E900001F04AFFF861FB69002B08D058220021BD
:100EA000F86902F05FFDFB697A691A6305E0786909
:100EB00001F0DEFF01E00023FB61FB69002B13D092
:100EC000FA8800230393FB690293FB6A0193BB6AD0
:100ED00000933B68B968F86800F00EF8F86900F014
:100EE00097F80123BB6102E04FF0FF33BB61BB69A0
:100EF00018462037BD4680BD80B588B000AFF86089
:100F0000B9607A603B603B6B186B7B689B001A464C
:100F1000A52102F027FD3B6B1A6B7B6803F1804330
:100F2000013B9B001344BB61BB6923F00703BB611A
:100F3000BB6903F00703002B09D04FF0500383F384
:100F40001188BFF36F8FBFF34F8F3B61FEE7BB6824
:100F5000002B1ED00023FB6112E0BA68FB6913442A
:100F600019783A6BFB69134434330A461A70BA682D
:100F7000FB6913441B78002B06D0FB690133FB612E
:100F8000FB69092BE9D900E000BF3B6B002283F825
:100F90003D20BB6A042B09D94FF0500383F311881D
:100FA000BFF36F8FBFF34F8F7B61FEE7BB6A042BEC
:100FB00001D90423BB623B6BBA6ADA623B6BBA6A43
:100FC0009A643B6B0433184601F0BCF83B6B183352
:100FD000184601F0B7F83B6B3A6B1A61BB6AC3F174
:100FE00005023B6B9A613B6B3A6B5A623A68F9684F
:100FF000B86901F07DF902463B6B1A60FB6A002B71
:1010000002D0FB6A3A6B1A6000BF2037BD4680BD34
:1010100080B584B000AF786001F0A2FA404B1B6845
:1010200001333F4A13603F4B1B68002B09D13D4AF7
:101030007B6813603A4B1B68012B10D100F062FDF6
:101040000DE0394B1B68002B09D1364B1B68DA6A5F
:101050007B68DB6A9A4202D8324A7B681360334B62
:101060001B680133314A1360304B1A687B681A647D
:101070007B68DB6A01229A402D4B1B6813432C4A84
:1010800013607B68DA6A2B4913469B0013449B006C
:101090000B4404331B68FB607B68FA689A60FB684A
:1010A0009A687B68DA60FB689B687A6804325A60E9
:1010B0007B681A1DFB689A607B68DA6A13469B009E
:1010C00013449B001B4A1A447B685A617B68DA6AA6
:1010D000184913469B0013449B000B441B68591C82
:1010E000144813469B0013449B000344196001F00D
:1010F00065FA0D4B1B68002B0ED00A4B1B68DA6A91
:101100007B68DB6A9A4207D20B4B4FF080521A6021
:10111000BFF34F8FBFF36F8F00BF1037BD4680BD49
:10112000340100205C00002040010020500100201C
:101130003C0100206000002004ED00E080B586B096
:1011400002AF1F4B01930023009300234FF48072E2
:101150001C491D48FFF78AFEF860FB68012B02D18D
:10116000FFF704FCF860FB68012B15D14FF050032A
:1011700083F31188BFF36F8FBFF34F8F7B60134BE7
:101180004FF0FF321A60124B01221A60114B0022FD
:101190001A6001F037F90DE0FB68B3F1FF3F09D1A8
:1011A0004FF0500383F31188BFF36F8FBFF34F8F5E
:1011B000BB60FEE7084B1B6800BF1037BD4680BD13
:1011C00058010020183A0008D11A000854010020E4
:1011D00040010020380100200000002080B400AF52
:1011E000044B1B680133034A136000BFBD465DF822
:1011F000047B70475C01002080B588B000AF0023FD
:10120000FB610023BB61704B1B68002B09D14FF0C1
:10121000500383F31188BFF36F8FBFF34F8F7B6051
:10122000FEE701F09DF9684B1B68013B664A1360BD
:10123000654B1B68002B40F0C080644B1B68002B83
:1012400000F0BB808AE0624BDB68DB68FB61FB6916
:101250009B6A3B61FB69DB69FA69126A9A60FB6908
:101260001B6AFA69D2695A603B695A68FB6918338C
:101270009A4203D1FB691A6A3B695A60FB690022F2
:101280009A623B691B685A1E3B691A60FB695B697D
:10129000FB60FB699B68FA69D2689A60FB69DB684E
:1012A000FA6992685A60FB685A68FB6904339A428B
:1012B00003D1FB69DA68FB685A60FB6900225A6156
:1012C000FB681B685A1EFB681A60FB69DB6A012217
:1012D0009A40404B1B6813433E4A1360FB69DA6A2D
:1012E0003D4913469B0013449B000B4404331B6889
:1012F000BB60FB69BA689A60BB689A68FB69DA6090
:10130000BB689B68FA6904325A60FB691A1DBB68A6
:101310009A60FB69DA6A13469B0013449B002E4ACD
:101320001A44FB695A61FB69DA6A2B4913469B0030
:1013300013449B000B441B68591C274813469B0011
:1013400013449B0003441960FB69DA6A234B1B6852
:10135000DB6A9A4202D3224B01221A601C4B1B68A3
:10136000002B7FF470AFFB69002B01D000F046FC2E
:101370001C4B1B687B617B69002B10D000F046F88A
:101380000346002B02D0164B01221A607B69013BF9
:101390007B617B69002BF1D1124B00221A60104B4C
:1013A0001B68002B09D00123BB610F4B4FF080520B
:1013B0001A60BFF34F8FBFF36F8F01F0FFF8BB6967
:1013C00018462037BD4680BD5C0100203401002056
:1013D000F40000203C010020600000205C000020A0
:1013E000480100204401002004ED00E080B483B0F7
:1013F00000AF054B1B687B607B6818460C37BD4609
:101400005DF8047B704700BF3801002080B58AB0CA
:1014100000AF00237B62814B1B68002B40F0F18002
:101420007F4B1B6801333B627D4A3B6A13603B6A1A
:10143000002B1FD17B4B1B681B68002B09D04FF082
:10144000500383F31188BFF36F8FBFF34F8F7B601F
:10145000FEE7744B1B68FB61734B1B68714A13609A
:10146000714AFB691360714B1B6801336F4A13604B
:1014700000F0C4FB6E4B1B683A6A9A42C0F0A6802B
:10148000684B1B681B68002B04D1694B4FF0FF327F
:101490001A609BE0634B1B68DB68DB68BB61BB6960
:1014A0005B687B613A6A7B699A4203D2604A7B69D6
:1014B00013608BE0BB695B693B61BB699B68BA6980
:1014C000D2689A60BB69DB68BA6992685A603B6906
:1014D0005A68BB6904339A4203D1BB69DA683B6935
:1014E0005A60BB6900225A613B691B685A1E3B69FE
:1014F0001A60BB699B6A002B1ED0BB699B6AFB60AC
:10150000BB69DB69BA69126A9A60BB691B6ABA690E
:10151000D2695A60FB685A68BB6918339A4203D192
:10152000BB691A6AFB685A60BB6900229A62FB6851
:101530001B685A1EFB681A60BB69DB6A01229A406D
:101540003C4B1B6813433B4A1360BB69DA6A3A4958
:1015500013469B0013449B000B4404331B68BB6081
:10156000BB69BA689A60BB689A68BB69DA60BB6895
:101570009B68BA6904325A60BB691A1DBB689A60DD
:10158000BB69DA6A13469B0013449B002A4A1A443B
:10159000BB695A61BB69DA6A274913469B00134449
:1015A0009B000B441B68591C234813469B001344A3
:1015B0009B0003441960BB69DA6A204B1B68DB6A35
:1015C0009A427FF65DAF01237B6259E71B4B1B6894
:1015D000DA6A194913469B0013449B000B441B68AD
:1015E000012B01D901237B62154B1B68002B01D114
:1015F000FFF7B4F9134B1B68002B09D001237B6262
:1016000006E00F4B1B6801330D4A1360FFF7A6F984
:101610007B6A18462837BD4680BD00BF5C010020AC
:1016200038010020EC000020F00000204C010020D8
:10163000540100203C010020600000205C000020DC
:10164000440100204801002080B588B000AF394B2C
:101650001B68002B03D0384B01221A6065E0364B23
:1016600000221A60354B1B681B6BFB614FF0A533E2
:10167000BB61FB691A68BB699A4211D1FB690433EB
:101680001A68BB699A420BD1FB6908331A68BB69B7
:101690009A4205D1FB690C331A68BB699A4208D09B
:1016A000264B1A68254B1B68343319461046FFF742
:1016B0004FF9234B1B68BB60BB68B3FA83F3FB7124
:1016C000FB79C3F11F033B611E493A6913469B0036
:1016D00013449B000B441B68002B09D14FF05003AF
:1016E00083F31188BFF36F8FBFF34F8F7B61FEE7EA
:1016F0003A6913469B0013449B00124A1344FB6053
:10170000FB685B685A68FB685A60FB685A68FB684C
:1017100008339A4204D1FB685B685A68FB685A60D8
:10172000FB685B68DB68054A136000BF2037BD4675
:1017300080BD00BF5C010020480100205C0000204B
:101740003C0100206000002080B584B000AF7860CC
:1017500039607B68002B09D14FF0500383F3118867
:10176000BFF36F8FBFF34F8FFB60FEE7074B1B6824
:1017700018331946786800F0F3FC0121386800F04E
:1017800077FA00BF1037BD4680BD00BF5C00002067
:1017900080B586B000AFF860B9607A60FB68002B56
:1017A00009D14FF0500383F31188BFF36F8FBFF35C
:1017B0004F8F3B61FEE7FB685B687B61154B1B68E5
:1017C0007A69DA61134B1B687A6992681A627B69DD
:1017D0009B68104A126818325A600E4B1B6803F15E
:1017E00018027B699A600B4B1B68FA689A62FB6867
:1017F0001B685A1CFB681A607B68002B02D04FF0F4
:10180000FF33BB607968B86800F032FA00BF183760
:10181000BD4680BD5C00002080B48BB000AF786016
:101820007B68DB68DB683B623B6A002B09D14FF0C9
:10183000500383F31188BFF36F8FBFF34F8FFB60AB
:10184000FEE73B6A9B6AFB613B6ADB693A6A126AA4
:101850009A603B6A1B6A3A6AD2695A60FB695A68A5
:101860003B6A18339A4203D13B6A1A6AFB695A6091
:101870003B6A00229A62FB691B685A1EFB691A6068
:101880004A4B1B68002B5ED13B6A5B69BB613B6ABC
:101890009B683A6AD2689A603B6ADB683A6A9268E7
:1018A0005A60BB695A683B6A04339A4203D13B6A67
:1018B000DA68BB695A603B6A00225A61BB691B68DF
:1018C0005A1EBB691A603B6ADB6A01229A40384B98
:1018D0001B681343364A13603B6ADA6A354913467C
:1018E0009B0013449B000B4404331B687B613B6AE1
:1018F0007A699A607B699A683B6ADA607B699B685F
:101900003A6A04325A603B6A1A1D7B699A603B6AE4
:10191000DA6A13469B0013449B00264A1A443B6A2A
:101920005A613B6ADA6A234913469B0013449B00C1
:101930000B441B68591C1F4813469B0013449B0013
:10194000034419601BE01C4B5B683B613B6A3A69CE
:10195000DA613B699A683B6A1A623B699B683A6A3A
:1019600018325A603B6A03F118023B699A603B6A7D
:10197000114A9A62104B1B6801330F4A13603B6A8D
:10198000DA6A0E4B1B68DB6A9A4205D901237B6237
:101990000B4B01221A6001E000237B627B6A184630
:1019A0002C37BD465DF8047B704700BF5C0100200A
:1019B0003C01002060000020F40000205C000020BA
:1019C0004801002080B483B000AF7860064B1A68ED
:1019D0007B681A60054B1A687B685A6000BF0C3739
:1019E000BD465DF8047B70474C01002038010020A3
:1019F00080B588B000AF786039607B68002B09D172
:101A00004FF0500383F31188BFF36F8FBFF34F8FF5
:101A1000FB60FEE73B68002B09D14FF0500383F3D6
:101A20001188BFF36F8FBFF34F8F3B61FEE700F06C
:101A300097FD1F4B1B68BB617B685B68BA69D31A53
:101A40007B613B681B68B3F1FF3F02D10023FB6160
:101A500026E07B681A68174B1B689A420AD07B689D
:101A60005A68BB699A4205D80123FB613B68002292
:101A70001A6015E03B681A687B699A420BD93B688B
:101A80001A687B69D21A3B681A607868FFF79AFF78
:101A90000023FB6104E03B6800221A600123FB6124
:101AA00000F08CFDFB6918462037BD4680BD00BFA5
:101AB000380100204C01002080B400AF034B01220C
:101AC0001A6000BFBD465DF8047B704748010020E6
:101AD00080B582B000AF786000F054F8074B1B6807
:101AE000012B07D9064B4FF080521A60BFF34F8F7E
:101AF000BFF36F8FFEF720FFEEE700BF600000200E
:101B000004ED00E080B582B000AF00237B600CE004
:101B10007A6813469B0013449B00124A13441846EC
:101B200000F0F0FA7B6801337B607B68042BEFD90F
:101B30000D4800F0E7FA0D4800F0E4FA0C4800F018
:101B4000E1FA0C4800F0DEFA0B4800F0DBFA0B4B30
:101B5000054A1A600A4B054A1A6000BF0837BD469D
:101B600080BD00BF60000020C4000020D80000201D
:101B7000F40000200801002020010020EC000020DB
:101B8000F000002080B582B000AF19E000F0E8FC62
:101B90000F4BDB68DB687B607B680433184600F022
:101BA00019FB0C4B1B68013B0A4A13600A4B1B686C
:101BB000013B094A136000F001FD786800F00EF85F
:101BC000054B1B68002BE1D100BF0837BD4680BD27
:101BD00008010020340100201C01002080B582B0E3
:101BE00000AF78607B681B6B184601F041F978689C
:101BF00001F03EF900BF0837BD4680BD80B400AF9C
:101C00000A4B1B681B68002B04D1094B4FF0FF32B5
:101C10001A6005E0054B1B68DB681B68044A13600B
:101C200000BFBD465DF8047B704700BFEC0000209C
:101C30005401002080B483B000AF0B4B1B68002B15
:101C400002D101237B6008E0084B1B68002B02D106
:101C500002237B6001E000237B607B6818460C3721
:101C6000BD465DF8047B7047400100205C01002008
:101C700080B586B000AF78603960364B1B687B61F9
:101C8000354B1B680433184600F0A4FA0346002BBA
:101C90000BD1314B1B68DB6A012202FA03F3DA43F2
:101CA0002E4B1B6813402D4A13607B68B3F1FF3F36
:101CB00024D13B68002B21D0294B5B683B61264B2C
:101CC0001B683A699A60244B1B683A699268DA602B
:101CD0003B699B68204A126804325A601E4B1B689D
:101CE0001A1D3B699A601C4B1B681D4A5A611C4BAC
:101CF0001B6801331A4A136000BF26E07A697B68CB
:101D00001344FB60144B1B68FA685A60FA687B69DD
:101D10009A4209D2134B1A680F4B1B6804331946B9
:101D2000104600F01DFA10E00F4B1A680A4B1B68B2
:101D300004331946104600F013FA0C4B1B68FA687E
:101D40009A4202D2094AFB68136000BF1837BD46A9
:101D500080BD00BF380100205C0000203C01002055
:101D600020010020F0000020EC00002054010020A1
:101D700080B485B000AF786039600023FB813B6898
:101D80005B88B3F5827F36D17B681B88FB81FB893A
:101D900003F44153FB813B681A883B685B8813431B
:101DA0009AB23B68D9883B681B890B4399B23B6860
:101DB00058893B689B89034398B23B68DB8903439E
:101DC0009BB20B439BB213439AB2FB891343FB8133
:101DD0007B68FA891A807B689B88FB81FB8923F4E6
:101DE0007063FB813B689A88FB891343FB817B68A6
:101DF000FA899A8035E07B689B88FB81FB8923F414
:101E00007063FB813B689A88FB891343FB817B6885
:101E1000FA899A807B681B88FB81FB8903F4415314
:101E2000FB813B681A883B685B8813439AB23B6826
:101E3000D9883B681B890B4399B23B6858893B683A
:101E40009B89034398B23B68DB8903439BB20B43F6
:101E50009BB213439AB2FB891343FB817B68FA89D7
:101E60001A807B689B8B9BB223F400639AB27B68D9
:101E70009A833B681A8A7B681A8200BF1437BD4672
:101E80005DF8047B704700BF80B483B000AF78601A
:101E90000B46FB70FB78002B08D07B681B889BB23D
:101EA00043F040039AB27B681A8007E07B681B8886
:101EB0009BB223F040039AB27B681A8000BF0C37B4
:101EC000BD465DF8047B704780B483B000AF786096
:101ED0000B467B807B689B889BB223F480539AB22D
:101EE0007B689A807B689B889AB27B8813439AB2FE
:101EF0007B689A8000BF0C37BD465DF8047B704755
:101F000080B485B000AF78600B46FB700023FB60A7
:101F10007B68FB60FB680C33FB60FB68FA781A7027
:101F200000BF1437BD465DF8047B704780B485B0B0
:101F300000AF78600023FB607B68FB60FB680C33BC
:101F4000FB60FB681B78DBB218461437BD465DF8B2
:101F5000047B704780B485B000AF78600B467B800F
:101F60000023FB737B681B899AB27B8813409BB26A
:101F7000002B02D00123FB7301E00023FB73FB7BEA
:101F800018461437BD465DF8047B704780B500AF36
:101F90001F4A1F4BD3F8883043F47003C2F88830CF
:101FA0001C4A1C4B1B6843F0010313601949194B71
:101FB0005A68194B13404B60164A164B1B6823F0A6
:101FC000847323F480331360124A124B1B6823F48A
:101FD000802313600F4A0F4B5B6823F4FE035360AA
:101FE0000C4A0C4BDB6A23F00F03D3620949094BFF
:101FF0001A6B0A4B13400B63064B00229A6000F0E9
:102000000FF8034B4FF000629A6000BF80BD00BF25
:1020100000ED00E0001002400CC07FF8CCFC00FF97
:1020200080B483B000AF00237B6000233B60334A61
:10203000324B1B6843F480331360304B1B6803F44E
:1020400000333B607B6801337B603B68002B03D12E
:102050007B68B3F5A06FF0D1284B1B6803F4003305
:10206000002B02D001233B6001E000233B603B6872
:10207000012B3CD1224B12221A60204A1F4B5B6875
:1020800053601E4A1D4B5B6853601C4A1B4B5B68C8
:1020900043F480635360194A184B5B6823F47C1344
:1020A0005360164A154B5B6843F4E8135360134AB8
:1020B000124B1B6843F08073136000BF0F4B1B680B
:1020C00003F00073002BF9D00C4A0C4B5B6823F033
:1020D00003035360094A094B5B6843F002035360F2
:1020E00000BF064B5B6803F00C03082BF9D100BF5F
:1020F0000C37BD465DF8047B704700BF00100240FE
:102100000020024080B483B000AF78607B6803F1A8
:1021100008027B685A607B684FF0FF329A607B68E8
:1021200003F108027B68DA607B6803F108027B68D0
:102130001A617B6800221A6000BF0C37BD465DF84B
:10214000047B704780B483B000AF78607B68002266
:102150001A6100BF0C37BD465DF8047B704700BFB5
:1021600080B485B000AF786039603B681B68BB60A5
:10217000BB68B3F1FF3F03D17B681B69FB600CE0D8
:102180007B680833FB6002E0FB685B68FB60FB6810
:102190005B681A68BB689A42F6D9FB685A683B6864
:1021A0005A603B685B683A689A603B68FA689A6074
:1021B000FB683A685A603B687A681A617B681B68FA
:1021C0005A1C7B681A6000BF1437BD465DF8047B5B
:1021D000704700BF80B485B000AF78607B681B6932
:1021E000FB607B685B687A6892689A607B689B6832
:1021F0007A6852685A60FB685A687B689A4203D1D1
:102200007B689A68FB685A607B6800221A61FB68E9
:102210001B685A1EFB681A60FB681B681846143757
:10222000BD465DF8047B704780B487B000AF78602E
:1022300000237B6100233B610F23FB607B68DB781D
:10224000002B3AD0284BDB68DB4303F4E0631B0A26
:102250007B617B69C3F104033B61FA687B6922FA05
:1022600003F3FB607B685B781A463B6902FA03F371
:102270007B617B689B781A46FB6813407A6913433D
:102280007B617B691B017B61184A7B681B787969DC
:10229000C9B213440A4683F80023144A7B681B78AA
:1022A0005B09DBB218467B681B7803F01F03012132
:1022B00001FA03F342F820300FE00C497B681B78E9
:1022C0005B09DBB218467B681B7803F01F03012211
:1022D0009A4000F1200341F8232000BF1C37BD467F
:1022E0005DF8047B704700BF00ED00E000E100E016
:1022F00080B485B000AFF860B9607A60FB68043BD9
:10230000FB60FB684FF080721A60FB68043BFB6067
:10231000BB6823F00102FB681A60FB68043BFB60AA
:102320000C4AFB681A60FB68143BFB607A68FB6828
:102330001A60FB68043BFB60FB686FF002021A60E6
:10234000FB68203BFB60FB6818461437BD465DF810
:10235000047B70475923000880B485B000AF002388
:102360007B60114B1B68B3F1FF3F09D04FF0500366
:1023700083F31188BFF36F8FBFF34F8FBB60FEE70E
:102380004FF0500383F31188BFF36F8FBFF34F8F6C
:10239000FB6000BF7B68002BFCD000BF1437BD463C
:1023A0005DF8047B704700BF1800002000000000AB
:1023B000074B19680868B0E8F04F80F30988BFF34D
:1023C0006F8F4FF0000080F311887047AFF30080EB
:1023D0005C00002000BF00BF08480068006880F370
:1023E00008884FF0000080F3148862B661B6BFF32E
:1023F0004F8FBFF36F8F00DF00BF000008ED00E0DC
:1024000000BF00BF80B588B000AF4C4B1B684C4A82
:10241000934209D14FF0500383F31188BFF36F8FBC
:10242000BFF34F8FFB60FEE7444B1B68454A934266
:1024300009D14FF0500383F31188BFF36F8FBFF3BF
:102440004F8F3B61FEE7404BFB61FB691B78DBB2C2
:10245000BB60FB69FF221A70FB691B78DBB2FB7162
:10246000FB79DBB203F05003DAB2384B1A70384B09
:1024700007221A6009E0364B1B68013B344A13609F
:10248000FB79DBB25B00DBB2FB71FB79DBB25BB2E9
:10249000002BF0DB2E4B1B68C3F10703042B09D084
:1024A0004FF0500383F31188BFF36F8FBFF34F8F4B
:1024B0007B61FEE7264B1B68C3F10703042B09D0A1
:1024C0004FF0500383F31188BFF36F8FBFF34F8F2B
:1024D000BB61FEE71E4B1B681B021D4A13601C4BB1
:1024E0001B6803F4E0631A4A1360BB68DAB2FB6945
:1024F0001A70184A174B1B6843F470031360154A8F
:10250000144B1B6843F07043136000F0D5F8124B76
:1025100000221A6000F0F4F8104A104B1B6843F0D8
:1025200040431360FFF758FFFFF78EF8FFF714FFE3
:10253000002318462037BD4680BD00BF00ED00E0F7
:1025400071C20F4170C20F4100E400E06001002041
:102550006401002020ED00E01800002034EF00E0CE
:1025600080B483B000AF4FF0500383F31188BFF302
:102570006F8FBFF34F8F3B600E4B1B6801330D4ACB
:1025800013600C4B1B68012B0ED10B4B1B68DBB28D
:10259000002B09D04FF0500383F31188BFF36F8FE6
:1025A000BFF34F8F7B60FEE700BF0C37BD465DF881
:1025B000047B70471800002004ED00E080B483B075
:1025C00000AF114B1B68002B09D14FF0500383F370
:1025D0001188BFF36F8FBFF34F8F3B60FEE70A4B4D
:1025E0001B68013B084A1360074B1B68002B04D192
:1025F00000237B607B6883F3118800BF0C37BD46E6
:102600005DF8047B704700BF180000200000000048
:10261000EFF30980BFF36F8F154B1A681EF0100F90
:1026200008BF20ED108A20E9F04F10602DE9090065
:102630004FF0500080F31188BFF34F8FBFF36F8FBF
:10264000FFF702F84FF0000080F3118809BC196809
:102650000868B0E8F04F1EF0100F08BFB0EC108A09
:1026600080F30988BFF36F8F704700BFAFF300801E
:102670005C00002000BF00BF80B582B000AF4FF00B
:10268000500383F31188BFF36F8FBFF34F8F3B600D
:10269000FEF7BCFE0346002B03D0064B4FF08052E2
:1026A0001A6000237B607B6883F3118800BF0837C2
:1026B000BD4680BD04ED00E080B400AF0B4B0022AE
:1026C0001A600B4B00221A600A4A0B4B1B680B491D
:1026D000A1FB03139B09013B1360044B07221A6003
:1026E00000BFBD465DF8047B704700BF10E000E00E
:1026F00018E000E014E000E004000020D34D621078
:10270000DFF80C00016841F47001016070470000BF
:1027100088ED00E000BF00BF80B586B000AF7860F4
:10272000396001237B617B683B613B69002B09D1E8
:102730004FF0500383F31188BFF36F8FBFF34F8FB8
:10274000BB60FEE73B69002B5AD03B69DB6B002B7B
:1027500056D03B69DB6B4FF0FF32B2FBF3F23B69C3
:102760001B6C9A424CD3FFF7FBFE3B691A683B692E
:10277000DB6B3969096C01FB03F31A443B699A600E
:102780003B6900229A633B691A683B695A603B695E
:102790001A683B69DB6B013B3969096C01FB03F388
:1027A0001A443B69DA603B69FF2283F844203B69A5
:1027B000FF2283F845203B68002B14D13B691B693D
:1027C000002B1AD03B6910331846FFF725F8034653
:1027D000002B12D0144B4FF080521A60BFF34F8F72
:1027E000BFF36F8F09E03B6910331846FFF78AFC8F
:1027F0003B6924331846FFF785FCFFF7DFFE01E055
:1028000000237B617B69002B09D14FF0500383F3D8
:102810001188BFF36F8FBFF34F8FFB60FEE77B69BB
:1028200018461837BD4680BD04ED00E080B58AB07B
:1028300002AFF860B9601346FB710023FB61FB68CF
:10284000002B2BD04FF0FF32FB68B2FBF3F2BB68DA
:102850009A4223D3FB68BA6802FB03F313F1510FCA
:102860001CD8FB68BA6802FB03F3BB61BB69503339
:10287000184600F059FAF861FB69002B1BD0FB6980
:102880007B617B6950337B61FA79FB690093134666
:102890007A69B968F86800F013F80CE0FB69002B5E
:1028A00009D14FF0500383F31188BFF36F8FBFF34B
:1028B0004F8F3B61FEE7FB6918462037BD4680BD60
:1028C00080B584B000AFF860B9607A60FB70BB6817
:1028D000002B03D1BB69BA691A6002E0BB697A6850
:1028E0001A60BB69FA68DA63BB69BA681A640121C5
:1028F000B869FFF711FFBB69FA7883F84C2000BF75
:102900001037BD4680BD00BF80B58CB000AFF86009
:10291000B9607A600023FB62FB68BB62BB6A002B74
:1029200009D14FF0500383F31188BFF36F8FBFF3CA
:102930004F8FBB61FEE7BB68002B03D1BB6A1B6CEA
:10294000002B01D1012300E00023002B09D14FF01F
:10295000500383F31188BFF36F8FBFF34F8FFB6179
:10296000FEE7FFF767F90346002B02D17B68002BD7
:1029700001D1012300E00023002B09D14FF05003C7
:1029800083F31188BFF36F8FBFF34F8F3B62FEE776
:10299000FFF7E6FDBB6A9B6B7B627B6A002B1FD057
:1029A000B968B86A00F08CF87B6A5A1EBB6A9A63F1
:1029B000BB6A1B69002B0FD0BB6A10331846FEF7A9
:1029C0002BFF0346002B07D03C4B4FF080521A6080
:1029D000BFF34F8FBFF36F8FFFF7F0FD012369E067
:1029E0007B68002B03D1FFF7E9FD002362E0FB6A5F
:1029F000002B06D107F110031846FEF7E3FF012371
:102A0000FB62FFF7DBFDFEF7E9FBFFF7A9FDBB6A01
:102A100093F844305BB2B3F1FF3F03D1BB6A0022AD
:102A200083F84420BB6A93F845305BB2B3F1FF3FB3
:102A300003D1BB6A002283F84520FFF7BFFD3A1D92
:102A400007F1100311461846FEF7D2FF0346002B8C
:102A500023D1B86A00F0ACF80346002B17D0BB6A4C
:102A600024337A6811461846FEF76EFEB86A00F005
:102A70004DF8FEF7C1FB0346002B89D10F4B4FF0F9
:102A800080521A60BFF34F8FBFF36F8F80E7B86A31
:102A900000F03CF8FEF7B0FB7AE7B86A00F036F8D1
:102AA000FEF7AAFBB86A00F083F80346002B3FF458
:102AB0006FAF002318463037BD4680BD04ED00E0FF
:102AC00080B582B000AF786039607B681B6C002BEA
:102AD00018D07B68DA687B681B6C1A447B68DA6004
:102AE0007B68DA687B689B689A4203D37B681A68C4
:102AF0007B68DA607B68D9687B681B6C1A4638682B
:102B000000F096FE00BF0837BD4680BD80B584B09A
:102B100000AF7860FFF724FD7B6893F84530FB73C6
:102B200011E07B685B6A002B12D07B682433184667
:102B3000FEF772FE0346002B01D0FEF7BDFFFB7BC4
:102B4000013BDBB2FB7397F90F30002BE9DC00E0AF
:102B500000BF7B68FF2283F84520FFF72FFDFFF7BA
:102B6000FFFC7B6893F84430BB7311E07B681B6902
:102B7000002B12D07B6810331846FEF74DFE03463B
:102B8000002B01D0FEF798FFBB7B013BDBB2BB7390
:102B900097F90E30002BE9DC00E000BF7B68FF22D4
:102BA00083F84420FFF70AFD00BF1037BD4680BD03
:102BB00080B584B000AF7860FFF7D2FC7B689B6B78
:102BC000002B02D10123FB6001E00023FB60FFF733
:102BD000F5FCFB6818461037BD4680BD80B487B051
:102BE00000AF7860396000233B617B68002B09D11E
:102BF0004FF0500383F31188BFF36F8FBFF34F8FF4
:102C0000FB60FEE73B68002B24D000237B611EE0C5
:102C1000184A7B69DB0013445A687B689A4205D1E5
:102C20007B69DB00134A13443B6113E03B69002BD3
:102C30000AD1104A7B6952F83330002B04D17B69EA
:102C4000DB000C4A13443B617B6901337B617B6988
:102C5000072BDDD93B69002B05D03B693A681A6028
:102C60003B697A685A6000BF1C37BD465DF8047B3B
:102C7000704700BF983D002080B586B000AFF86077
:102C8000B9607A60FB687B61FFF76AFC7B6993F847
:102C900044305BB2B3F1FF3F03D17B69002283F87C
:102CA00044207B6993F845305BB2B3F1FF3F03D119
:102CB0007B69002283F84520FFF780FC7B699B6BD2
:102CC000002B06D17B6924337A68B9681846FEF771
:102CD0005FFD7869FFF71AFF00BF1837BD4680BD5A
:102CE000002103E00A4B5B584350043109480A4B6A
:102CF00042189A42F6D3094A02E0002342F8043B04
:102D0000074B9A42F9D3FFF741F9FDF7E9FD704708
:102D10001D3A0008000000202000002020000020B4
:102D2000D83D0020FEE7000080B58AB000AF786093
:102D30000023FB61FEF752FA494B1B68002B04D1BC
:102D400000F0FAF8464B01221A607B68002B13D082
:102D500008231A467B6803F00703D31A08337B6104
:102D60007B69DA437B689A4204D37A687B691344AF
:102D70007B6001E000237B607B68002B63DB7B686A
:102D8000002B60D0374B1B687A689A425BD8364B71
:102D90003B62354B1B687B6204E07B6A3B627B6A6B
:102DA0001B687B627B6A5A687B689A4203D27B6AA3
:102DB0001B68002BF1D17B6A2C4A934243D03B6ABB
:102DC0001B6808221344FB617B6A1A683B6A1A601D
:102DD0007B6A5A687B68D31A08225200934222D930
:102DE0007A6A7B6813443B617B6A5A687B68D21AB3
:102DF0003B695A607B6A7A685A603B695B68FB6032
:102E0000194BBB6102E0BB691B68BB61BB691B68F6
:102E10005A68FB689A42F6D3BB691A683B691A6024
:102E2000BB693A691A600F4B1A687B6A5B68D31AF0
:102E30000C4A13607B6A5B6843F000427B6A5A600D
:102E40007B6A00221A60FEF7D7F9FB69002B01D1DB
:102E5000FDF77AFDFB6918462837BD4680BD00BFE7
:102E6000783D00201C000020683D0020703D0020BF
:102E700080B588B000AF78607B68BB617B68002B51
:102E800051D008235B42BA691344BB61BB697B61C3
:102E90007B695B68002B09DB4FF0500383F31188DB
:102EA000BFF36F8FBFF34F8FBB60FEE77B691B687B
:102EB000002B09D04FF0500383F31188BFF36F8FBD
:102EC000BFF34F8FFB60FEE77B695B68002B2ADA5C
:102ED0007B691B68002B26D17B695B6823F000426D
:102EE0007B695A60FEF77AF97B695B683B61104B3E
:102EF000FB6102E0FB691B68FB61FB691B685A68A8
:102F00003B699A42F6D3FB691A687B691A60FB69D0
:102F10007A691A607B695A68064B1B681344054A34
:102F20001360FEF769F900BF2037BD4680BD00BFC2
:102F3000683D00201C00002080B483B000AF104B1F
:102F400023F007037B600F4A7B6813600D4B002260
:102F50005A600D4B43F6F8325A600B4B00221A6050
:102F60007B683B603B6843F6F8325A603B68064A30
:102F70001A6000BF0C37BD465DF8047B704700BF88
:102F80006F010020683D0020703D002081F000416D
:102F900002E000BF83F0004330B54FEA41044FEA3E
:102FA000430594EA050F08BF90EA020F1FBF54EAD9
:102FB000000C55EA020C7FEA645C7FEA655C00F075
:102FC000E2804FEA5454D4EB5555B8BF6D420CDD46
:102FD0002C4480EA020281EA030382EA000083EAC9
:102FE000010180EA020281EA0303362D88BF30BD69
:102FF00011F0004F4FEA01314FF4801C4CEA1131BF
:1030000002D0404261EB410113F0004F4FEA03331D
:103010004CEA133302D0524263EB430394EA050FA8
:1030200000F0A780A4F10104D5F1200E0DDB02FA17
:103030000EFC22FA05F2801841F1000103FA0EF2AB
:10304000801843FA05F359410EE0A5F120050EF171
:10305000200E012A03FA0EFC28BF4CF0020C43FAA2
:1030600005F3C01851EBE37101F0004507D54FF0AF
:10307000000EDCF1000C7EEB00006EEB0101B1F5FF
:10308000801F1BD3B1F5001F0CD349085FEA300045
:103090004FEA3C0C04F101044FEA445212F5800F50
:1030A00080F09A80BCF1004F08BF5FEA500C50F1ED
:1030B000000041EB045141EA050130BD5FEA4C0CD0
:1030C000404141EB010111F4801FA4F10104E9D159
:1030D00091F0000F04BF01460020B1FA81F308BF50
:1030E0002033A3F10B03B3F120020CDA0C3208DD1C
:1030F00002F1140CC2F10C0201FA0CF021FA02F1F7
:103100000CE002F11402D8BFC2F1200C01FA02F166
:1031100020FA0CFCDCBF41EA0C019040E41AA2BF8B
:1031200001EB0451294330BD6FEA04041F3C1CDA53
:103130000C340EDC04F11404C4F1200220FA04F073
:1031400001FA02F340EA030021FA04F345EA03011D
:1031500030BDC4F10C04C4F1200220FA02F001FADF
:1031600004F340EA0300294630BD21FA04F0294661
:1031700030BD94F0000F83F4801306BF81F48011FA
:103180000134013D4EE77FEA645C18BF7FEA655C6D
:1031900029D094EA050F08BF90EA020F05D054EA3F
:1031A000000C04BF1946104630BD91EA030F1EBF44
:1031B0000021002030BD5FEA545C05D14000494148
:1031C00028BF41F0004130BD14F580043CBF01F53B
:1031D000801130BD01F0004545F0FE4141F4700121
:1031E0004FF0000030BD7FEA645C1ABF19461046FC
:1031F0007FEA655C1CBF0B46024650EA013406BFFD
:1032000052EA033591EA030F41F4002130BD00BFBB
:1032100090F0000F04BF0021704730B54FF4806478
:1032200004F132044FF000054FF0000150E700BFF9
:1032300090F0000F04BF0021704730B54FF4806458
:1032400004F1320410F0004548BF40424FF0000145
:103250003EE700BF42004FEAE2014FEA31014FEA88
:1032600002701FBF12F07F4393F07F4F81F06051D7
:10327000704792F0000F14BF93F07F4F704730B546
:103280004FF4607401F0004521F0004120E700BFD9
:1032900050EA010208BF704730B54FF000050AE060
:1032A00050EA010208BF704730B511F0004502D561
:1032B000404261EB41014FF4806404F132045FEA63
:1032C000915C3FF4DCAE4FF003025FEADC0C18BF08
:1032D00003325FEADC0C18BF033202EBDC02C2F1FE
:1032E000200300FA03FC20FA02F001FA03FE40EA90
:1032F0000E0021FA02F11444C1E600BF70B54FF090
:10330000FF0C4CF4E06C1CEA11541DBF1CEA135571
:1033100094EA0C0F95EA0C0F00F0DEF82C4481EAD9
:10332000030621EA4C5123EA4C5350EA013518BFF9
:1033300052EA033541F4801143F4801338D0A0FBE6
:1033400002CE4FF00005E1FB02E506F00042E0FB93
:1033500003E54FF00006E1FB03569CF0000F18BF99
:103360004EF0010EA4F1FF04B6F5007F64F5407441
:1033700004D25FEA4E0E6D4146EB060642EAC621D4
:1033800041EA55514FEAC52040EA5E504FEACE2E41
:10339000B4F1FD0C88BFBCF5E06F1ED8BEF1004F44
:1033A00008BF5FEA500E50F1000041EB045170BDC0
:1033B00006F0004646EA010140EA020081EA030104
:1033C000B4EB5C04C2BFD4EB0C0541EA045170BD00
:1033D00041F480114FF0000E013C00F3AB8014F17A
:1033E000360FDEBF002001F0004170BDC4F10004C3
:1033F000203C35DA0C341BDC04F11404C4F1200544
:1034000000FA05F320FA04F001FA05F240EA02009E
:1034100001F0004221F0004110EBD37021FA04F6D4
:1034200042EB06015EEA430E08BF20EAD37070BD8E
:10343000C4F10C04C4F1200500FA04F320FA05F0ED
:1034400001FA04F240EA020001F0004110EBD370EF
:1034500041F100015EEA430E08BF20EAD37070BD5F
:10346000C4F1200500FA05F24EEA020E20FA04F338
:1034700001FA05F243EA020321FA04F001F00041E7
:1034800021FA04F220EA020000EBD3705EEA430E58
:1034900008BF20EAD37070BD94F0000F0FD101F087
:1034A0000046400041EB010111F4801F08BF013CC0
:1034B000F7D041EA060195F0000F18BF704703F0FE
:1034C0000046520043EB030313F4801F08BF013D85
:1034D000F7D043EA0603704794EA0C0F0CEA135541
:1034E00018BF95EA0C0F0CD050EA410618BF52EAFB
:1034F0004306D1D181EA030101F000414FF0000001
:1035000070BD50EA410606BF1046194652EA43060E
:1035100019D094EA0C0F02D150EA013613D195EA82
:103520000C0F05D152EA03361CBF104619460AD1CA
:1035300081EA030101F0004141F0FE4141F47001D4
:103540004FF0000070BD41F0FE4141F4780170BDC4
:1035500070B54FF0FF0C4CF4E06C1CEA11541DBF29
:103560001CEA135594EA0C0F95EA0C0F00F0A7F82B
:10357000A4EB050481EA030E52EA03354FEA013158
:1035800000F088804FEA03334FF0805545EA13136B
:1035900043EA12634FEA022245EA111545EA106533
:1035A0004FEA00260EF000419D4208BF964244F1CA
:1035B000FD0404F5407402D25B084FEA3202B61AE9
:1035C00065EB03055B084FEA32024FF480104FF4BD
:1035D000002CB6EB020E75EB030E22BFB61A754631
:1035E00040EA0C005B084FEA3202B6EB020E75EBC4
:1035F000030E22BFB61A754640EA5C005B084FEA2C
:103600003202B6EB020E75EB030E22BFB61A7546F8
:1036100040EA9C005B084FEA3202B6EB020E75EB03
:10362000030E22BFB61A754640EADC0055EA060EC4
:1036300018D04FEA051545EA16754FEA06164FEA07
:10364000C30343EA52734FEAC2025FEA1C1CC0D1B3
:1036500011F4801F0BD141EA00014FF000004FF040
:10366000004CB6E711F4801F04BF01430020B4F101
:10367000FD0C88BFBCF5E06F3FF6AFAEB5EB030CB9
:1036800004BFB6EB020C5FEA500C50F1000041EBB6
:10369000045170BD0EF0004E4EEA113114EB5C0483
:1036A000C2BFD4EB0C0541EA045170BD41F4801156
:1036B0004FF0000E013C90E645EA060E8DE60CEA5E
:1036C000135594EA0C0F08BF95EA0C0F3FF43BAF7B
:1036D00094EA0C0F0AD150EA01347FF434AF95EA32
:1036E0000C0F7FF425AF104619462CE795EA0C0F16
:1036F00006D152EA03353FF4FDAE1046194622E7E3
:1037000050EA410618BF52EA43067FF4C5AE50EABC
:1037100041047FF40DAF52EA43057FF4EBAE12E7AC
:103720004FF0FF3C06E000BF4FF0010C02E000BF8D
:103730004FF0010C4DF804CD4FEA410C7FEA6C5C70
:103740004FEA430C18BF7FEA6C5C1BD001B050EA13
:10375000410C0CBF52EA430C91EA030F02BF90EAFE
:10376000020F0020704710F1000F91EA030F58BFBD
:10377000994208BF90422CBFD8176FEAE37040F01F
:10378000010070474FEA410C7FEA6C5C02D150EABD
:10379000013C07D14FEA430C7FEA6C5CD6D152EA78
:1037A000033CD3D05DF8040B704700BF844610463D
:1037B00062468C461946634600E000BF01B5FFF73C
:1037C000B7FF002848BF10F1000F01BD4DF808ED0C
:1037D000FFF7F4FF0CBF012000205DF808FB00BFDD
:1037E0004DF808EDFFF7EAFF34BF012000205DF837
:1037F00008FB00BF4DF808EDFFF7E0FF94BF012084
:1038000000205DF808FB00BF4DF808EDFFF7CEFF84
:1038100094BF012000205DF808FB00BF4DF808EDC3
:10382000FFF7C4FF34BF012000205DF808FB00BF94
:10383000844641EA000313F003036DD1403A41D3BB
:1038400051F8043B40F8043B51F8043B40F8043B7A
:1038500051F8043B40F8043B51F8043B40F8043B6A
:1038600051F8043B40F8043B51F8043B40F8043B5A
:1038700051F8043B40F8043B51F8043B40F8043B4A
:1038800051F8043B40F8043B51F8043B40F8043B3A
:1038900051F8043B40F8043B51F8043B40F8043B2A
:1038A00051F8043B40F8043B51F8043B40F8043B1A
:1038B00051F8043B40F8043B51F8043B40F8043B0A
:1038C000403ABDD2303211D351F8043B40F8043BAA
:1038D00051F8043B40F8043B51F8043B40F8043BEA
:1038E00051F8043B40F8043B103AEDD20C3205D3BA
:1038F00051F8043B40F8043B043AF9D2043208D0B2
:10390000D2071CBF11F8013B00F8013B01D30B8823
:1039100003806046704700BF082A13D38B078DD001
:1039200010F003038AD0C3F10403D21ADB071CBFD3
:1039300011F8013B00F8013B80D331F8023B20F83D
:10394000023B7BE7043AD9D3013A11F8013B00F876
:10395000013BF9D20B7803704B7843708B788370FE
:103960006046704770B4840746D0541E002A41D088
:10397000CDB2034602E0621EE4B3144603F8015BD5
:103980009A07F8D1032C2ED9CDB245EA05250F2C84
:1039900045EA054519D903F110022646103E0F2EBF
:1039A00042F8105C42F80C5C42F8085C42F8045C97
:1039B00002F11002F2D8A4F1100222F00F0204F07A
:1039C0000F041032032C13440DD91E462246043A2C
:1039D000032A46F8045BFAD8221F22F003020432BD
:1039E000134404F003042CB1C9B21C4403F8011BB6
:1039F000A342FBD170BC704714460346C2E700BF28
:103A000047726F7700000000546D72205376630098
:0D3A1000546D72510000000049444C450007
:103A1D000400000000A24A040000000000000000A5
:103A2D000102030406070809AAAAAAAAF83B000086
:0400000508000000EF
:00000001FF
