:020000040800F2
:1000000000A00020F10E0008350F0008350F000891
:10001000350F0008350F0008350F000800000000FC
:10002000000000000000000000000000350F000884
:10003000350F000800000000350F0008350F0008DC
:10004000350F0008350F0008350F0008350F000880
:10005000350F0008350F0008350F0008350F000870
:10006000350F0008350F0008350F0008350F000860
:10007000350F0008350F0008350F0008350F000850
:10008000350F0008350F0008350F0008350F000840
:10009000350F0008350F0008350F0008350F000830
:1000A000350F0008350F0008350F0008350F000820
:1000B000350F0008350F0008350F0008350F000810
:1000C000350F0008350F0008350F0008350F000800
:1000D000350F0008350F0008350F0008350F0008F0
:1000E000350F0008350F0008350F0008350F0008E0
:1000F000350F0008350F0008350F0008350F0008D0
:10010000000000000000000000000000350F0008A3
:10011000350F0008350F0008350F0008350F0008AF
:10012000350F0008350F0008350F0008350F00089F
:10013000350F0008350F0008000000000000000027
:10014000350F0008350F0008350F000800000000CB
:10015000000000000000000000000000000000009F
:100160000000000000000000350F0008350F0008F7
:10017000350F000800000000000000000000000033
:1001800000000000350F000880B485B000AF786033
:100190000023FB607B681B0FFB60FB68002B06D015
:1001A0000B4A0B4BDB6A23F47853D36205E0084A11
:1001B000074BDB6A23F4F873D3620549044BDA6A10
:1001C0007B681343CB6200BF1437BD4680BC7047C9
:1001D0000010024080B483B000AF78600B46FB7023
:1001E000FB78002B06D00949084B5A697B681343FA
:1001F0004B6106E00549054B5A697B68DB431340B8
:100200004B6100BF0C37BD4680BC704700100240F8
:1002100080B483B000AF78600B46FB70FB78002B96
:1002200006D00949084B9A697B6813438B6106E045
:100230000549054B9A697B68DB4313408B6100BF1E
:100240000C37BD4680BC70470010024080B485B0BA
:1002500000AF786039600023FB607B68DB68FB607F
:10026000FA68194B1340FB603B681A683B685B688F
:100270001A433B689B681A433B68DB681A433B6838
:100280001B691A433B685B691A433B689B691343CC
:10029000FA681343FB607B68FA68DA607B681B6B63
:1002A000FB60FB6823F00F03FB603B681B7F013B97
:1002B0001A46FB681343FB607B68FA681A6300BF49
:1002C0001437BD4680BC704707C0FFFD80B485B0C1
:1002D00000AF786039600023FB607B68B3F1A04F0A
:1002E00003D07B681C4A934207D11C4B9B68FB6080
:1002F000FA681B4B1340FB6006E01A4B9B68FB60DF
:10030000FA68174B1340FB603B681A683B685B68F0
:100310001A433B689B681A433B68DB681B031A431C
:100320003B681B7C1B021343FA681343FB607B682A
:10033000B3F1A04F03D07B68074A934203D1074A29
:10034000FB68936002E0074AFB68936000BF1437C4
:10035000BD4680BC704700BF000100500003005044
:10036000E010FCFF0007005080B483B000AF78605D
:100370000B46FB70FB78002B06D07B689B6843F034
:1003800001027B689A6005E07B689B6843F002028B
:100390007B689A6000BF0C37BD4680BC704700BFC9
:1003A00080B485B000AF7860084611461A4603460F
:1003B000FB700B46BB7013467B700023FB60002371
:1003C000BB60BB78042B21D87B681B6BFB60BA78C1
:1003D00013465B0013445B001A461F239340BB6027
:1003E000BB68DB43FA681340FB60F978BA781346C0
:1003F0005B0013445B0001FA03F3BB60FA68BB685F
:100400001343FB607B68FA681A6374E0BB78092BBE
:1004100023D87B685B6BFB60BB785A1F13465B007D
:1004200013445B001A461F239340BB60BB68DB4349
:10043000FA681340FB60F978BB785A1F13465B00DB
:1004400013445B0001FA03F3BB60FA68BB68134313
:10045000FB607B68FA685A634DE0BB780E2B25D8A9
:100460007B689B6BFB60BB78A3F10A0213465B00C1
:1004700013445B001A461F239340BB60BB68DB43F9
:10048000FA681340FB60F978BB78A3F10A021346BF
:100490005B0013445B0001FA03F3BB60FA68BB68BE
:1004A0001343FB607B68FA689A6324E07B68DB6B2C
:1004B000FB60BB78A3F10F0213465B0013445B00A3
:1004C0001A461F239340BB60BB68DB43FA681340A6
:1004D000FB60F978BB78A3F10F0213465B0013446D
:1004E0005B0001FA03F3BB60FA68BB681343FB606F
:1004F0007B68FA68DA63FB78092B23D97B689B69F0
:10050000FB60FB78A3F10A0213465B001344072249
:1005100002FA03F3BB607B689A69BB68DB431A404D
:100520007B689A617B6899697878FB78A3F10A0205
:1005300013465B00134400FA03F341EA03027B68AD
:100540009A611FE07B685B69FB60FB785A1E13466B
:100550005B001344382202FA03F3BB607B685A69DC
:10056000BB68DB431A407B685A617B6859697878BD
:10057000FA7813465B00134400FA03F341EA0302DE
:100580007B685A6100BF1437BD4680BC704700BF0E
:1005900080B483B000AF78607B689B6843F004024E
:1005A0007B689A6000BF0C37BD4680BC704700BFB7
:1005B00080B483B000AF78607B681B6C9BB2184638
:1005C0000C37BD4680BC704780B483B000AF786004
:1005D0000B46FB70FB78002B06D07B68DB6843F092
:1005E00001027B68DA6005E07B68DB6823F00102CA
:1005F0007B68DA6000BF0C37BD4680BC704700BF27
:1006000080B483B000AF786039607B68DB6823F02A
:1006100002027B68DA607B68DA683B681A437B68B1
:10062000DA6000BF0C37BD4680BC704780B487B02D
:1006300000AF7860396000237B6100233B610023B9
:10064000FB6000237B617EE001227B6902FA03F3F9
:100650003B613B681A683B691340FB60FA683B6981
:100660009A426DD13B681B79012B03D03B681B7903
:10067000022B36D17B689A687B695B00032101FA03
:1006800003F3DB431A407B689A607B689A683B6897
:100690005B7919467B695B0001FA03F31A437B68B7
:1006A0009A607B689B889AB27B699BB2012101FAB0
:1006B00003F39BB2DB439BB213409AB27B689A80F0
:1006C0007B689B889BB21AB23B689B7919467B6911
:1006D0009BB201FA03F31BB213431BB29AB27B68BD
:1006E0009A807B681A687B695B00032101FA03F337
:1006F000DB431A407B681A607B681A683B681B7989
:1007000019467B695B0001FA03F31A437B681A60A0
:100710007B68DA687B699BB25B00032101FA03F313
:10072000DB431A407B68DA607B68DA683B68DB7918
:1007300019467B695B0001FA03F31A437B68DA60B0
:100740007B6901337B617B690F2B7FF67DAF00BF37
:100750001C37BD4680BC704780B485B000AF786060
:100760000B467B8013467B700023FB600023BB603D
:100770007A787B8803F007039B0002FA03F3FB609F
:100780007B88DB089BB218467B88DB089BB21A4645
:100790007B68083253F822207B8803F007039B0014
:1007A0000F2101FA03F3DB4302EA03017B6800F146
:1007B000080243F822107B88DB089BB21A467B684C
:1007C000083253F82220FB681343BB607B88DB08A8
:1007D0009BB21A467B680832B96843F8221000BF02
:1007E0001437BD4680BC704780B582B000AF034669
:1007F000FB71F979032301224FF0A040FFF7D0FDF0
:100800004FF0A040FFF7C4FE4FF0A040FFF7D0FE2E
:10081000034618460837BD4680BD00BF80B500AF0F
:1008200001214FF40030FFF7D5FC01214FF40010F7
:10083000FFF7D0FC144B4FF400721A60124B0322E6
:100840001A7111494FF09040FFF7F0FE0E4B4FF434
:1008500040721A600C4B02221A710B4B01225A7122
:10086000094B00229A71022209210848FFF774FF00
:10087000022208210548FFF76FFF03490348FFF7ED
:10088000D5FE00BF80BD00BF200000200010004842
:1008900080B500AF01214FF40060FFF7B9FC0C4BAD
:1008A00024221A800A4B40F6FF725A60084B00223D
:1008B0005A800749074800F0D7F90121054800F0A0
:1008C00049FA0121034800F0F7FA00BF80BD00BFDC
:1008D00000000020002C014080B500AF0F4B00222B
:1008E0009A600E4B60221A600C4B01229A800B4BCF
:1008F0000422DA80094B00229A81084B0022DA8117
:10090000064B4FF480721A82044B4FF400725A82E5
:100910000249034800F03EFA00BF80BD0C000020F1
:10092000002C014080B58EB000AF01214FF0805007
:10093000FFF750FC4FF4A870FFF726FC00237B6004
:100940000023BB604FF40043FB6002233B610023A4
:100950003B753B1D19464FF0A040FFF7B7FC012146
:100960004FF0A040FFF730FE02214FF0A040FFF70C
:1009700047FE4FF40053BB610023FB6100233B6241
:1009800000237B620023BB620023FB6200233B63E6
:10099000012387F8343007F1180319464FF0A040BF
:1009A000FFF754FC01214FF0A040FFF7DDFC00BF32
:1009B0003837BD4680BD00BF80B58CB000AF012187
:1009C0000120FFF707FC154B7B60154BBB60002334
:1009D000FB604FF480733B8200237B610023BB618B
:1009E0004FF48073FB614FF480633B6220237B6292
:1009F0004FF40053BB620023FB623B1D19460948BC
:100A000000F024F80121074800F060F801210648B1
:100A100000F05CF800BF3037BD4680BD400000509C
:100A2000342C0140080002401C00024080B500AF99
:100A3000FFF7F4FEFFF776FFFFF72AFFFFF74CFF03
:100A4000FFF7BAFF0120FFF7CFFEFEE780B485B0C5
:100A500000AF786039600023FB607B681B68FB6037
:100A6000FB6823F4FF4323F07003FB603B689A6844
:100A70003B681B6A1A433B681B691A433B685B6906
:100A80001A433B689B691A433B68DB691A433B681E
:100A90005B6A1A433B689B6A1343FA681343FB6023
:100AA0007B68FA681A603B689B891A467B685A60C3
:100AB0003B681A687B689A603B685A687B68DA60B2
:100AC00000BF1437BD4680BC704700BF80B483B000
:100AD00000AF78600B46FB70FB78002B06D07B687C
:100AE0001B6843F001027B681A6006E07B681A68A5
:100AF0004FF6FE7313407A68136000BF0C37BD4693
:100B000080BC704780B500AF1B4A1B4B1B6843F08D
:100B1000010313601849184B5A68184B13404B6077
:100B2000154A154B1B6823F0847323F4803313603C
:100B3000114A114B1B6823F4802313600E4A0E4B9D
:100B40005B6823F4FE0353600B4A0B4BDB6A23F014
:100B50000F03D3620849084B1A6B094B13400B6310
:100B6000054B00229A6000F00FF8064B4FF0006230
:100B70009A6000BF80BD00BF001002400CC07FF82B
:100B8000CCFC00FF00ED00E080B483B000AF002398
:100B90007B6000233B60324A314B1B6843F4803357
:100BA00013602F4B1B6803F400333B607B680133F9
:100BB0007B603B68002B03D17B68B3F5A06FF0D15D
:100BC000274B1B6803F40033002B02D001233B604A
:100BD00001E000233B603B68012B3CD1214B1222FA
:100BE0001A601F4A1E4B5B6853601D4A1C4B5B68B2
:100BF00053601B4A1A4B5B6843F480635360184A86
:100C0000174B5B6823F47C135360154A144B5B68E5
:100C100043F4E8135360124A114B1B6843F080738E
:100C2000136000BF0E4B1B6803F00073002BF9D05C
:100C30000B4A0B4B5B6823F003035360084A084BD5
:100C40005B6843F00203536000BF054B5B6803F031
:100C50000C03082BF9D100BF0C37BD4680BC704790
:100C6000001002400020024080B485B000AF7860E0
:100C700039600023FB817B681B88FB817B682C4AE1
:100C800093420FD07B682B4A93420BD07B68B3F121
:100C9000804F07D07B68284A934203D07B68274A5D
:100CA000934208D1FB8923F07003FB813B685A888B
:100CB000FB891343FB817B68214A93420CD07B68FC
:100CC000204A934208D0FB8923F44073FB813B68A0
:100CD0001A89FB891343FB817B68FA891A803B6878
:100CE0005A687B68DA623B681A887B681A857B6879
:100CF0000F4A93420FD07B680E4A93420BD07B6819
:100D0000114A934207D07B68104A934203D07B6814
:100D10000F4A934204D13B689B7A9AB27B681A8649
:100D20007B6801225A6100BF1437BD4680BC704702
:100D3000002C014000340140000400400008004045
:100D400000100040001400400040014000440140F9
:100D50000048014080B483B000AF78600B46FB7060
:100D6000FB78002B08D07B681B889BB243F0010303
:100D70009AB27B681A8007E07B681B889BB223F0DD
:100D800001039AB27B681A8000BF0C37BD4680BC55
:100D9000704700BF80B487B000AF7860396000232F
:100DA000FB6000237B6100233B617B681B6A23F0AF
:100DB00001027B681A627B681B6A7B617B685B68E7
:100DC0003B617B689B69FB60FB6823F4803323F005
:100DD0007003FB60FB6823F00303FB603B681B6848
:100DE000FA681343FB607B6923F002037B613B6875
:100DF0009B891A467B6913437B613B689B881A4633
:100E00007B6913437B617B68264A93420FD07B68E2
:100E1000254A93420BD07B68244A934207D07B68D3
:100E2000234A934203D07B68224A934227D17B69AD
:100E300023F008037B613B68DB891A467B69134317
:100E40007B617B6923F004037B613B68DB881A4686
:100E50007B6913437B613B6923F480733B613B698E
:100E600023F400733B613B681B8A1A463B691343BA
:100E70003B613B685B8A1A463B6913433B617B6875
:100E80003A695A607B68FA689A613B689A687B683D
:100E90005A637B687A691A6200BF1C37BD4680BC02
:100EA000704700BF002C0140003401400040014069
:100EB000004401400048014080B483B000AF786036
:100EC0000B46FB70FB78002B06D07B685B6C43F411
:100ED00000427B685A6405E07B685B6CC3F30E02DA
:100EE0007B685A6400BF0C37BD4680BC704700BFAA
:100EF000002103E00A4B5B584350043109480A4B78
:100F000042189A42F6D3094A02E0002342F8043B11
:100F1000074B9A42F9D3FFF7F5FDFFF787FD7047BE
:100F2000360F000800000020000000200000002014
:060F300028000020FEE78E
:0400000508000000EF
:00000001FF
