:020000040800F2
:1000000000A00020C5090008090A0008090A000824
:10001000090A0008090A0008090A0008000000008F
:10002000000000000000000000000000090A0008B5
:10003000090A000800000000090A00089D070008DE
:10004000090A0008090A0008090A0008090A000844
:10005000090A0008090A0008090A0008090A000834
:10006000090A0008090A0008090A0008090A000824
:10007000090A0008090A0008090A0008090A000814
:10008000090A0008090A0008090A0008090A000804
:10009000090A0008090A0008090A0008090A0008F4
:1000A000090A0008090A0008090A0008090A0008E4
:1000B000090A0008090A0008090A0008090A0008D4
:1000C000090A0008090A0008090A0008090A0008C4
:1000D000090A0008090A0008090A0008090A0008B4
:1000E000090A0008090A0008090A0008090A0008A4
:1000F000090A0008090A0008090A0008090A000894
:10010000000000000000000000000000090A0008D4
:10011000090A0008090A0008090A0008090A000873
:10012000090A0008090A0008090A0008090A000863
:10013000090A0008090A0008000000000000000089
:10014000090A0008090A0008090A0008000000005E
:10015000000000000000000000000000000000009F
:100160000000000000000000090A0008090A000859
:10017000090A000800000000000000000000000064
:1001800000000000090A000880B48BB000AF78605E
:1001900000233B620023FB610023BB6100237B61E2
:1001A00000233B6100237B620023FB600023BB60D4
:1001B000924B5B6803F00C033B623B6A042B07D055
:1001C000082B09D0002B30D17B688D4A1A6030E0B3
:1001D0007B688B4A1A602CE0884B5B6803F47013D1
:1001E000FB61864B5B6803F48033BB61FB699B0C4E
:1001F0000233FB61BB69002B05D1FB69814A02FB1D
:1002000003F37B620DE07D4BDB6A03F00F030133E8
:100210007B617B4A7B69B2FBF3F3FA6902FB03F370
:100220007B627B687A6A1A6003E07B68744A1A60B2
:1002300000BF724B5B6803F0F0033B623B6A1B0933
:100240003B62714A3B6A13441B78DBB2BB607B683C
:100250001A68BB68DA407B685A60684B5B6803F4D5
:10026000E0633B623B6A1B0A3B62674A3B6A13449A
:100270001B78DBB23B617B685A683B69DA407B687C
:100280009A605E4B5B6803F460533B623B6ADB0A37
:100290003B625D4A3B6A13441B78DBB2FB607B68C0
:1002A0005A68FB68DA407B68DA60544BDB6A03F417
:1002B000F8733B623B6A1B093B62544A3B6A32F863
:1002C00013309BB23B613B6903F01003002B06D057
:1002D0007A6A3B69B2FBF3F27B681A6103E07B68E0
:1002E0001A687B681A61454BDB6A03F478533B62FA
:1002F0003B6A5B0A3B62454A3B6A32F813309BB269
:100300003B613B6903F01003002B06D07A6A3B691E
:10031000B2FBF3F27B685A6103E07B681A687B6882
:100320005A61364B1B6B03F01003002B03D17B6823
:10033000334A9A6103E07B681A687B689A612F4BA5
:100340001B6B03F02003002B03D17B682C4ADA617E
:1003500003E07B681A687B68DA61284B1B6B03F447
:100360008073002B0DD07B681A687B6A9A4208D193
:10037000FA68BB689A4204D17B6A5A007B681A62A9
:1003800003E07B68DA687B681A621C4B1B6B03F422
:100390000073002B0DD07B681A687B6A9A4208D1E3
:1003A000FA68BB689A4204D17B6A5A007B685A6239
:1003B00003E07B68DA687B685A62104B1B6B03F0C2
:1003C0000303002B04D17B68DA687B689A6228E01B
:1003D0000A4B1B6B03F00303012B04D17B681A68E3
:1003E0007B689A621DE0054B1B6B03F00303022B35
:1003F0000ED17B684FF400429A6212E00010024076
:1004000000127A0000093D000000002010000020CA
:10041000604B1B6B03F00303032B02D17B685E4A26
:100420009A625C4B1B6B03F44033002B04D17B6856
:100430009A687B68DA6221E0564B1B6B03F4403309
:10044000B3F5803F04D17B681A687B68DA6215E0F7
:10045000504B1B6B03F44033B3F5003F04D17B6872
:100460004FF40042DA6209E04A4B1B6B03F440335D
:10047000B3F5403F02D17B68474ADA62454B1B6BBC
:1004800003F44023002B04D17B689A687B681A63CD
:1004900021E0404B1B6B03F44023B3F5802F04D1C4
:1004A0007B681A687B681A6315E03A4B1B6B03F490
:1004B0004023B3F5002F04D17B684FF400421A6348
:1004C00009E0344B1B6B03F44023B3F5402F02D1FA
:1004D0007B68314A1A632F4B1B6B03F44013002BCC
:1004E00004D17B689A687B685A6321E0294B1B6BB7
:1004F00003F44013B3F5801F04D17B681A687B684E
:100500005A6315E0234B1B6B03F44013B3F5001F34
:1005100004D17B684FF400425A6309E01D4B1B6B0A
:1005200003F44013B3F5401F02D17B681A4A5A63A3
:10053000184B1B6B03F44003002B04D17B689A68B3
:100540007B689A6321E0134B1B6B03F44003B3F504
:10055000800F04D17B681A687B689A6315E00D4BA5
:100560001B6B03F44003B3F5000F04D17B684FF419
:1005700000429A6309E0074B1B6B03F44003B3F599
:10058000400F02D17B68044A9A6300BF2C37BD46F6
:1005900080BC70470010024000127A0080B483B023
:1005A00000AF78600B46FB70FB78002B06D0094942
:1005B000084B5A697B6813434B6106E00549054BBC
:1005C0005A697B68DB4313404B6100BF0C37BD4663
:1005D00080BC70470010024080B487B000AF7860E4
:1005E000396000237B6100233B610023FB60002313
:1005F0007B617EE001227B6902FA03F33B613B6889
:100600001A683B691340FB60FA683B699A426DD1F6
:100610003B681B79012B03D03B681B79022B36D139
:100620007B689A687B695B00032101FA03F3DB4373
:100630001A407B689A607B689A683B685B791946C8
:100640007B695B0001FA03F31A437B689A607B685D
:100650009B889AB27B699BB2012101FA03F39BB29A
:10066000DB439BB213409AB27B689A807B689B887D
:100670009BB21AB23B689B7919467B699BB201FA1F
:1006800003F31BB213431BB29AB27B689A807B6858
:100690001A687B695B00032101FA03F3DB431A400C
:1006A0007B681A607B681A683B681B7919467B690E
:1006B0005B0001FA03F31A437B681A607B68DA680F
:1006C0007B699BB25B00032101FA03F3DB431A4011
:1006D0007B68DA607B68DA683B68DB7919467B699E
:1006E0005B0001FA03F31A437B68DA607B6901332C
:1006F0007B617B690F2B7FF67DAF00BF1C37BD464A
:1007000080BC704780B483B000AF03463960FB7192
:1007100097F90730002B0BDA0D49FB7903F00F0333
:10072000043B3A68D2B21201D2B20B441A7609E005
:10073000084997F907303A68D2B21201D2B20B4495
:1007400083F8002300BF0C37BD4680BC704700BF54
:1007500000ED00E000E100E080B582B000AF78601D
:100760007B68B3F1807F01D3012311E00A4A7B68E3
:1007700023F07F43013B53600F214FF0FF30FFF721
:10078000C1FF054B00229A60034B07221A60002329
:1007900018460837BD4680BD10E000E080B400AFC9
:1007A000064B1B680133054A1360054B1B68013378
:1007B000034A136000BFBD4680BC70472C00002078
:1007C0003000002080B592B000AF07F10C0318464E
:1007D000FFF7DAFC3B691E4AA2FB03239B0918467C
:1007E000FFF7BAFF01214FF40010FFF7D7FE4FF4D7
:1007F00040737B6001233B7202237B720023BB7238
:100800000023FB723B1D19461248FFF7E5FE124B11
:100810001B68B3F52F7F0AD90E4A0E4B9B8A9BB2F9
:1008200083F480739BB293820B4B00221A600B4BB4
:100830001B68C82BEBD9074A064B9B8A9BB283F4F3
:1008400000739BB29382054B00221A60DFE700BF62
:10085000D34D6210001000482C0000203000002012
:1008600080B500AF1B4A1B4B1B6843F001031360AC
:100870001849184B5A68184B13404B60154A154BD2
:100880001B6823F0847323F480331360114A114BE7
:100890001B6823F4802313600E4A0E4B5B6823F41D
:1008A000FE0353600B4A0B4BDB6A23F00F03D3624A
:1008B0000849084B1A6B094B13400B63054B002288
:1008C0009A6000F00FF8064B4FF000629A6000BF8C
:1008D00080BD00BF001002400CC07FF8CCFC00FFC0
:1008E00000ED00E080B483B000AF00237B60002304
:1008F0003B60324A314B1B6843F4803313602F4B0B
:100900001B6803F400333B607B6801337B603B680A
:10091000002B03D17B68B3F5A06FF0D1274B1B6888
:1009200003F40033002B02D001233B6001E00023DD
:100930003B603B68012B3CD1214B12221A601F4ABD
:100940001E4B5B6853601D4A1C4B5B6853601B4A1F
:100950001A4B5B6843F480635360184A174B5B681B
:1009600023F47C135360154A144B5B6843F4E8137B
:100970005360124A114B1B6843F08073136000BF31
:100980000E4B1B6803F00073002BF9D00B4A0B4B86
:100990005B6823F003035360084A084B5B6843F02D
:1009A0000203536000BF054B5B6803F00C03082B88
:1009B000F9D100BF0C37BD4680BC70470010024023
:1009C00000200240002103E00A4B5B5843500431F1
:1009D00009480A4B42189A42F6D3094A02E000231A
:1009E00042F8043B074B9A42F9D3FFF739FFFFF770
:1009F000E9FE70470A0A0008000000202C000020D1
:0A0A00002C00002034000020FEE767
:100A0A0000000000010203040102030406070809AA
:100A1A000000010002000400060008000A000C00A1
:0C0A2A00100020004000800000010000CF
:0400000508000000EF
:00000001FF
