:020000040800F2
:1000000000A000209D0C0008E10C0008E10C000895
:10001000E10C0008E10C0008E10C00080000000001
:10002000000000000000000000000000E10C0008DB
:10003000E10C000800000000E10C0008E10C0008E1
:10004000E10C0008E10C0008E10C0008E10C0008DC
:10005000E10C0008E10C0008E10C0008E10C0008CC
:10006000E10C0008E10C0008E10C0008E10C0008BC
:10007000E10C0008E10C0008E10C0008E10C0008AC
:10008000E10C0008E10C0008E10C0008E10C00089C
:10009000E10C0008E10C0008E10C0008E10C00088C
:1000A000E10C0008E10C0008E10C0008E10C00087C
:1000B000E10C0008E10C0008E10C0008E10C00086C
:1000C000E10C0008E10C0008E10C0008E10C00085C
:1000D000E10C0008E10C0008090A0008E10C000826
:1000E000E10C0008E10C0008E10C0008E10C00083C
:1000F000E10C0008E10C0008E10C0008E10C00082C
:10010000000000000000000000000000E10C0008FA
:10011000E10C0008E10C0008E10C0008E10C00080B
:10012000E10C0008E10C0008E10C0008E10C0008FB
:10013000E10C0008E10C00080000000000000000D5
:10014000E10C0008E10C0008E10C000800000000D0
:10015000000000000000000000000000000000009F
:100160000000000000000000E10C0008E10C0008A5
:10017000E10C00080000000000000000000000008A
:1001800000000000E10C000880B48BB000AF786084
:1001900000233B620023FB610023BB6100237B61E2
:1001A00000233B6100237B620023FB600023BB60D4
:1001B000924B5B6803F00C033B623B6A042B07D055
:1001C000082B09D0002B30D17B688D4A1A6030E0B3
:1001D0007B688B4A1A602CE0884B5B6803F47013D1
:1001E000FB61864B5B6803F48033BB61FB699B0C4E
:1001F0000233FB61BB69002B05D1FB69814A02FB1D
:1002000003F37B620DE07D4BDB6A03F00F030133E8
:100210007B617B4A7B69B2FBF3F3FA6902FB03F370
:100220007B627B687A6A1A6003E07B68744A1A60B2
:1002300000BF724B5B6803F0F0033B623B6A1B0933
:100240003B62714A3B6A13441B78DBB2BB607B683C
:100250001A68BB68DA407B685A60684B5B6803F4D5
:10026000E0633B623B6A1B0A3B62674A3B6A13449A
:100270001B78DBB23B617B685A683B69DA407B687C
:100280009A605E4B5B6803F460533B623B6ADB0A37
:100290003B625D4A3B6A13441B78DBB2FB607B68C0
:1002A0005A68FB68DA407B68DA60544BDB6A03F417
:1002B000F8733B623B6A1B093B62544A3B6A32F863
:1002C00013309BB23B613B6903F01003002B06D057
:1002D0007A6A3B69B2FBF3F27B681A6103E07B68E0
:1002E0001A687B681A61454BDB6A03F478533B62FA
:1002F0003B6A5B0A3B62454A3B6A32F813309BB269
:100300003B613B6903F01003002B06D07A6A3B691E
:10031000B2FBF3F27B685A6103E07B681A687B6882
:100320005A61364B1B6B03F01003002B03D17B6823
:10033000334A9A6103E07B681A687B689A612F4BA5
:100340001B6B03F02003002B03D17B682C4ADA617E
:1003500003E07B681A687B68DA61284B1B6B03F447
:100360008073002B0DD07B681A687B6A9A4208D193
:10037000FA68BB689A4204D17B6A5A007B681A62A9
:1003800003E07B68DA687B681A621C4B1B6B03F422
:100390000073002B0DD07B681A687B6A9A4208D1E3
:1003A000FA68BB689A4204D17B6A5A007B685A6239
:1003B00003E07B68DA687B685A62104B1B6B03F0C2
:1003C0000303002B04D17B68DA687B689A6228E01B
:1003D0000A4B1B6B03F00303012B04D17B681A68E3
:1003E0007B689A621DE0054B1B6B03F00303022B35
:1003F0000ED17B684FF400429A6212E00010024076
:1004000000127A0000093D000000002010000020CA
:10041000604B1B6B03F00303032B02D17B685E4A26
:100420009A625C4B1B6B03F44033002B04D17B6856
:100430009A687B68DA6221E0564B1B6B03F4403309
:10044000B3F5803F04D17B681A687B68DA6215E0F7
:10045000504B1B6B03F44033B3F5003F04D17B6872
:100460004FF40042DA6209E04A4B1B6B03F440335D
:10047000B3F5403F02D17B68474ADA62454B1B6BBC
:1004800003F44023002B04D17B689A687B681A63CD
:1004900021E0404B1B6B03F44023B3F5802F04D1C4
:1004A0007B681A687B681A6315E03A4B1B6B03F490
:1004B0004023B3F5002F04D17B684FF400421A6348
:1004C00009E0344B1B6B03F44023B3F5402F02D1FA
:1004D0007B68314A1A632F4B1B6B03F44013002BCC
:1004E00004D17B689A687B685A6321E0294B1B6BB7
:1004F00003F44013B3F5801F04D17B681A687B684E
:100500005A6315E0234B1B6B03F44013B3F5001F34
:1005100004D17B684FF400425A6309E01D4B1B6B0A
:1005200003F44013B3F5401F02D17B681A4A5A63A3
:10053000184B1B6B03F44003002B04D17B689A68B3
:100540007B689A6321E0134B1B6B03F44003B3F504
:10055000800F04D17B681A687B689A6315E00D4BA5
:100560001B6B03F44003B3F5000F04D17B684FF419
:1005700000429A6309E0074B1B6B03F44003B3F599
:10058000400F02D17B68044A9A6300BF2C37BD46F6
:1005900080BC70470010024000127A0080B483B023
:1005A00000AF78600B46FB70FB78002B06D0094942
:1005B000084B5A697B6813434B6106E00549054BBC
:1005C0005A697B68DB4313404B6100BF0C37BD4663
:1005D00080BC70470010024080B483B000AF7860E8
:1005E0000B46FB70FB78002B06D00949084B9A6933
:1005F0007B6813438B6106E00549054B9A697B686C
:10060000DB4313408B6100BF0C37BD4680BC704795
:100610000010024080B483B000AF78600B46FB70DE
:10062000FB78002B06D00949084BDA697B68134335
:10063000CB6106E00549054BDA697B68DB43134073
:10064000CB6100BF0C37BD4680BC70470010024034
:1006500080B487B000AF7860396000237B610023ED
:100660003B610023FB6000237B617EE001227B690C
:1006700002FA03F33B613B681A683B691340FB6075
:10068000FA683B699A426DD13B681B79012B03D014
:100690003B681B79022B36D17B689A687B695B00CB
:1006A000032101FA03F3DB431A407B689A607B68FD
:1006B0009A683B685B7919467B695B0001FA03F332
:1006C0001A437B689A607B689B889AB27B699BB26D
:1006D000012101FA03F39BB2DB439BB213409AB2B0
:1006E0007B689A807B689B889BB21AB23B689B7937
:1006F00019467B699BB201FA03F31BB213431BB289
:100700009AB27B689A807B681A687B695B000321D8
:1007100001FA03F3DB431A407B681A607B681A68AE
:100720003B681B7919467B695B0001FA03F31A43A6
:100730007B681A607B68DA687B699BB25B00032187
:1007400001FA03F3DB431A407B68DA607B68DA68FE
:100750003B68DB7919467B695B0001FA03F31A43B6
:100760007B68DA607B6901337B617B690F2B7FF6E5
:100770007DAF00BF1C37BD4680BC704780B485B0DC
:1007800000AF78600B467B8013467B700023FB60D4
:100790000023BB607A787B8803F007039B0002FA92
:1007A00003F3FB607B88DB089BB218467B88DB0881
:1007B0009BB21A467B68083253F822207B8803F0EC
:1007C00007039B000F2101FA03F3DB4302EA030155
:1007D0007B6800F1080243F822107B88DB089BB29B
:1007E0001A467B68083253F82220FB681343BB602B
:1007F0007B88DB089BB21A467B680832B96843F8ED
:10080000221000BF1437BD4680BC704780B483B04F
:1008100000AF0346FB71084997F907305B09FA7985
:1008200002F01F02012000FA02F241F8232000BF6B
:100830000C37BD4680BC704700E100E080B500AFDA
:1008400001214FF48040FFF7C7FE01214FF4003033
:10085000FFF7A4FE184B4FF4C0621A60164B032238
:100860005A71154B02221A71134B00229A71124BC6
:100870000022DA7110494FF09040FFF7E9FE07229D
:1008800009214FF09040FFF779FF07220A214FF02E
:100890009040FFF773FF094800F0E0FA074B4FF470
:1008A00016521A600549064800F01CFA0121044856
:1008B00000F0F0FA00BF80BD3000002038000020BA
:1008C0000038014080B500AF01214FF40030FFF740
:1008D000A1FE01214FF40030FFF760FE1C4B0C22FB
:1008E0001A601B4B03225A71194B02221A71184BC2
:1008F00000229A71164B0022DA7115494FF0904090
:10090000FFF7A6FE072202214FF09040FFF736FFC7
:10091000072203214FF09040FFF730FF0D4800F011
:100920009DFA0C4B4FF416521A600A490A4800F01F
:10093000D9F90121084800F0ADFA0122074906481B
:1009400000F0E6FA2620FFF761FF00BF80BD00BF80
:100950003000002038000020004400400501050060
:1009600080B500AF01214FF40010FFF717FE094BCF
:100970004FF47F421A60074B01221A71054B012286
:100980005A71044B00229A7102490348FFF760FE36
:1009900000BF80BD300000200010004880B500AFCF
:1009A00001214FF40030FFF7F9FD094B01221A60D5
:1009B000074B00221A71064B02225A71044B022285
:1009C000DA7103494FF09040FFF742FE00BF80BD4F
:1009D0003000002080B582B000AF0346FB7100BF3D
:1009E0008021084800F0D4FA0346002BF8D0FB79A8
:1009F0009BB21946034800F069FA00BF0837BD46AC
:100A000080BD00BF0038014098B500AF0B490C48CD
:100A100000F0D6FA0346002B0AD00A4C084800F032
:100A200067FA03460833012202FA03F39BB2A3825A
:100A30000249034800F012FB00BF98BD0501050004
:100A4000004400400010004890B585B000AF7860C9
:100A50000023FB60786800F05DFC0DA3D3E9002360
:100A600000F0CEFC03460C461846214600F0DAFEA4
:100A700003467B600023FB6002E0FB680133FB6000
:100A8000FA687B689A42F8D900BF1437BD4690BD1A
:100A9000CDCCCCCCCCCC1C4080B500AF4FF090433B
:100AA0001B8A9BB203F00103002B22D0194B1B7849
:100AB000002B1ED14CF25030FFF7C6FF4FF0904391
:100AC0001B8A9BB203F00103002B12D0114B1B7841
:100AD000002B0ED1104B1B785A1CD1B20E4A11704C
:100AE00003F00703DBB21846FFF774FF094B01223E
:100AF0001A704FF090431B8A9BB203F00103002B46
:100B000006D1044B1B78012B02D1024B00221A7034
:100B100000BF80BD2C0000202D00002080B500AF5C
:100B2000FFF71EFFFFF73AFFFFF788FEFFF7CAFE49
:100B3000FFF7B2FFFCE700BF80B500AF1B4A1B4BBD
:100B40001B6843F0010313601849184B5A68184B8F
:100B500013404B60154A154B1B6823F0847323F434
:100B600080331360114A114B1B6823F480231360F8
:100B70000E4A0E4B5B6823F4FE0353600B4A0B4B8B
:100B8000DB6A23F00F03D3620849084B1A6B094B49
:100B900013400B63054B00229A6000F00FF8064BE0
:100BA0004FF000629A6000BF80BD00BF001002409D
:100BB0000CC07FF8CCFC00FF00ED00E080B483B0F7
:100BC00000AF00237B6000233B60324A314B1B683F
:100BD00043F4803313602F4B1B6803F400333B60F6
:100BE0007B6801337B603B68002B03D17B68B3F5E6
:100BF000A06FF0D1274B1B6803F40033002B02D009
:100C000001233B6001E000233B603B68012B3CD1AA
:100C1000214B12221A601F4A1E4B5B6853601D4A0B
:100C20001C4B5B6853601B4A1A4B5B6843F4806340
:100C30005360184A174B5B6823F47C135360154AC2
:100C4000144B5B6843F4E8135360124A114B1B6862
:100C500043F08073136000BF0E4B1B6803F00073FA
:100C6000002BF9D00B4A0B4B5B6823F00303536056
:100C7000084A084B5B6843F00203536000BF054B12
:100C80005B6803F00C03082BF9D100BF0C37BD469D
:100C900080BC70470010024000200240002103E0A9
:100CA0000A4B5B584350043109480A4B42189A4298
:100CB000F6D3094A02E0002342F8043B074B9A426C
:100CC000F9D3FFF739FFFFF729FF704764180008D1
:100CD000000000202C0000202C00002050000020EC
:100CE000FEE7000080B594B000AF78603960002363
:100CF000FB640023BB6400237B647B681B6823F0D8
:100D000001027B681A607B685B687B647B6C23F400
:100D100040537B643B689B687A6C13437B647B68BD
:100D20007A6C5A607B681B687B647B6C23F4B053DD
:100D300023F00C037B643B685A683B68DB681A430A
:100D40003B681B6913437A6C13437B647B687A6C42
:100D50001A607B689B687B647B6C23F440737B64C4
:100D60003B685B697A6C13437B647B687A6C9A603E
:100D700007F108031846FFF707FA7B68334A9342E6
:100D800002D13B6BBB6416E07B68314A934202D1CF
:100D90007B6BBB640FE07B682E4A934202D1BB6B36
:100DA000BB6408E07B682C4A934202D1FB6BBB64B6
:100DB00001E03B6CBB647B681B6803F40043002BC1
:100DC00011D0BB6C5A003B681B68B2FBF3F3FB64A9
:100DD000BB6C5B003A681268B3FBF2F102FB01F2F4
:100DE0009B1A7B640EE03B681B68BA6CB2FBF3F3A2
:100DF000FB643B681A68BB6CB3FBF2F102FB01F2C7
:100E00009B1A7B643B681B685A087B6C9A4202D829
:100E1000FB6C0133FB647B681B6803F40043002B0D
:100E20000BD0FB6C5B0803F007037B64FA6C4FF696
:100E3000F07313407A6C1343FB64FB6C9AB27B68CB
:100E40009A8100BF5037BD4680BD00BF00380140C9
:100E50000044004000480040004C004080B483B093
:100E600000AF78607B684FF416521A607B680022EE
:100E70005A607B6800229A607B680022DA607B6897
:100E80000C221A617B6800225A6100BF0C37BD46F4
:100E900080BC704780B483B000AF78600B46FB70B5
:100EA000FB78002B06D07B681B6843F001027B684F
:100EB0001A6005E07B681B6823F001027B681A60FA
:100EC00000BF0C37BD4680BC704700BF80B483B004
:100ED00000AF78600B467B807B88C3F308039AB22F
:100EE0007B681A8500BF0C37BD4680BC704700BFC9
:100EF00080B483B000AF78607B689B8C9BB2C3F3F7
:100F000008039BB218460C37BD4680BC704700BF33
:100F100080B489B000AFF860B9601346FB7100235C
:100F2000BB6100237B6100233B610023FB61FB6805
:100F3000FB61BB681B12DBB2BB61BB68DBB27B61D0
:100F400001227B6902FA03F33B61BB69022B03D1E7
:100F5000FB690433FB6105E0BB69032B02D1FB692C
:100F60000833FB61FB79002B06D0FB69FA69116835
:100F70003A690A431A6006E0FB69FA6911683A693E
:100F8000D2430A401A6000BF2437BD4680BC704778
:100F900080B485B000AF786039600023FB737B6854
:100FA000DA693B681340002B02D00123FB7301E098
:100FB0000023FB73FB7B18461437BD4680BC70478B
:100FC00080B487B000AF786039600023FB600023F5
:100FD0007B610023BB600023FB743B681B12DBB208
:100FE000BB603B68DBB27B6101227B6902FA03F3E1
:100FF0007B61BB68012B05D17B681B687A69134054
:101000007B610DE0BB68022B05D17B685B687A6968
:1010100013407B6104E07B689B687A6913407B61C5
:101020003B681B0CFB600122FB6802FA03F3FB60C8
:101030007B68DB69FA681340FB607B69002B05D095
:10104000FB68002B02D00123FB7401E00023FB743A
:10105000FB7C18461C37BD4680BC704780B485B009
:1010600000AF786039600023FB600023BB603B6801
:101070001B0CFB600122FB6802FA03F3BB607B6878
:10108000BA681A6200BF1437BD4680BC704700BF03
:1010900081F0004102E000BF83F0004330B54FEA29
:1010A00041044FEA430594EA050F08BF90EA020F96
:1010B0001FBF54EA000C55EA020C7FEA645C7FEA29
:1010C000655C00F0E2804FEA5454D4EB5555B8BF4C
:1010D0006D420CDD2C4480EA020281EA030382EABD
:1010E000000083EA010180EA020281EA0303362D4F
:1010F00088BF30BD11F0004F4FEA01314FF4801C22
:101100004CEA113102D0404261EB410113F0004F33
:101110004FEA03334CEA133302D0524263EB4303EA
:1011200094EA050F00F0A780A4F10104D5F1200E88
:101130000DDB02FA0EFC22FA05F2801841F10001E3
:1011400003FA0EF2801843FA05F359410EE0A5F1B7
:1011500020050EF1200E012A03FA0EFC28BF4CF0E8
:10116000020C43FA05F3C01851EBE37101F000459E
:1011700007D54FF0000EDCF1000C7EEB00006EEBAB
:101180000101B1F5801F1BD3B1F5001F0CD3490835
:101190005FEA30004FEA3C0C04F101044FEA44528C
:1011A00012F5800F80F09A80BCF1004F08BF5FEA13
:1011B000500C50F1000041EB045141EA050130BDF3
:1011C0005FEA4C0C404141EB010111F4801FA4F196
:1011D0000104E9D191F0000F04BF01460020B1FAEB
:1011E00081F308BF2033A3F10B03B3F120020CDA23
:1011F0000C3208DD02F1140CC2F10C0201FA0CF001
:1012000021FA02F10CE002F11402D8BFC2F1200C65
:1012100001FA02F120FA0CFCDCBF41EA0C0190401B
:10122000E41AA2BF01EB0451294330BD6FEA040464
:101230001F3C1CDA0C340EDC04F11404C4F120024F
:1012400020FA04F001FA02F340EA030021FA04F361
:1012500045EA030130BDC4F10C04C4F1200220FAB8
:1012600002F001FA04F340EA0300294630BD21FAF6
:1012700004F0294630BD94F0000F83F4801306BFBC
:1012800081F480110134013D4EE77FEA645C18BFB0
:101290007FEA655C29D094EA050F08BF90EA020F47
:1012A00005D054EA000C04BF1946104630BD91EA3F
:1012B000030F1EBF0021002030BD5FEA545C05D142
:1012C0004000494128BF41F0004130BD14F5800481
:1012D0003CBF01F5801130BD01F0004545F0FE41F5
:1012E00041F470014FF0000030BD7FEA645C1ABF2A
:1012F000194610467FEA655C1CBF0B46024650EA61
:10130000013406BF52EA033591EA030F41F400218C
:1013100030BD00BF90F0000F04BF0021704730B512
:101320004FF4806404F132044FF000054FF00001E7
:1013300050E700BF90F0000F04BF0021704730B5A8
:101340004FF4806404F1320410F0004548BF40427D
:101350004FF000013EE700BF42004FEAE2014FEAD2
:1013600031014FEA02701FBF12F07F4393F07F4FAD
:1013700081F06051704792F0000F14BF93F07F4FDF
:10138000704730B54FF4607401F0004521F0004122
:1013900020E700BF50EA010208BF704730B54FF0A8
:1013A00000050AE050EA010208BF704730B511F0AD
:1013B000004502D5404261EB41014FF4806404F1E5
:1013C00032045FEA915C3FF4DCAE4FF003025FEA67
:1013D000DC0C18BF03325FEADC0C18BF033202EBEF
:1013E000DC02C2F1200300FA03FC20FA02F001FA49
:1013F00003FE40EA0E0021FA02F11444C1E600BFE8
:1014000070B54FF0FF0C4CF4E06C1CEA11541DBF9A
:101410001CEA135594EA0C0F95EA0C0F00F0DEF865
:101420002C4481EA030621EA4C5123EA4C5350EA4A
:10143000013518BF52EA033541F4801143F480139B
:1014400038D0A0FB02CE4FF00005E1FB02E506F02C
:101450000042E0FB03E54FF00006E1FB03569CF081
:10146000000F18BF4EF0010EA4F1FF04B6F5007F87
:1014700064F5407404D25FEA4E0E6D4146EB0606F9
:1014800042EAC62141EA55514FEAC52040EA5E5082
:101490004FEACE2EB4F1FD0C88BFBCF5E06F1ED82C
:1014A000BEF1004F08BF5FEA500E50F1000041EB63
:1014B000045170BD06F0004646EA010140EA020010
:1014C00081EA0301B4EB5C04C2BFD4EB0C0541EA32
:1014D000045170BD41F480114FF0000E013C00F347
:1014E000AB8014F1360FDEBF002001F0004170BD6B
:1014F000C4F10004203C35DA0C341BDC04F1140484
:10150000C4F1200500FA05F320FA04F001FA05F20F
:1015100040EA020001F0004221F0004110EBD370DC
:1015200021FA04F642EB06015EEA430E08BF20EA08
:10153000D37070BDC4F10C04C4F1200500FA04F3AB
:1015400020FA05F001FA04F240EA020001F000413D
:1015500010EBD37041F100015EEA430E08BF20EAB0
:10156000D37070BDC4F1200500FA05F24EEA020EF8
:1015700020FA04F301FA05F243EA020321FA04F027
:1015800001F0004121FA04F220EA020000EBD370DE
:101590005EEA430E08BF20EAD37070BD94F0000FDE
:1015A0000FD101F00046400041EB010111F4801F12
:1015B00008BF013CF7D041EA060195F0000F18BFC3
:1015C000704703F00046520043EB030313F4801FFF
:1015D00008BF013DF7D043EA0603704794EA0C0FB9
:1015E0000CEA135518BF95EA0C0F0CD050EA4106CF
:1015F00018BF52EA4306D1D181EA030101F000414C
:101600004FF0000070BD50EA410606BF1046194673
:1016100052EA430619D094EA0C0F02D150EA01367F
:1016200013D195EA0C0F05D152EA03361CBF1046C0
:1016300019460AD181EA030101F0004141F0FE415F
:1016400041F470014FF0000070BD41F0FE4141F4E3
:10165000780170BD70B54FF0FF0C4CF4E06C1CEAE3
:1016600011541DBF1CEA135594EA0C0F95EA0C0F98
:1016700000F0A7F8A4EB050481EA030E52EA033553
:101680004FEA013100F088804FEA03334FF0805574
:1016900045EA131343EA12634FEA022245EA1115A1
:1016A00045EA10654FEA00260EF000419D4208BF52
:1016B000964244F1FD0404F5407402D25B084FEAFF
:1016C0003202B61A65EB03055B084FEA32024FF4AB
:1016D00080104FF4002CB6EB020E75EB030E22BF08
:1016E000B61A754640EA0C005B084FEA3202B6EBC8
:1016F000020E75EB030E22BFB61A754640EA5C0077
:101700005B084FEA3202B6EB020E75EB030E22BF06
:10171000B61A754640EA9C005B084FEA3202B6EB07
:10172000020E75EB030E22BFB61A754640EADC00C6
:1017300055EA060E18D04FEA051545EA16754FEA28
:1017400006164FEAC30343EA52734FEAC2025FEA46
:101750001C1CC0D111F4801F0BD141EA00014FF0D5
:1017600000004FF0004CB6E711F4801F04BF0143A6
:101770000020B4F1FD0C88BFBCF5E06F3FF6AFAEC2
:10178000B5EB030C04BFB6EB020C5FEA500C50F152
:10179000000041EB045170BD0EF0004E4EEA1131D5
:1017A00014EB5C04C2BFD4EB0C0541EA045170BDDC
:1017B00041F480114FF0000E013C90E645EA060E20
:1017C0008DE60CEA135594EA0C0F08BF95EA0C0F4E
:1017D0003FF43BAF94EA0C0F0AD150EA01347FF496
:1017E00034AF95EA0C0F7FF425AF104619462CE76D
:1017F00095EA0C0F06D152EA03353FF4FDAE1046D0
:10180000194622E750EA410618BF52EA43067FF420
:10181000C5AE50EA41047FF40DAF52EA43057FF4B0
:10182000EBAE12E74A0011D212F5001211D20DD51B
:101830006FF47873B3EB62520ED44FEAC12343F0D6
:10184000004343EA505323FA02F070474FF0000080
:10185000704750EA013002D14FF0FF3070474FF02F
:0418600000007047CD
:101864000000000001020304010203040607080942
:101874000000010002000400060008000A000C0039
:0C18840010002000400080000001000067
:0400000508000000EF
:00000001FF
