:020000040800F2
:1000000000A00020B90A0008FD0A0008FD0A000847
:10001000FD0A0008FD0A0008FD0A000800000000B3
:10002000000000000000000000000000FD0A0008C1
:10003000FD0A000800000000FD0A0008FD0A000893
:10004000FD0A0008FD0A0008FD0A0008FD0A000874
:10005000FD0A0008FD0A0008FD0A0008FD0A000864
:10006000FD0A0008FD0A0008FD0A0008FD0A000854
:10007000FD0A0008FD0A0008FD0A0008FD0A000844
:10008000FD0A0008FD0A0008FD0A0008FD0A000834
:10009000FD0A0008FD0A0008FD0A0008FD0A000824
:1000A000FD0A0008FD0A0008FD0A0008FD0A000814
:1000B000FD0A0008FD0A0008FD0A0008FD0A000804
:1000C000FD0A0008FD0A0008FD0A0008FD0A0008F4
:1000D00079040008FD0A0008FD0A0008FD0A00086E
:1000E000FD0A0008FD0A0008FD0A0008FD0A0008D4
:1000F000FD0A0008FD0A0008FD0A0008FD0A0008C4
:10010000000000000000000000000000FD0A0008E0
:10011000FD0A0008FD0A0008FD0A0008FD0A0008A3
:10012000FD0A0008FD0A0008FD0A0008FD0A000893
:10013000FD0A0008FD0A00080000000000000000A1
:10014000FD0A0008FD0A0008FD0A00080000000082
:10015000000000000000000000000000000000009F
:100160000000000000000000FD0A0008FD0A000871
:10017000FD0A000800000000000000000000000070
:1001800000000000FD0A000880B483B000AF786072
:100190000B46FB70FB78002B06D00949084B5A69C7
:1001A0007B6813434B6106E00549054B5A697B6840
:1001B000DB4313404B6100BF0C37BD4680BC70472A
:1001C0000010024080B483B000AF78600B46FB7033
:1001D000FB78002B06D00949084B9A697B681343CA
:1001E0008B6106E00549054B9A697B68DB43134048
:1001F0008B6100BF0C37BD4680BC704700100240C9
:1002000080B483B000AF78600B46FB70FB78002BA6
:1002100006D00949084BDA697B681343CB6106E0D5
:100220000549054BDA697B68DB431340CB6100BFAE
:100230000C37BD4680BC70470010024080B487B0C8
:1002400000AF7860396000237B6100233B610023AD
:10025000FB6000237B617EE001227B6902FA03F3ED
:100260003B613B681A683B691340FB60FA683B6975
:100270009A426DD13B681B79012B03D03B681B79F7
:10028000022B36D17B689A687B695B00032101FAF7
:1002900003F3DB431A407B689A607B689A683B688B
:1002A0005B7919467B695B0001FA03F31A437B68AB
:1002B0009A607B689B889AB27B699BB2012101FAA4
:1002C00003F39BB2DB439BB213409AB27B689A80E4
:1002D0007B689B889BB21AB23B689B7919467B6905
:1002E0009BB201FA03F31BB213431BB29AB27B68B1
:1002F0009A807B681A687B695B00032101FA03F32B
:10030000DB431A407B681A607B681A683B681B797C
:1003100019467B695B0001FA03F31A437B681A6094
:100320007B68DA687B699BB25B00032101FA03F307
:10033000DB431A407B68DA607B68DA683B68DB790C
:1003400019467B695B0001FA03F31A437B68DA60A4
:100350007B6901337B617B690F2B7FF67DAF00BF2B
:100360001C37BD4680BC704780B485B000AF786054
:100370000B467B8013467B700023FB600023BB6031
:100380007A787B8803F007039B0002FA03F3FB6093
:100390007B88DB089BB218467B88DB089BB21A4639
:1003A0007B68083253F822207B8803F007039B0008
:1003B0000F2101FA03F3DB4302EA03017B6800F13A
:1003C000080243F822107B88DB089BB21A467B6840
:1003D000083253F82220FB681343BB607B88DB089C
:1003E0009BB21A467B680832B96843F8221000BFF6
:1003F0001437BD4680BC704780B483B000AF03465D
:10040000FB71084997F907305B09FA7902F01F027E
:10041000012000FA02F241F8232000BF0C37BD464C
:1004200080BC704700E100E090B585B000AF786017
:100430000023FB60786800F0A5FC0DA3D3E900233E
:1004400000F016FD03460C461846214600F022FF38
:1004500003467B600023FB6002E0FB680133FB6026
:10046000FA687B689A42F8D900BF1437BD4690BD40
:10047000CDCCCCCCCCCC1C4098B500AF064C0748BA
:1004800000F024FA03460833012202FA03F39BB278
:10049000A38200BF98BD00BF001000480038004094
:1004A00080B582B000AF01214FF40010FFF76CFE61
:1004B00001214FF40030FFF767FE01214FF4802047
:1004C000FFF762FE01233B6000233B7102237B7137
:1004D0000223FB713B4619464FF09040FFF7AEFEFA
:1004E0004FF47F433B6001233B7101237B71002369
:1004F000BB713B4619462248FFF7A0FE02233B7121
:10050000E0233B600023BB7103237B713B4619460C
:100510004FF09040FFF792FE052205214FF09040EA
:10052000FFF722FF052206214FF09040FFF71CFF46
:10053000052207214FF09040FFF716FF02233B7181
:100540004FF460433B600023BB7103237B713B4648
:1005500019460C48FFF772FE05220D210948FFF7E6
:1005600003FF05220E210748FFF7FEFE05220F219B
:100570000448FFF7F9FE00BF0837BD4680BD00BF45
:10058000001000480004004880B586B000AF01218B
:100590004FF48050FFF716FE01214FF48040FFF723
:1005A0002FFE0023BB804FF4E0633B8102237B815D
:1005B0000123BB814FF40073FB8110233B82002396
:1005C0007B820723BB824FF48273FB803B1D19465D
:1005D0001C4800F07DF84FF480711A4800F03EF995
:1005E0000121184800F0FEF80023BB804FF4E063BF
:1005F0003B8102237B810123BB814FF40073FB818C
:1006000010233B8200237B820723BB820023FB80D5
:100610003B1D19460C4800F05BF801210A4800F028
:10062000E1F84FF48051084800F0FCF80122602105
:10063000054800F05FF92420FFF7DEFE00BF183701
:10064000BD4680BD003001400038004080B582B01A
:1006500000AF0023FB710023BB71FFF721FFFFF701
:1006600093FF4FF090431B8A9BB203F00103002BD2
:100670001DD0FB79002B1AD14CF25030FFF7D4FE7D
:100680004FF090431B8A9BB203F00103002B0ED066
:10069000FB79002B0BD1BB795A1CBA7103F007030D
:1006A000DBB21946094800F0FBF80123FB714FF05B
:1006B00090431B8A9BB203F00103002BD1D1FB793D
:1006C000012BCED10023FB71CBE700BF00300140EE
:1006D00080B485B000AF786039600023FB813B684F
:1006E0005B88B3F5827F36D17B681B88FB81FB89F1
:1006F00003F44153FB813B681A883B685B881343D2
:100700009AB23B68D9883B681B890B4399B23B6816
:1007100058893B689B89034398B23B68DB89034354
:100720009BB20B439BB213439AB2FB891343FB81E9
:100730007B68FA891A807B689B88FB81FB8923F49C
:100740007063FB813B689A88FB891343FB817B685C
:10075000FA899A8035E07B689B88FB81FB8923F4CA
:100760007063FB813B689A88FB891343FB817B683C
:10077000FA899A807B681B88FB81FB8903F44153CB
:10078000FB813B681A883B685B8813439AB23B68DD
:10079000D9883B681B890B4399B23B6858893B68F1
:1007A0009B89034398B23B68DB8903439BB20B43AD
:1007B0009BB213439AB2FB891343FB817B68FA898E
:1007C0001A807B689B8B9BB223F400639AB27B6890
:1007D0009A833B681A8A7B681A8200BF1437BD4629
:1007E00080BC704780B483B000AF78600B46FB706C
:1007F000FB78002B08D07B681B889BB243F040033A
:100800009AB27B681A8007E07B681B889BB223F052
:1008100040039AB27B681A8000BF0C37BD4680BC8B
:10082000704700BF80B483B000AF78600B467B8018
:100830007B689B889BB223F480539AB27B689A8032
:100840007B689B889AB27B8813439AB27B689A80B4
:1008500000BF0C37BD4680BC704700BF80B483B07A
:1008600000AF78600B467B807B884FF6FF62934237
:1008700008D07B681B889BB243F480739AB27B6874
:100880001A8007E07B681B889BB223F480739AB2BE
:100890007B681A8000BF0C37BD4680BC704700BF24
:1008A00080B485B000AF78600B46FB700023FB601E
:1008B0007B68FB60FB680C33FB60FB68FA781A709E
:1008C00000BF1437BD4680BC704700BF80B485B000
:1008D00000AF78600023FB607B68FB60FB680C3333
:1008E000FB60FB681B78DBB218461437BD4680BC42
:1008F000704700BF80B485B000AF78600B46FB70D6
:100900001346BB700023FB810023BB81FB781B09CE
:10091000DBB2FB81FB89012202FA03F3BB81BB78C6
:10092000002B08D07B689B889AB2BB8913439AB28C
:100930007B689A8009E07B689B889AB2BB89DB431D
:100940009BB213409AB27B689A8000BF1437BD46B1
:1009500080BC704780B500AF1B4A1B4B1B6843F03F
:10096000010313601849184B5A68184B13404B6029
:10097000154A154B1B6823F0847323F480331360EE
:10098000114A114B1B6823F4802313600E4A0E4B4F
:100990005B6823F4FE0353600B4A0B4BDB6A23F0C6
:1009A0000F03D3620849084B1A6B094B13400B63C2
:1009B000054B00229A6000F00FF8064B4FF00062E2
:1009C0009A6000BF80BD00BF001002400CC07FF8DD
:1009D000CCFC00FF00ED00E080B483B000AF00234A
:1009E0007B6000233B60324A314B1B6843F4803309
:1009F00013602F4B1B6803F400333B607B680133AB
:100A00007B603B68002B03D17B68B3F5A06FF0D10E
:100A1000274B1B6803F40033002B02D001233B60FB
:100A200001E000233B603B68012B3CD1214B1222AB
:100A30001A601F4A1E4B5B6853601D4A1C4B5B6863
:100A400053601B4A1A4B5B6843F480635360184A37
:100A5000174B5B6823F47C135360154A144B5B6897
:100A600043F4E8135360124A114B1B6843F0807340
:100A7000136000BF0E4B1B6803F00073002BF9D00E
:100A80000B4A0B4B5B6823F003035360084A084B87
:100A90005B6843F00203536000BF054B5B6803F0E3
:100AA0000C03082BF9D100BF0C37BD4680BC704742
:100AB0000010024000200240002103E00A4B5B5876
:100AC0004350043109480A4B42189A42F6D3094A66
:100AD00002E0002342F8043B074B9A42F9D3FFF7A8
:100AE00039FFFFF7B3FD7047D41200080000002063
:100AF000000000200000002000000020FEE70000B1
:100B000081F0004102E000BF83F0004330B54FEABE
:100B100041044FEA430594EA050F08BF90EA020F2B
:100B20001FBF54EA000C55EA020C7FEA645C7FEABE
:100B3000655C00F0E2804FEA5454D4EB5555B8BFE1
:100B40006D420CDD2C4480EA020281EA030382EA52
:100B5000000083EA010180EA020281EA0303362DE4
:100B600088BF30BD11F0004F4FEA01314FF4801CB7
:100B70004CEA113102D0404261EB410113F0004FC9
:100B80004FEA03334CEA133302D0524263EB430380
:100B900094EA050F00F0A780A4F10104D5F1200E1E
:100BA0000DDB02FA0EFC22FA05F2801841F1000179
:100BB00003FA0EF2801843FA05F359410EE0A5F14D
:100BC00020050EF1200E012A03FA0EFC28BF4CF07E
:100BD000020C43FA05F3C01851EBE37101F0004534
:100BE00007D54FF0000EDCF1000C7EEB00006EEB41
:100BF0000101B1F5801F1BD3B1F5001F0CD34908CB
:100C00005FEA30004FEA3C0C04F101044FEA445221
:100C100012F5800F80F09A80BCF1004F08BF5FEAA8
:100C2000500C50F1000041EB045141EA050130BD88
:100C30005FEA4C0C404141EB010111F4801FA4F12B
:100C40000104E9D191F0000F04BF01460020B1FA80
:100C500081F308BF2033A3F10B03B3F120020CDAB8
:100C60000C3208DD02F1140CC2F10C0201FA0CF096
:100C700021FA02F10CE002F11402D8BFC2F1200CFB
:100C800001FA02F120FA0CFCDCBF41EA0C019040B1
:100C9000E41AA2BF01EB0451294330BD6FEA0404FA
:100CA0001F3C1CDA0C340EDC04F11404C4F12002E5
:100CB00020FA04F001FA02F340EA030021FA04F3F7
:100CC00045EA030130BDC4F10C04C4F1200220FA4E
:100CD00002F001FA04F340EA0300294630BD21FA8C
:100CE00004F0294630BD94F0000F83F4801306BF52
:100CF00081F480110134013D4EE77FEA645C18BF46
:100D00007FEA655C29D094EA050F08BF90EA020FDC
:100D100005D054EA000C04BF1946104630BD91EAD4
:100D2000030F1EBF0021002030BD5FEA545C05D1D7
:100D30004000494128BF41F0004130BD14F5800416
:100D40003CBF01F5801130BD01F0004545F0FE418A
:100D500041F470014FF0000030BD7FEA645C1ABFBF
:100D6000194610467FEA655C1CBF0B46024650EAF6
:100D7000013406BF52EA033591EA030F41F4002122
:100D800030BD00BF90F0000F04BF0021704730B5A8
:100D90004FF4806404F132044FF000054FF000017D
:100DA00050E700BF90F0000F04BF0021704730B53E
:100DB0004FF4806404F1320410F0004548BF404213
:100DC0004FF000013EE700BF42004FEAE2014FEA68
:100DD00031014FEA02701FBF12F07F4393F07F4F43
:100DE00081F06051704792F0000F14BF93F07F4F75
:100DF000704730B54FF4607401F0004521F00041B8
:100E000020E700BF50EA010208BF704730B54FF03D
:100E100000050AE050EA010208BF704730B511F042
:100E2000004502D5404261EB41014FF4806404F17A
:100E300032045FEA915C3FF4DCAE4FF003025FEAFC
:100E4000DC0C18BF03325FEADC0C18BF033202EB84
:100E5000DC02C2F1200300FA03FC20FA02F001FADE
:100E600003FE40EA0E0021FA02F11444C1E600BF7D
:100E700070B54FF0FF0C4CF4E06C1CEA11541DBF30
:100E80001CEA135594EA0C0F95EA0C0F00F0DEF8FB
:100E90002C4481EA030621EA4C5123EA4C5350EAE0
:100EA000013518BF52EA033541F4801143F4801331
:100EB00038D0A0FB02CE4FF00005E1FB02E506F0C2
:100EC0000042E0FB03E54FF00006E1FB03569CF017
:100ED000000F18BF4EF0010EA4F1FF04B6F5007F1D
:100EE00064F5407404D25FEA4E0E6D4146EB06068F
:100EF00042EAC62141EA55514FEAC52040EA5E5018
:100F00004FEACE2EB4F1FD0C88BFBCF5E06F1ED8C1
:100F1000BEF1004F08BF5FEA500E50F1000041EBF8
:100F2000045170BD06F0004646EA010140EA0200A5
:100F300081EA0301B4EB5C04C2BFD4EB0C0541EAC7
:100F4000045170BD41F480114FF0000E013C00F3DC
:100F5000AB8014F1360FDEBF002001F0004170BD00
:100F6000C4F10004203C35DA0C341BDC04F1140419
:100F7000C4F1200500FA05F320FA04F001FA05F2A5
:100F800040EA020001F0004221F0004110EBD37072
:100F900021FA04F642EB06015EEA430E08BF20EA9E
:100FA000D37070BDC4F10C04C4F1200500FA04F341
:100FB00020FA05F001FA04F240EA020001F00041D3
:100FC00010EBD37041F100015EEA430E08BF20EA46
:100FD000D37070BDC4F1200500FA05F24EEA020E8E
:100FE00020FA04F301FA05F243EA020321FA04F0BD
:100FF00001F0004121FA04F220EA020000EBD37074
:101000005EEA430E08BF20EAD37070BD94F0000F73
:101010000FD101F00046400041EB010111F4801FA7
:1010200008BF013CF7D041EA060195F0000F18BF58
:10103000704703F00046520043EB030313F4801F94
:1010400008BF013DF7D043EA0603704794EA0C0F4E
:101050000CEA135518BF95EA0C0F0CD050EA410664
:1010600018BF52EA4306D1D181EA030101F00041E1
:101070004FF0000070BD50EA410606BF1046194609
:1010800052EA430619D094EA0C0F02D150EA013615
:1010900013D195EA0C0F05D152EA03361CBF104656
:1010A00019460AD181EA030101F0004141F0FE41F5
:1010B00041F470014FF0000070BD41F0FE4141F479
:1010C000780170BD70B54FF0FF0C4CF4E06C1CEA79
:1010D00011541DBF1CEA135594EA0C0F95EA0C0F2E
:1010E00000F0A7F8A4EB050481EA030E52EA0335E9
:1010F0004FEA013100F088804FEA03334FF080550A
:1011000045EA131343EA12634FEA022245EA111536
:1011100045EA10654FEA00260EF000419D4208BFE7
:10112000964244F1FD0404F5407402D25B084FEA94
:101130003202B61A65EB03055B084FEA32024FF440
:1011400080104FF4002CB6EB020E75EB030E22BF9D
:10115000B61A754640EA0C005B084FEA3202B6EB5D
:10116000020E75EB030E22BFB61A754640EA5C000C
:101170005B084FEA3202B6EB020E75EB030E22BF9C
:10118000B61A754640EA9C005B084FEA3202B6EB9D
:10119000020E75EB030E22BFB61A754640EADC005C
:1011A00055EA060E18D04FEA051545EA16754FEABE
:1011B00006164FEAC30343EA52734FEAC2025FEADC
:1011C0001C1CC0D111F4801F0BD141EA00014FF06B
:1011D00000004FF0004CB6E711F4801F04BF01433C
:1011E0000020B4F1FD0C88BFBCF5E06F3FF6AFAE58
:1011F000B5EB030C04BFB6EB020C5FEA500C50F1E8
:10120000000041EB045170BD0EF0004E4EEA11316A
:1012100014EB5C04C2BFD4EB0C0541EA045170BD71
:1012200041F480114FF0000E013C90E645EA060EB5
:101230008DE60CEA135594EA0C0F08BF95EA0C0FE3
:101240003FF43BAF94EA0C0F0AD150EA01347FF42B
:1012500034AF95EA0C0F7FF425AF104619462CE702
:1012600095EA0C0F06D152EA03353FF4FDAE104665
:10127000194622E750EA410618BF52EA43067FF4B6
:10128000C5AE50EA41047FF40DAF52EA43057FF446
:10129000EBAE12E74A0011D212F5001211D20DD5B1
:1012A0006FF47873B3EB62520ED44FEAC12343F06C
:1012B000004343EA505323FA02F070474FF0000016
:1012C000704750EA013002D14FF0FF3070474FF0C5
:0412D0000000704763
:0400000508000000EF
:00000001FF
