:020000040800F2
:1000000000A0002001310008B12F0008BD2F00081A
:10001000C52F0008CD2F0008D52F000800000000D4
:10002000000000000000000000000000DD2F0008BC
:10003000E92F000800000000F52F0008013000083B
:1000400045310008453100084531000845310008B8
:1000500045310008453100084531000845310008A8
:100060004531000845310008453100084531000898
:100070004531000845310008453100084531000888
:100080004531000845310008453100084531000878
:100090000D300008453100084531000845310008A1
:1000A0004531000845310008453100084531000858
:1000B0004531000845310008453100084531000848
:1000C0004531000845310008453100084531000838
:1000D0004531000819300008453100084531000855
:1000E000453100084531000851300008453100080D
:1000F0004531000845310008453100084531000808
:100100000000000000000000000000004531000871
:1001100045310008453100084531000845310008E7
:1001200045310008453100084531000845310008D7
:1001300045310008453100080000000000000000C3
:100140004531000845310008453100080000000035
:10015000000000000000000000000000000000009F
:100160000000000000000000453100084531000893
:100170004531000800000000000000000000000001
:10018000000000004531000880B582B000AF034692
:10019000FB80FB88002B05D1084B1B6801221A82CB
:1001A000002306E0064B1B681B689847034B1B683F
:1001B0000A3318460837BD4680BD00BFD001002075
:1001C000CC01002080B500AF0F4B1B68DA780F4BD5
:1001D0005B789A4215D80C4B1B689B78002B10D18A
:1001E000094B1B689B88002B0BD1074B1B68064AE9
:1001F0001268D2789A72064B1B685B689847002396
:1002000000E00223184680BDD001002084000020B9
:10021000CC01002080B582B000AF0346FB80FB8894
:10022000002B05D1084B1B6801221A82002306E02F
:10023000064B1B689B689847034B1B680C3318469A
:100240000837BD4680BD00BFD0010020CC01002092
:1002500080B582B000AF1D4B1B689B691C4A1268B9
:1002600050791B4A1268D278114698470346FB71B1
:10027000174B1B689B7A002B23D0FB79002B09D1ED
:10028000134B1B681B79002B04D1114B1B689B7807
:10029000002B01D0022315E0FB79002B11D10D4B6F
:1002A0001B68DB6898470A4B1B68094A1268527939
:1002B000DA72074B1B68064A1268D2781A73002359
:1002C00000E0022318460837BD4680BDA801002083
:1002D000D0010020CC01002080B584B000AF0346DF
:1002E000FB80FB88002B05D1454B1B6802221A823C
:1002F000002380E0434B00221A80414B1B681B788F
:1003000003F07F03002B2CD13D4B1B685B7A7B7382
:100310007B7B03F02003002B07D03A4B1B7843F084
:100320000203DAB2374B1A7006E0364B1B7823F023
:100330000203DAB2334B1A707B7B03F04003002BCD
:1003400007D0304B1B7843F00103DAB22D4B1A7003
:100350004CE02C4B1B7823F00103DAB2294B1A70C6
:1003600044E0274B1B681B7803F07F03012B01D16E
:10037000244B40E0224B1B681B7803F07F03022BC9
:1003800032D11F4B1B685B79FB73FB7B03F00F03C0
:10039000BB7397F90F30002B12DABB7B9B0003F184
:1003A000804303F5B8431B6803F03003102B1DD1C5
:1003B000144B1B7843F00103DAB2124B1A7015E0AC
:1003C000BB7B9B0003F1804303F5B8431B6803F438
:1003D0004053B3F5805F09D10A4B1B7843F001030A
:1003E000DAB2084B1A7001E0002304E0064B1B68E8
:1003F0001B699847034B18461037BD4680BD00BFA8
:10040000D001002078010020CC01002090B587B0F9
:1004100000AF6D4B1B681B7803F07F033B613B69AA
:10042000002B0AD1684B1B68674A1268527A22F087
:100430002002D2B25A720023C2E03B69022B40F084
:10044000BE80614B1B685B88002B04D15E4B1B6830
:100450001B79002B01D00223B2E05C4BFB605A4BAE
:100460001B685B79BB60BB6823F080037B607B68A3
:100470003B60554B1B685B795BB2002B0ADA3B682B
:100480009B0003F1804303F5B8431B6803F030037E
:100490007B6109E03B689B0003F1804303F5B843AF
:1004A0001B6803F440537B61FB681B781A467B682A
:1004B0009A4207D97B69002B04D0434B1B689B7A77
:1004C000002B01D102237BE0BB6803F08003002BEB
:1004D00016D03B689B0003F1804303F5B8431B68CB
:1004E00003F03003102B64D13B68DBB2184601F0F7
:1004F00063FC3B68DBB23021184601F049FB58E051
:100500003B689B0003F1804303F5B8431B6803F489
:100510004053B3F5805F4CD13B68002B27D13B683B
:10052000DAB22B4B93F82C309BB21946104601F0EF
:1005300001FD3B689B0003F1804303F5B8431B6852
:100540009BB223F4804323F070039CB284F4805365
:100550009CB284F400539CB23B689B0003F180433F
:1005600003F5B8431B4A224392B21A6021E03B686C
:10057000DBB2184601F0F4FB3B689B0003F18043BB
:1005800003F5B8431B689BB223F4804323F0700348
:100590009CB284F480539CB284F400539CB23B68B8
:1005A0009B0003F1804303F5B8430A4A224392B209
:1005B0001A60094B1B685B699847002300E002231F
:1005C00018461C37BD4690BDD00100208400002095
:1005D000880000208080FFFFCC01002090B585B00E
:1005E00000AF3E4B1B685B79BB60BB6823F08003A8
:1005F0007B607B683B60394B1B685B795BB2002B8F
:100600000ADA3B689B0003F1804303F5B8431B689B
:1006100003F03003FB6009E03B689B0003F180437B
:1006200003F5B8431B6803F44053FB602C4B1B7865
:100630001A463B689A420CD9284B1B685B88002BF2
:1006400007D1FB68002B04D0244B1B689B7A002B3E
:1006500001D102233EE0BB6803F08003002B1AD0D7
:100660003B689B0003F1804303F5B8431B689BB2D2
:1006700023F4E04323F040039CB284F010039CB2C7
:100680003B689B0003F1804303F5B843154A2243BE
:1006900092B21A6019E03B689B0003F1804303F5B6
:1006A000B8431B689BB223F4804323F070039CB2D1
:1006B00084F480539CB23B689B0003F1804303F5B4
:1006C000B843084A224392B21A60074B1B689B69E1
:1006D0009847002318461437BD4690BDD00100202E
:1006E000840000208080FFFFCC01002080B500AF97
:1006F000074B1B68064A1268527A42F02002D2B2B7
:100700005A72044B1B68DB6998470023184680BD6A
:10071000D0010020CC01002080B485B000AF03469A
:100720003960FB800D4B1B685B8AFB60FB88002BEC
:100730000AD10A4B1B683A689188FA6892B28A1A01
:1007400092B21A82002303E03B681A68FB681344E4
:1007500018461437BD4680BC704700BFD00100204A
:1007600080B584B000AF424B1B681033BB60BB68E0
:100770001B887B60BB689B68002B2DD07B68002B9F
:100780002AD0BB689B88FB60FA687B689A4201D9D3
:100790007B68FB60BB689B68FA6892B2104698471A
:1007A0003860BB681A88FB689BB2D31A9AB2BB68E0
:1007B0001A80BB685A88FB689BB213449AB2BB6824
:1007C0005A80002001F07EFB03461946FB689BB26D
:1007D0001A46386802F0F2FCBB681B88002B0AD06E
:1007E000244B4FF440521A800021002001F084FB7A
:1007F000214B30221A80BB681A88BB689B889A42BA
:1008000004D31B4B1B6803221A722DE0BB681B88A4
:10081000002B04D0164B1B6805221A7224E0BB681B
:100820001B88002B20D1124B1B6806221A72134B17
:100830001B689B6898470E4B1B681B7A082B07D1D7
:100840000C4B4FF480521A800B4B10221A800BE095
:100850000B4B1B689AB20B4B13445B001A460023E8
:100860001360054B30221A8000BF1037BD4680BD93
:10087000D00100207A0100207C010020A801002086
:10088000505C00400230002080B586B000AF3B4B8A
:100890001B681033FB60FB681B88BB60374B1B6811
:1008A0001B7A7B61BB68002B1ED17B69042B1BD19B
:1008B000334B1B78012B11D1324B1B689AB2324B50
:1008C00013445B001A4600231360304B30221A8019
:1008D00004237B612A4B00221A7045E007237B61C9
:1008E0002A4B10221A803FE0FB689B883B61BA6864
:1008F0003B699A4201D8042300E002237B613A69F4
:10090000BB689A4201D9BB683B61FB689B683A6946
:1009100092B2104698477860002001F0B9FA034679
:1009200019463B699BB21A46786802F00DFC3B6998
:100930009BB21946002001F0DFFAFB681A883B6978
:100940009BB2D31A9AB2FB681A80FB685A883B693B
:100950009BB213449AB2FB685A800C4B30221A8027
:100960000B4B4FF440521A80044B1B687A69D2B289
:100970001A7200BF1837BD4680BD00BFD0010020ED
:100980004C010020505C0040023000207C0100201F
:100990007A01002080B584B000AF0223FB735E4B68
:1009A0001B685B787B605C4B1B681B7803F07F03E4
:1009B000002B59D17B68092B04D1FFF703FC0346B8
:1009C000FB7379E07B68052B1AD1534B1B68DB78EE
:1009D0005BB2002B0EDB504B1B689B78002B09D1C0
:1009E0004D4B1B689B88002B04D14B4B1B689B7A9B
:1009F000002B02D00823BB6084E00023FB735BE084
:100A00007B68032B11D1444B1B68DB78012B09D188
:100A1000414B1B689B88002B04D1FFF767FE034600
:100A2000FB7349E00223FB7346E07B68012B43D153
:100A3000394B1B68DB78012B13D1374B1B689B8824
:100A4000002B0ED1344B1B685B7A03F02003002B84
:100A500007D0324B00221A60FFF7D8FC0346FB7325
:100A60002AE00223FB7327E02B4B1B681B7803F063
:100A70007F03012B07D17B680B2B1DD1FFF7E8FB10
:100A80000346FB7318E0244B1B681B7803F07F03BD
:100A9000022B0FD17B68012B04D1FFF7B7FC034673
:100AA000FB7309E07B68032B06D1FFF797FD034634
:100AB000FB7301E00223FB73FB7B002B0ED0184B72
:100AC0001B685B697A68D2B2104698470346FB738D
:100AD000FB7B032B02D10923BB6013E0FB7B002BC4
:100AE00002D00823BB600DE00623BB600D4B1B68E2
:100AF0009AB20D4B13445B001A46002313600B4B54
:100B000030221A80044B1B68BA68D2B21A7200BF36
:100B10001037BD4680BD00BFD00100204801002035
:100B2000A8010020505C0040023000207C01002021
:100B300080B58AB000AF924B1B685B78BB61002325
:100B40007B6200237B61BB69062B24D18C4B1B6825
:100B50001B7803F07F03002B40F0D180884B1B688B
:100B60009B78FB74FB7C012B04D1864B1B68DB69F3
:100B70007B62C4E0FB7C022B04D1824B1B681B6AA6
:100B80007B62BCE0FB7C032B40F0B9807D4B1B6893
:100B90005B6A7B62B3E0BB69002B75D1784B1B6845
:100BA0005B88002B70D1764B1B68DB88022B6BD1E6
:100BB000734B1B681B79002B66D1714B1B681B782C
:100BC00003F07F03002B07D16D4B1B689B88002B24
:100BD00002D16D4B7B6291E0694B1B681B7803F07F
:100BE0007F03012B13D1674B1B689B69644A126812
:100BF00052790021104698470346002B7ED1604B66
:100C00001B689B7A002B79D05F4B7B6276E05C4B54
:100C10001B681B7803F07F03022B6FD1584B1B68B6
:100C20005B7903F00F03FB60554B1B685B7903F0A6
:100C30007003BB60524B1B685B795BB2002B0ADA16
:100C4000FB689B0003F1804303F5B8431B6803F086
:100C50003003FB6109E0FB689B0003F1804303F56F
:100C6000B8431B6803F44053FB61484B1B781A469A
:100C7000FB689A4242D9BB68002B3FD1FB69002B2D
:100C80003CD0414B7B6239E0BB69082B09D13C4B1E
:100C90001B681B7803F07F03002B30D13C4B7B6239
:100CA0002DE0BB690A2B2AD1354B1B681B7803F05A
:100CB0007F03012B23D1324B1B689B7A002B1ED064
:100CC0002F4B1B685B88002B19D12D4B1B681B79A0
:100CD000002B14D12A4B1B68DB88012B0FD1294B29
:100CE0001B689B69264A1268527900211046984772
:100CF0000346002B03D1274B7B6200E000BF7B6AD9
:100D0000002B0FD01E4B1B687A6992B25A821C4B83
:100D10001B687A6A9A617B6A00209847002387F8EB
:100D2000233013E0174B1B681B69154A1268527871
:100D300010469847034687F8233097F82330032B53
:100D400004D10F4B1B6809221A7277E00C4B1B6809
:100D50001B8A4FF6FF72934204D1094B1B6809228C
:100D60001A726BE097F82330022B04D0044B1B68F7
:100D70001B8A002B10D1024B1B6808221A725DE0FF
:100D8000D0010020A8010020D90200088400002022
:100D900089010008150200082A4B1B681B785BB20A
:100DA000002B42DA274B1B68DB887B60254B1B68D6
:100DB0001B8A1A467B689A4205D9224B1B687A68BF
:100DC00092B21A8226E01F4B1B681A8A1D4B1B68C1
:100DD000DB889A421ED21B4B1B681A8A1A4B1B686F
:100DE00093F82C309BB29A4203D2184B00221A700F
:100DF00010E0144B1B681B8A134A126892F82C20CF
:100E000093FBF2F102FB01F29B1A002B02D10F4B74
:100E100001221A700B4B1B680B4A126892F82C20A7
:100E200092B29A82FFF730FD08E0064B1B6803225E
:100E30001A72074B4FF440521A8000BF2837BD4644
:100E400080BD00BFD0010020A80100204C0100207F
:100E50007A01002090B583B000AF0123FB80304BB6
:100E60001B689AB22F4B13445B001B689BB25B005C
:100E700003F1804303F5C0433B602B4B1B681B7A97
:100E8000092B37D0284B1A683B68591C39601B78EE
:100E90001370254B1A683B68591C39601B785370D6
:100EA0003A68FB885B0013443B601F4B1C683B683F
:100EB0009A1C3A601B88184601F09AF80346638032
:100EC0003A68FB885B0013443B60174B1C683B6827
:100ED0009A1C3A601B88184601F08AF80346A380E2
:100EE0003A68FB885B0013443B600F4B1B683A6811
:100EF0001288DA800C4B1B6801221A720A4B1B689D
:100F0000DB88002B02D1FFF745FD01E0FFF710FE63
:100F100000F08EF8034618460C37BD4690BD00BF62
:100F2000505C004004300020D001002080B582B029
:100F300000AF1F4B1B681B7A7B607B68022B02D0C3
:100F40007B68042B06D1FFF79FFC194B1B681B7AAB
:100F50007B6021E07B68062B1CD1154B1B685B78FE
:100F6000052B10D1124B1B681B7803F07F03002B5D
:100F700009D10F4B1B68DB78184600F081F80D4B48
:100F80001B681B6A98470C4B1B689B689847082393
:100F90007B6001E008237B60054B1B687A68D2B256
:100FA0001A7200F045F8034618460837BD4680BD62
:100FB000D0010020CC010020A801002080B582B023
:100FC00000AF194B1B681B7A7B607B68022B02D039
:100FD0007B68042B02D108237B6018E07B68032B1D
:100FE00002D07B68052B06D1FFF7BAFB0E4B1B68BE
:100FF0001B7A7B600BE07B68072B06D10B4B1B68D1
:10100000DB68984708237B6001E008237B60064B80
:101010001B687A68D2B21A7200F00AF803461846C2
:101020000837BD4680BD00BFD0010020A8010020C8
:1010300080B500AF0E4B93F82C309BB219460020C0
:1010400000F078FF0B4B1B681B7A082B06D10A4B6C
:101050004FF480521A80094B10221A80054B1B68EE
:101060001B7A092B0CBF01230023DBB2184680BD7D
:1010700088000020D00100207A0100207C0100209F
:1010800080B485B000AF0346FB71194B1B78BB6081
:101090000023FB601DE0FB68DBB29B0003F1804393
:1010A00003F5B843FA68D2B2920002F1804202F529
:1010B000B8421268114640F60F720A4042F40042EC
:1010C00042F08002F968C9B20A431A60FB68013332
:1010D000FB60FA68BB689A42DDD3064AFB7963F08D
:1010E0007F03DBB2136000BF1437BD4680BC70477E
:1010F000840000204C5C004080B400AF00BFBD46BF
:1011000080BC704780B48BB000AF786000233B6236
:101110000023FB610023BB6100237B6100233B6153
:1011200000237B620023FB600023BB60924B5B6863
:1011300003F00C033B623B6A042B07D0082B09D059
:10114000002B30D17B688D4A1A6030E07B688B4A77
:101150001A602CE0884B5B6803F47013FB61864BCC
:101160005B6803F48033BB61FB699B0C0233FB615A
:10117000BB69002B05D1FB69814A02FB03F37B624B
:101180000DE07D4BDB6A03F00F0301337B617B4A8B
:101190007B69B2FBF3F3FA6902FB03F37B627B68C2
:1011A0007A6A1A6003E07B68744A1A6000BF724B67
:1011B0005B6803F0F0033B623B6A1B093B62714AC8
:1011C0003B6A13441B78DBB2BB607B681A68BB6860
:1011D000DA407B685A60684B5B6803F4E0633B620B
:1011E0003B6A1B0A3B62674A3B6A13441B78DBB2CB
:1011F0003B617B685A683B69DA407B689A605E4B6A
:101200005B6803F460533B623B6ADB0A3B625D4A06
:101210003B6A13441B78DBB2FB607B685A68FB684F
:10122000DA407B68DA60544BDB6A03F4F8733B62A4
:101230003B6A1B093B62544A3B6A32F813309BB24B
:101240003B613B6903F01003002B06D07A6A3B69CF
:10125000B2FBF3F27B681A6103E07B681A687B6873
:101260001A61454BDB6A03F478533B623B6A5B0AC5
:101270003B62454A3B6A32F813309BB23B613B69A3
:1012800003F01003002B06D07A6A3B69B2FBF3F23D
:101290007B685A6103E07B681A687B685A61364B49
:1012A0001B6B03F01003002B03D17B68334A9A6158
:1012B00003E07B681A687B689A612F4B1B6B03F015
:1012C0002003002B03D17B682C4ADA6103E07B68A2
:1012D0001A687B68DA61284B1B6B03F48073002B60
:1012E0000DD07B681A687B6A9A4208D1FA68BB689D
:1012F0009A4204D17B6A5A007B681A6203E07B68D9
:10130000DA687B681A621C4B1B6B03F40073002BBA
:101310000DD07B681A687B6A9A4208D1FA68BB686C
:101320009A4204D17B6A5A007B685A6203E07B6868
:10133000DA687B685A62104B1B6B03F00303002BC7
:1013400004D17B68DA687B689A6228E00A4B1B6BE1
:1013500003F00303012B04D17B681A687B689A624F
:101360001DE0054B1B6B03F00303022B0ED17B68C2
:101370004FF400429A6212E00010024000127A001C
:1013800000093D000000002010000020604B1B6B96
:1013900003F00303032B02D17B685E4A9A625C4B25
:1013A0001B6B03F44033002B04D17B689A687B6885
:1013B000DA6221E0564B1B6B03F44033B3F5803FF8
:1013C00004D17B681A687B68DA6215E0504B1B6BAE
:1013D00003F44033B3F5003F04D17B684FF400427F
:1013E000DA6209E04A4B1B6B03F44033B3F5403F2C
:1013F00002D17B68474ADA62454B1B6B03F44023FA
:10140000002B04D17B689A687B681A6321E0404B0B
:101410001B6B03F44023B3F5802F04D17B681A685B
:101420007B681A6315E03A4B1B6B03F44023B3F55A
:10143000002F04D17B684FF400421A6309E0344B5B
:101440001B6B03F44023B3F5402F02D17B68314A74
:101450001A632F4B1B6B03F44013002B04D17B68E2
:101460009A687B685A6321E0294B1B6B03F4401395
:10147000B3F5801F04D17B681A687B685A6315E056
:10148000234B1B6B03F44013B3F5001F04D17B689F
:101490004FF400425A6309E01D4B1B6B03F44013E9
:1014A000B3F5401F02D17B681A4A5A63184B1B6B75
:1014B00003F44003002B04D17B689A687B689A632D
:1014C00021E0134B1B6B03F44003B3F5800F04D1F1
:1014D0007B681A687B689A6315E00D4B1B6B03F4FD
:1014E0004003B3F5000F04D17B684FF400429A63C8
:1014F00009E0074B1B6B03F44003B3F5400F02D127
:101500007B68044A9A6300BF2C37BD4680BC704795
:101510000010024000127A0080B483B000AF7860FF
:10152000034A7B68136000BF0C37BD4680BC704720
:10153000D800424280B483B000AF78600B46FB70A5
:10154000FB78002B06D00949084B5A697B68134386
:101550004B6106E00549054B5A697B68DB43134044
:101560004B6100BF0C37BD4680BC70470010024085
:1015700080B483B000AF78600B46FB70FB78002B23
:1015800006D00949084B9A697B6813438B6106E0D2
:101590000549054B9A697B68DB4313408B6100BFAB
:1015A0000C37BD4680BC70470010024080B483B049
:1015B00000AF78600B46FB70FB78002B06D0094922
:1015C000084BDA697B681343CB6106E00549054B9C
:1015D000DA697B68DB431340CB6100BF0C37BD4643
:1015E00080BC70470010024080B500AF1B4A1B4B07
:1015F0001B6843F0010313601849184B5A68184BD5
:1016000013404B60154A154B1B6823F0847323F479
:1016100080331360114A114B1B6823F4802313603D
:101620000E4A0E4B5B6823F4FE0353600B4A0B4BD0
:10163000DB6A23F00F03D3620849084B1A6B094B8E
:1016400013400B63054B00229A6000F00FF8064B25
:101650004FF000629A6000BF80BD00BF00100240E2
:101660000CC07FF8CCFC00FF00ED00E080B483B03C
:1016700000AF00237B6000233B60324A314B1B6884
:1016800043F4803313602F4B1B6803F400333B603B
:101690007B6801337B603B68002B03D17B68B3F52B
:1016A000A06FF0D1274B1B6803F40033002B02D04E
:1016B00001233B6001E000233B603B68012B3CD1F0
:1016C000214B12221A601F4A1E4B5B6853601D4A51
:1016D0001C4B5B6853601B4A1A4B5B6843F4806386
:1016E0005360184A174B5B6823F47C135360154A08
:1016F000144B5B6843F4E8135360124A114B1B68A8
:1017000043F08073136000BF0E4B1B6803F000733F
:10171000002BF9D00B4A0B4B5B6823F0030353609B
:10172000084A084B5B6843F00203536000BF054B57
:101730005B6803F00C03082BF9D100BF0C37BD46E2
:1017400080BC7047001002400020024090B583B07A
:1017500000AF0023FB805AE1834B1B889BB2DBB2B6
:1017600003F00F03DAB2814B1A70804B1B78002B09
:1017700040F004817E4B1B689AB27E4B1A807D4BF1
:101780001B889BB203F030039AB27B4B1A80794BD3
:101790001B889BB203F440539AB2764B1A80744B69
:1017A0001B684BF6BF741C4084F4005484F0200482
:1017B0006F4A23469BB243F4004343F08003136017
:1017C000694B1B889BB203F01003002B3ED1684984
:1017D000674B1A6848F60F7313400B60FFF7A6FBC0
:1017E000634B1B684BF6BF741C40624B1B889BB25B
:1017F00003F480539BB2002B01D084F480545D4BE2
:101800001B889BB203F400539BB2002B01D084F4DD
:101810000054594B1B889BB203F010039BB2002B62
:1018200001D084F01004544B1B889BB203F02003BA
:101830009BB2002B01D084F020044D4A23469BB27A
:1018400043F4004343F080031360EAE0484B1B6815
:101850009BB2FB80FB889BB203F40063002B3ED05D
:101860004349434B1A6840F68F7313400B60FFF7F0
:10187000F1FA3F4B1B684BF6BF741C403D4B1B8875
:101880009BB203F480539BB2002B01D084F48054AC
:10189000384B1B889BB203F400539BB2002B01D042
:1018A00084F40054344B1B889BB203F010039BB2AA
:1018B000002B01D084F010042F4B1B889BB203F047
:1018C00020039BB2002B01D084F02004284A234639
:1018D0009BB243F4004343F080031360A1E0FB8814
:1018E0009BB21BB2002B80F292802149204B1A68D8
:1018F00040F68F7313400B60FFF760FB1C4B1B68B7
:101900004BF6BF741C401B4B1B889BB203F48053E7
:101910009BB2002B01D084F48054164B1B889BB2E1
:1019200003F400539BB2002B01D084F40054124BFB
:101930001B889BB203F010039BB2002B01D084F0F4
:1019400010040D4B1B889BB203F020039BB2002BAD
:1019500001D084F02004064A23469BB243F400439E
:1019600043F0800313605CE034040020AC010020ED
:10197000005C00407A0100207C0100202A4B1B788B
:101980009B0003F1804303F5B8431B689BB2FB80C7
:10199000FB889BB21BB2002B19DA234B1B789B00F0
:1019A00003F1804303F5B8431F4A1278920002F115
:1019B000804202F5B842116840F68F720A401A6000
:1019C000194B1B78013B194A52F823309847FB8882
:1019D0009BB203F08003002B19D0134B1B789B00A4
:1019E00003F1804303F5B8430F4A1278920002F1E5
:1019F000804202F5B842116848F60F720A401A6038
:101A0000094B1B78013B0A4A52F823309847094B8F
:101A10001B689AB2084B1146198013B2002BFFF6CF
:101A20009BAE0C37BD4690BDAC0100202C010020C0
:101A300010010020445C00403404002080B584B0D4
:101A400000AF03463960FB714FF400224FF40013DE
:101A5000134301211846FFF76DFD4FF48043012128
:101A60001846FFF785FDFB79224A52F823300421FE
:101A70000722184600F03AFEFB791F4A52F823303D
:101A800001210722184600F031FE1023BB6002231B
:101A90003B7303237B730023BB730123FB73FB792D
:101AA000144A52F8233007F108021146184600F094
:101AB0006BFD0223BB60FB790F4A52F8233007F11C
:101AC00008021146184600F05FFDFB790B4A52F8F8
:101AD00023303968184601F0B1FCFB79074A52F807
:101AE00023300121184601F065FD00BF1037BD46C7
:101AF00080BD00BF580000205C0000205400002082
:101B000080B483B000AF0346FB80044AFB881360B7
:101B100000BF0C37BD4680BC704700BF445C00402E
:101B200080B483B000AF0346FB800549FA884FF6C6
:101B3000F87313400B6000BF0C37BD4680BC704784
:101B4000505C004080B483B000AF03460A46FB718E
:101B50001346BB80FB799B0003F1804303F5B84338
:101B6000FA79920002F1804202F5B842126812B28C
:101B700022F4EC4222F0700211B2B7F904200A43B9
:101B800012B292B21A6000BF0C37BD4680BC7047DB
:101B900090B482B000AF03460A46FB711346BB8087
:101BA000FB799B0003F1804303F5B8431B689BB2AC
:101BB00023F4E04323F040039CB2BB8803F01003FE
:101BC0009BB2002B02D084F010039CB2BB8803F0C0
:101BD00020039BB2002B02D084F020039CB2FB793F
:101BE0009B0003F1804303F5B843044A224392B2B9
:101BF0001A6000BF0837BD4690BC70478080FFFF69
:101C000090B482B000AF03460A46FB711346BB8016
:101C1000FB799B0003F1804303F5B8431B689BB23B
:101C200023F4804323F070039CB2BB8803F48053F9
:101C30009BB2002B02D084F480539CB2BB8803F487
:101C400000539BB2002B02D084F400539CB2FB796A
:101C50009B0003F1804303F5B843044A224392B248
:101C60001A6000BF0837BD4690BC70478080FFFFF8
:101C700090B482B000AF0346FB71FB799B0003F187
:101C8000804303F5B8431B689BB223F4E04323F081
:101C900040039CB284F010039CB284F020039CB2F9
:101CA000FB799B0003F1804303F5B843044A2243C8
:101CB00092B21A6000BF0837BD4690BC704700BFA3
:101CC0008080FFFF90B482B000AF0346FB71FB79C8
:101CD0009B0003F1804303F5B8431B689BB223F4D8
:101CE000804323F070039CB284F480539CB284F44C
:101CF00000539CB2FB799B0003F1804303F5B8438A
:101D0000044A224392B21A6000BF0837BD4690BC15
:101D1000704700BF8080FFFF80B483B000AF0346F0
:101D2000FB71FB799B0003F1804303F5B843FA791B
:101D3000920002F1804202F5B842126811B240F6F8
:101D40000F620A4011B2054A0A4312B292B21A60F7
:101D500000BF0C37BD4680BC704700BF8080FFFFCE
:101D600080B483B000AF0346FB71FB799B0003F1A5
:101D7000804303F5B8431B6803F48043002B15D060
:101D8000FB799B0003F1804303F5B843FA79920095
:101D900002F1804202F5B8421268114640F60F7215
:101DA0000A4042F4404242F080021A6000BF0C3701
:101DB000BD4680BC704700BF80B483B000AF03460F
:101DC000FB71FB799B0003F1804303F5B8431B686B
:101DD00003F04003002B15D0FB799B0003F18043F7
:101DE00003F5B843FA79920002F1804202F5B84255
:101DF0001268114640F60F720A4042F4004242F067
:101E0000C0021A6000BF0C37BD4680BC704700BFDF
:101E100080B483B000AF03460A46FB711346BB8013
:101E20000A4B1B689AB2FB79DB00134403F10053A1
:101E300003F540535B001A46BB885B089BB25B000E
:101E4000136000BF0C37BD4680BC7047505C00403B
:101E500080B483B000AF03460A46FB711346BB80D3
:101E6000094B1B689AB2FB79DB001A44074B1344F9
:101E70005B001A46BB885B089BB25B00136000BF27
:101E80000C37BD4680BC7047505C004004300020D9
:101E900080B483B000AF0346FB71094B1B689AB254
:101EA000FB79DB00134403F1005303F540535B005F
:101EB0001B689BB218460C37BD4680BC704700BFFC
:101EC000505C004080B483B000AF0346FB71084B08
:101ED0001B689AB2FB79DB001A44064B13445B0083
:101EE0001B689BB218460C37BD4680BC704700BFCC
:101EF000505C00400430002080B483B000AF034643
:101F00000A46FB711346BB80084B1B689AB2FB79EB
:101F1000DB001A44064B13445B001A46BB8813606F
:101F200000BF0C37BD4680BC704700BF505C00400E
:101F30000230002080B485B000AF03460A46FB7132
:101F40001346BB801A4B1B689AB2FB79DB001A441C
:101F5000184B13445B00BB60BB883E2B12D9BB8877
:101F60005B09FB81BB8803F01F03002B02D1FB89B7
:101F7000013BFB81FB899B0243F400431A46BB688B
:101F80001A600FE0BB885B08FB81BB8803F001038C
:101F9000002B02D0FB890133FB81FB899B021A468F
:101FA000BB681A6000BF1437BD4680BC704700BFD5
:101FB000505C00400630002080B483B000AF034680
:101FC000FB71094B1B689AB2FB79DB001A44074B83
:101FD00013445B001B689BB2C3F309039BB2184612
:101FE0000C37BD4680BC7047505C00400630002076
:101FF00080B485B000AF0346FB80FB88FB73FB8891
:102000001B0A9BB21AB2FB7B1B021BB213431BB20F
:10201000BB81BB8918461437BD4680BC704700BFE2
:1020200080B582B000AF01214FF40030FFF782FA93
:102030004FF4C0533B6003237B7102233B710023A9
:10204000BB710023FB713B4619464FF0904000F0F6
:102050009BFA0E220B214FF0904000F047FB0E221E
:102060000C214FF0904000F041FB01214FF4802003
:10207000FFF760FA4FF480733B6002237B7101230A
:102080003B710123BB710023FB713B46194603489A
:1020900000F07AFA00BF0837BD4680BD0004004852
:1020A00080B500AF0020FFF737FA01214FF40000A0
:1020B000FFF77CFA00BF80BD80B582B000AF4FF45F
:1020C000A06000F001FF14233B7100237B7100230B
:1020D000BB710123FB713B1D184600F007FF2A234B
:1020E0003B7100237B713B1D184600F0FFFE25234A
:1020F0003B7100237B713B1D184600F0F7FE112356
:102100003B7100237B713B1D184600F0EFFE00BFC2
:102110000837BD4680BD00BF80B582B000AF034622
:10212000FB71FB79002B05D04FF48071064800F05D
:10213000CFFA04E04FF48071034800F0BBFA00BF0F
:102140000837BD4680BD00BF0004004880B584B09C
:1021500000AF0F4B1B68FB600E4B1B68BB600E4B48
:102160001B687B60FA687B681344FB60FB68002B8C
:1021700009D008220949F86800F014F80422084937
:10218000B86800F00FF800BF1037BD4680BD00BF33
:10219000ACF7FF1FB0F7FF1FB4F7FF1F620000206E
:1021A0007200002080B487B000AFF860B9601346B9
:1021B000FB710023FB750023FB7527E0FB681B0FF9
:1021C000092B0BD8FB7D5B001A46BB681344FA68E9
:1021D000120FD2B23032D2B21A700AE0FB7D5B002D
:1021E0001A46BB681344FA68120FD2B23732D2B221
:1021F0001A70FB681B01FB60FB7D5B000133BA6852
:10220000134400221A70FB7D0133FB75FA7DFB79C4
:102210009A42D3D300BF1C37BD4680BC704700BF75
:1022200080B500AFFFF792FF074B1B6800229A7240
:1022300000F0A4FA00F00AFE00F032FC034B00228A
:102240001A6000BF80BD00BFD001002060010020E7
:1022500080B500AF374B1B6800229A72354B1B6864
:10226000354AD2795A72334B1B680022DA72002049
:10227000FFF756FC4FF400710020FFF763FC1021BC
:102280000020FFF785FC40210020FFF7E1FD8021C1
:102290000020FFF7BDFD0020FFF73EFD274B93F820
:1022A0002C309BB219460020FFF744FE0020FFF7B8
:1022B00009FD00210120FFF745FCC0210120FFF7A7
:1022C000A7FD20210120FFF763FC00210120FFF77B
:1022D00097FC4FF4C0610220FFF734FC4FF480718B
:1022E0000220FFF795FD00210220FFF789FC202145
:1022F0000220FFF74DFC00210320FFF723FC4FF4E1
:1023000088710320FFF7A4FD40210320FFF712FE90
:102310004FF440510320FFF773FC00210320FFF727
:1023200037FC0020FEF7ACFE054B01221A6000BF0F
:1023300080BD00BFD0010020903700088800002039
:102340006001002080B483B000AF074B7B607B68E6
:102350009B7A002B02D0054B05221A6000BF0C3778
:10236000BD4680BC704700BFB00100206001002066
:1023700080B400AF034B04221A6000BFBD4680BC8E
:10238000704700BF6001002080B500AF054B1B788F
:10239000202B04D100F0ACFB024B00221A7000BFCE
:1023A00080BD00BF5D01002080B400AF00BFBD460E
:1023B00080BC704780B584B000AF0346FB7100233A
:1023C000FB60FB79212B09D1164B1B681B7803F0AE
:1023D0007F03212B11D1144BFB600EE0FB79202BE6
:1023E0000BD1104B1B681B7803F07F03212B01D10D
:1023F0000E4BFB600E4B20221A70FB68002B01D1A4
:1024000002230BE0074B1B68FA689A61054B1B68B7
:1024100000225A82FB680020984700231846103794
:10242000BD4680BDD001002029250008592500089F
:102430005D01002080B483B000AF0346FB710B4BFD
:102440001B681B7803F07F03212B09D1FB79022B3A
:1024500001D1002305E0FB79222B01D1002300E00C
:10246000022318460C37BD4680BC7047D0010020BF
:1024700080B582B000AF0346FB80FB880449184654
:10248000FEF74AF9034618460837BD4680BD00BF2F
:10249000DC00002080B582B000AF0346FB80FB88E3
:1024A00004491846FEF738F9034618460837BD4672
:1024B00080BD00BFE400002080B584B000AF0346BB
:1024C000FB800B4B1B68DB78FB73FB7B032B01D979
:1024D000002309E0FB7BDB00064A1A44FB88114617
:1024E0001846FEF719F9034618461037BD4680BD59
:1024F000D0010020EC00002080B483B000AF034680
:102500000A46FB711346BB71BB79002B01D0022335
:1025100005E0FB79012B01D9022300E000231846D6
:102520000C37BD4680BC704780B483B000AF034613
:10253000FB80FB88002B05D1054B1B6808221A8203
:10254000002300E0034B18460C37BD4680BC7047A3
:10255000D00100207C00002080B483B000AF03468F
:10256000FB80FB88002B05D1054B1B6808221A82D3
:10257000002300E0034B18460C37BD4680BC704773
:10258000D00100207C00002080B487B000AF7860CC
:10259000396000237B6100233B610023FB60002343
:1025A0007B617EE001227B6902FA03F33B613B68B9
:1025B0001A683B691340FB60FA683B699A426DD127
:1025C0003B681B79012B03D03B681B79022B36D16A
:1025D0007B689A687B695B00032101FA03F3DB43A4
:1025E0001A407B689A607B689A683B685B791946F9
:1025F0007B695B0001FA03F31A437B689A607B688E
:102600009B889AB27B699BB2012101FA03F39BB2CA
:10261000DB439BB213409AB27B689A807B689B88AD
:102620009BB21AB23B689B7919467B699BB201FA4F
:1026300003F31BB213431BB29AB27B689A807B6888
:102640001A687B695B00032101FA03F3DB431A403C
:102650007B681A607B681A683B681B7919467B693E
:102660005B0001FA03F31A437B681A607B68DA683F
:102670007B699BB25B00032101FA03F3DB431A4041
:102680007B68DA607B68DA683B68DB7919467B69CE
:102690005B0001FA03F31A437B68DA607B6901335C
:1026A0007B617B690F2B7FF67DAF00BF1C37BD467A
:1026B00080BC704780B483B000AF78600B467B80ED
:1026C0007A887B689A6100BF0C37BD4680BC704732
:1026D00080B483B000AF78600B467B807B687A88DB
:1026E0001A8500BF0C37BD4680BC704780B485B0EA
:1026F00000AF78600B467B8013467B700023FB6045
:102700000023BB607A787B8803F007039B0002FA02
:1027100003F3FB607B88DB089BB218467B88DB08F1
:102720009BB21A467B68083253F822207B8803F05C
:1027300007039B000F2101FA03F3DB4302EA0301C5
:102740007B6800F1080243F822107B88DB089BB20B
:102750001A467B68083253F82220FB681343BB609B
:102760007B88DB089BB21A467B680832B96843F85D
:10277000221000BF1437BD4680BC704780B582B0C0
:1027800000AF0120FFF7C8FC0123FB800E4AFB8845
:1027900013600E4B00221A800B4B0C4A12881A60F1
:1027A00000BF0B4B1B680020FFF7AAF9074B4FF443
:1027B000E0521A80044B054A12881A60002318461A
:1027C0000837BD4680BD00BF405C0040D4010020FA
:1027D000445C004080B483B000AF00237B60314B89
:1027E0001B687B8000237B600EE07B689B0003F10D
:1027F000804303F5B8431B689AB22B497B6841F8C4
:1028000023207B6801337B607B68072BEDD97B88B5
:1028100043F480637B80234A7B8813607B8843F08A
:1028200001037B801F4A7B8813607B8823F00103B0
:102830007B801C4A7B88136000BF1C4B1B6803F421
:102840008063002BF9D0194B4FF6FF321A6000233A
:102850007B600EE07B689B0003F1804303F5B84387
:1028600011497A6851F8222092B21A607B680133CC
:102870007B607B68072BEDD97B8843F008037B8066
:10288000084A7B881360074B1B687B807B8843F07A
:1028900004037B80034A7B88136000BF0C37BD466E
:1028A00080BC7047405C004084010020445C0040D4
:1028B00080B483B000AF094B1B68FB80FB8823F01A
:1028C0000403FB80054AFB881360044B4FF43F422E
:1028D0001A6000BF0C37BD4680BC7047405C0040AA
:1028E00080B584B000AF0346FB71FB79072B02D0A3
:1028F0003F4AFB7913703E4B1B78DBB2052B6BD83C
:1029000001A252F823F000BF212900083D29000848
:102910004F2900085D2900087D2900089F2900082B
:10292000344B1B68002B05D1FFF7C2FF304B06224A
:102930001A7058E02E4B05221A7054E0FFF7B8FFCA
:102940002B4B04221A702B4B01221A604BE0284BB0
:1029500002225A70264B03221A7044E0244B5B7803
:10296000DBB2013BDAB2224B5A70214B5B78DBB20F
:10297000002B35D11E4B04221A7031E01E4B1B6810
:10298000FB81FB8943F01003FB811B4AFB89136029
:10299000174B05221A70164B0A225A7023E0144B6B
:1029A0005B78DBB2013BDAB2114B5A70104B5B78AB
:1029B000DBB2002B16D1104B1B68FB81FB8923F087
:1029C0001003FB810C4AFB891360094B06221A7025
:1029D000084B00221A6005E0054B06221A7002E03F
:1029E00000BF00E000BF00BF1037BD4680BD00BF84
:1029F0008001002064010020405C004080B500AFF1
:102A0000094B0A4A1A60084B1B6802221A72084BCB
:102A1000084A1A60084B094A1A60054B1B681B6874
:102A2000984700BF80BD00BFD0010020B00100204A
:102A3000A801002088000020CC010020B800002060
:102A400080B582B000AF01214FF40010FEF772FD97
:102A50004FF47F433B6002237B710023BB71012352
:102A60003B713B4619460348FFF78EFD00BF083710
:102A7000BD4680BD0010004880B500AFFFF7D0FA1A
:102A8000FFF70EFBFFF718FBFFF7B8FFFFF7D8FFC4
:102A9000FEE700BF80B500AF00F0BAF800BF80BD10
:102AA00080B500AF0F4B4FF416521A600D4B002249
:102AB0005A600C4B00229A600A4B4FF4C062DA60F5
:102AC000084B00225A61074B0C221A61054900206D
:102AD000FEF7B4FF01220449044800F0A9FD00BF3D
:102AE00080BD00BFD803002005010500003801406B
:102AF00080B500AF304B1B79012B07D0022B0AD0D9
:102B0000002B0DD12D4B00229A600DE02B4B4FF482
:102B100040529A6008E0294B4FF400529A6003E05B
:102B2000FFF7BEFF002344E0234B5B79012B07D066
:102B3000022B0AD0002B0DD1204B0022DA600DE0D1
:102B40001E4B4FF48062DA6008E01C4B4FF4C06209
:102B5000DA6003E0FFF7A4FF00232AE0164B9B791D
:102B6000072B02D0082B04D010E0144B00225A602F
:102B700010E0124BDB68002B03D1104B00225A608F
:102B800008E00E4B4FF480525A6003E0FFF788FFD5
:102B900000230EE0084B1B68084A1360074B002215
:102BA0005A61064B0C221A6104490020FEF746FFC9
:102BB0000123184680BD00BF7C000020D803002000
:102BC00080B584B000AF78600B46FB700023FB60DB
:102BD00013E07A68FB6813441B789BB219460B48D4
:102BE00000F004FD00BF8021084800F061FD0346AD
:102BF000002BF8D0FB680133FB60FA78FB689A423F
:102C0000E7D800BF1037BD4680BD00BF0038014087
:102C100080B582B000AF224B1B78012B3BD1214BFA
:102C20001B68002B03D11E4B00221A7033E01D4B92
:102C30001B68402B0FD91C4B1B68FB804023BB80BB
:102C4000194B1B684033184A1360164B1B68403BF6
:102C5000144A13600FE0144B1B68FB80114B1B6878
:102C6000BB80114B1A680F4B1B6813440E4A13604C
:102C70000C4B00221A60FB880C4A1344BA88C0210E
:102C8000184600F061FABB8819460120FFF734F9B5
:102C90000120FEF7EDFF00BF0837BD4680BD00BF35
:102CA0005C0100205801002054010020D8010020C0
:102CB00080B500AF364B1B78012B67D0354B1B68B6
:102CC000B3F5007F02D1334B00221A60314B1A68F2
:102CD000314B1B689A4203D12D4B00221A7055E0EC
:102CE0002C4B1A682C4B1B689A4206D9294B1B683F
:102CF000C3F50073294A136006E0274B1A68254B79
:102D00001B68D31A254A1360244B1B68402B12D929
:102D1000204B1B689AB2224B1A80224B40221A8009
:102D20001C4B1B6840331B4A13601C4B1B68403B09
:102D30001A4A136013E0174B1B689AB2184B1A809B
:102D4000164B1B689AB2174B1A80124B1A68134B1A
:102D50001B6813440F4A1360104B00221A600C4B7F
:102D600001221A700E4B1B881A460F4BD0180D4BC0
:102D70001B881A46C02100F0E7F90A4B1B88194648
:102D80000120FFF7B9F80120FEF772FF80BD00BFF8
:102D90005C01002054010020500100205801002057
:102DA000F0030020F2030020D801002098B500AF06
:102DB000164B9B79072B0CD1154B1C68154800F05E
:102DC00027FC0346DBB203F07F03DAB2124B1A553D
:102DD0000CE00E4B9B79082B08D10D4B1C680D485D
:102DE00000F016FC0346DAB20B4B1A55084B1B6871
:102DF0000133074A1360064B1B68B3F5007F02D10D
:102E0000034B00221A6000BF98BD00BF7C00002069
:102E10005001002000380140D801002080B483B068
:102E200000AF78607B685B095A01074B1344194671
:102E30007B6803F01F03012202FA03F30B6000BF5B
:102E40000C37BD4680BC70471404014080B400AF0D
:102E5000074B00221A60074B4FF43F421A80064B83
:102E6000044A12881A6000231846BD4680BC704789
:102E7000445C0040D4010020405C004080B584B038
:102E800000AF03463960FB710023FB60FB7903F060
:102E90007F03DBB21846FFF78FF80346FB60FB7930
:102EA00003F07F03DBB21846FFF70CF80346194620
:102EB000FB689BB21A46386800F080F9FB68184638
:102EC0001037BD4680BD00BF80B483B000AF7860CE
:102ED000054A7B6843F0BF6343F40033D36000BF0F
:102EE0000C37BD4680BC704700ED00E080B487B071
:102EF00000AF786000237B6100233B610F23FB6000
:102F00007B68DB78002B3AD0274BDB68DB4303F48C
:102F1000E0631B0A7B617B69C3F104033B61FA68D0
:102F20007B6922FA03F3FB607B685B781A463B6996
:102F300002FA03F37B617B689B781A46FB681340B7
:102F40007A6913437B617B691B017B61174A7B684C
:102F50001B787969C9B213440A4683F80023134ADF
:102F60007B681B785B09DBB218467B681B7803F033
:102F70001F03012101FA03F342F820300FE00B494F
:102F80007B681B785B09DBB218467B681B7803F013
:102F90001F0301229A4000F1200341F8232000BFC3
:102FA0001C37BD4680BC704700ED00E000E100E04A
:102FB00080B400AF00BFBD4680BC704780B400AF96
:102FC000FEE700BF80B400AFFEE700BF80B400AFF3
:102FD000FEE700BF80B400AFFEE700BF80B400AFE3
:102FE00000BFBD4680BC704780B400AF00BFBD4687
:102FF00080BC704780B400AF00BFBD4680BC704746
:1030000080B400AF00BFBD4680BC704780B500AF44
:1030100000F002F900BF80BD80B500AF0A490B483F
:1030200000F05EFB0346002B01D0FFF7BFFE082136
:10303000064800F03DFB0346002B02D0034800F099
:10304000E7FA00BF80BD00BF050105000038014060
:1030500080B500AF1220FFF7E1FE00BF80BD00BFCA
:1030600080B500AFFFF716FD00BF80BD80B582B010
:1030700000AF0023FB7114490320FFF7FFFE034656
:10308000BB80114B1B78FB71FB79082B0ED80F49C5
:103090000E4B9B8A9BB21AB2FB790733012000FAD0
:1030A00003F31BB253401BB29BB28B82BB88DBB2D3
:1030B00019460548FFF784FD0320FEF703FE00BF15
:1030C0000837BD4680BD00BFF40300200010004853
:1030D00080B500AF084B1B68052B0BD1074B1B6855
:1030E0005A1C06490A60052B04D1044B00221A60C1
:1030F000FFF7DEFD00BF80BD6001002068010020F9
:10310000002103E00A4B5B584350043109480A4B45
:1031100042189A42F6D3094A02E0002342F8043BDF
:10312000074B9A42F9D3FEF75FFAFFF7A5FC704709
:10313000323800080000002048010020480100202B
:1031400038040020FEE7000080B489B000AF78604A
:103150000B467B8013463B803B8801335B107B61D1
:103160007B8803F1005303F540535B00BB617B692F
:10317000FB611BE07B681B783B617B6801337B60F4
:103180007B681B781B021A463B691343FB60BB69D3
:103190009A1CBA61FA6892B21A80BB690233BB61A9
:1031A0007B6801337B60FB69013BFB61FB69002BA2
:1031B000E0D100BF2437BD4680BC704780B487B0E3
:1031C00000AF78600B467B8013463B803B88013321
:1031D0005B10FB607B8803F1005303F540535B00F9
:1031E0003B61FB687B610EE07B685A1C7A603A6940
:1031F000111D3961126892B21A807B6801337B60BD
:103200007B69013B7B617B69002BEDD100BF1C37E3
:10321000BD4680BC704700BF80B58AB000AF0023B8
:103220007B627C4B1B689AB27B4B1A807A4B1B8863
:103230009BB203F40073794A12881340002B0CD020
:10324000744B4FF6FF521A60754B1B78DBB201339B
:10325000DAB2734B1A70FFF73BFF6F4B1B889BB2C0
:1032600003F400436D4A12881340002B01D0FEF78F
:103270006DFA694B1B889BB203F48063674A12881E
:103280001340002B06D0634B4FF6FF321A60654B9C
:103290005B689847604B1B889BB203F400535F4AFE
:1032A00012881340002B03D05A4B4DF6FF721A6060
:1032B000594B1B889BB203F48053584A1288134021
:1032C000002B06D0534B4EF6FF721A600020FFF71A
:1032D00007FB514B1B889BB203F400634F4A1288D3
:1032E0001340002B0ED0504B1B78DBB2002B02D0CA
:1032F000FFF770FA02E00220FFF7F2FA454B4FF2B7
:10330000FF721A60444B1B889BB203F48073434ADC
:1033100012881340002B78D03E4B4FF6FF621A60A4
:10332000424B1B6803F40043002B68D0404B1B68E2
:1033300001333F4A13603E4B1B68032B62D93D4B60
:103340001B6803F00803002B5CD13A4B1B689BB24F
:10335000394A136000237B6211E07B6A9B0003F112
:10336000804303F5B8431B689AB27B6A9B0007F160
:1033700028010B4443F8242C7B6A01337B627B6A6F
:10338000072BEAD92C4B1B6843F001032A4A136030
:10339000284A294B1B689BB21360274B1B6823F0FC
:1033A0000103254A1360234A234B1B689BB2136019
:1033B00000BF184B1B6803F48063002BF9D0154B3A
:1033C0004FF6FF321A6000237B6211E07B6A9B009C
:1033D00003F1804303F5B8437A6A920007F12801AC
:1033E0000A4452F8242C92B21A607B6A01337B6241
:1033F0007B6A072BEAD90E4B00221A6002E00C4BC5
:1034000000221A600720FFF76BFA00BF2837BD467D
:1034100080BD00BF445C004034040020D401002083
:103420006C010020880000200C010020485C004056
:1034300070010020405C00407401002080B594B011
:1034400000AF786039600023FB640023BB64002375
:103450007B647B681B6823F001027B681A607B68D1
:103460005B687B647B6C23F440537B643B689B68A4
:103470007A6C13437B647B687A6C5A607B681B6848
:103480007B647B6C23F4B05323F00C037B643B68B8
:103490005A683B68DB681A433B681B6913437A6CC4
:1034A00013437B647B687A6C1A607B689B687B64DF
:1034B0007B6C23F440737B643B685B697A6C1343D9
:1034C0007B647B687A6C9A6007F108031846FDF705
:1034D00019FE7B68334A934202D13B6BBB6416E012
:1034E0007B68314A934202D17B6BBB640FE07B68FF
:1034F0002E4A934202D1BB6BBB6408E07B682C4A26
:10350000934202D1FB6BBB6401E03B6CBB647B6804
:103510001B6803F40043002B11D0BB6C5A003B68BE
:103520001B68B2FBF3F3FB64BB6C5B003A68126888
:10353000B3FBF2F102FB01F29B1A7B640EE03B68E5
:103540001B68BA6CB2FBF3F3FB643B681A68BB6C94
:10355000B3FBF2F102FB01F29B1A7B643B681B6830
:103560005A087B6C9A4202D8FB6C0133FB647B687F
:103570001B6803F40043002B0BD0FB6C5B0803F0CB
:1035800007037B64FA6C4FF6F07313407A6C1343B5
:10359000FB64FB6C9AB27B689A8100BF5037BD46D2
:1035A00080BD00BF0038014000440040004800409A
:1035B000004C004080B483B000AF78600B46FB70D5
:1035C000FB78002B06D07B681B6843F001027B6808
:1035D0001A6005E07B681B6823F001027B681A60B3
:1035E00000BF0C37BD4680BC704700BF80B483B0BD
:1035F00000AF78600B467B807B88C3F308039AB2E8
:103600007B681A8500BF0C37BD4680BC704700BF81
:1036100080B483B000AF78607B689B8C9BB2C3F3AF
:1036200008039BB218460C37BD4680BC704700BFEC
:1036300080B489B000AFF860B9601346FB71002315
:10364000BB6100237B6100233B610023FB61FB68BE
:10365000FB61BB681B12DBB2BB61BB68DBB27B6189
:1036600001227B6902FA03F33B61BB69022B03D1A0
:10367000FB690433FB6105E0BB69032B02D1FB69E5
:103680000833FB61FB79002B06D0FB69FA691168EE
:103690003A690A431A6006E0FB69FA6911683A69F7
:1036A000D2430A401A6000BF2437BD4680BC704731
:1036B00080B485B000AF786039600023FB737B680D
:1036C000DA693B681340002B02D00123FB7301E051
:1036D0000023FB73FB7B18461437BD4680BC704744
:1036E00080B487B000AF786039600023FB600023AE
:1036F0007B610023BB600023FB743B681B12DBB2C1
:10370000BB603B68DBB27B6101227B6902FA03F399
:103710007B61BB68012B05D17B681B687A6913400C
:103720007B610DE0BB68022B05D17B685B687A6921
:1037300013407B6104E07B689B687A6913407B617E
:103740003B681B0CFB600122FB6802FA03F3FB6081
:103750007B68DB69FA681340FB607B69002B05D04E
:10376000FB68002B02D00123FB7401E00023FB74F3
:10377000FB7C18461C37BD4680BC70471201000216
:1037800002020240830440570002010203010000CC
:1037900009024300020100C03209040000010202D4
:1037A0000100052400100105240100010424020287
:1037B0000524060001070582030800FF0904010033
:1037C000020A00000007050302400000070581020D
:1037D00040000000040309042603530054004D0078
:1037E0006900630072006F0065006C006500630093
:1037F000740072006F006E006900630073000000C7
:103800003203530054004D003300320020005600B4
:10381000690072007400750061006C0020004300B4
:103820004F004D00200050006F0072007400200017
:02383000200076
:103832000000000001020304010203040607080954
:103842000000010002000400060008000A000C004B
:10385200100020004000800000010000001000481D
:1038620000100048001000480010004800100048F6
:10387200000C00480004004800100048000C0048FA
:1038820000080048003801400008004800100048C5
:103892001A03530054004D003300320000000000B0
:1038A20000000000000000000000000000C2010053
:1038B2000000080004010000212200085122000833
:1038C20089230008A9230008B5230008352400082D
:1038D200F92400087124000895240008B92400087E
:1038E2000000000040000000F91000084523000815
:1038F200F9100008F9100008F9100008F910000882
:10390200F9100008F9100008712300087C3700083C
:10391200120000009037000843000000D43700086E
:1039220004000000D8370008260000000038000814
:1039320032000000600000201A00000001000000B8
:1039420061300008F9100008F9100008F9100008A9
:10395200F9100008F9100008F9100008F910000821
:10396200F91000086D300008F9100008F91000087D
:08397200F9100008F91000082B
:0400000508000000EF
:00000001FF
