:020000040800F2
:1000000000A00020FD08000841090008E7080008DA
:1000100041090008410900084109000800000000EA
:10002000000000000000000000000000410900087E
:1000300041090008000000004109000841090008CA
:100040004109000841090008410900084109000868
:100050004109000841090008410900084109000858
:100060004109000841090008410900084109000848
:100070004109000841090008410900084109000838
:100080004109000841090008410900084109000828
:100090004109000841090008410900084109000818
:1000A0004109000841090008410900084109000808
:1000B00041090008410900084109000841090008F8
:1000C00041090008410900084109000841090008E8
:1000D00041090008410900084109000841090008D8
:1000E00041090008410900084109000841090008C8
:1000F00041090008410900084109000841090008B8
:10010000000000000000000000000000410900089D
:100110004109000841090008410900084109000897
:100120004109000841090008410900084109000887
:10013000410900084109000800000000000000001B
:1001400041090008410900084109000800000000B9
:10015000000000000000000000000000000000009F
:1001600000000000000000004109000841090008EB
:10017000410900080000000000000000000000002D
:10018000000000004109000880B582B000AF78602F
:100190007B6800221946042000F09CFB0346002BDC
:1001A0000837BD4680BD00BF80B485B000AF786021
:1001B0007B6841F2A86202FB03F3FB6002E0FB688C
:1001C000013BFB60FB68002BF9D100BF1437BD4633
:1001D00080BC704780B584B000AF0023FB60FB6833
:1001E0000133FB603B46FA680649184600F0AAFA5C
:1001F0003B461846FFF7C8FF4FF47A70FFF7D4FF6D
:10020000EDE700BF4409000880B483B000AF786018
:100210000B46FB707B68FA781A70012318460C377E
:10022000BD4680BC704700BF80B485B000AF786029
:1002300039600023FB600AE07B685A1C7A603A68E8
:10024000511C396012781A70FB680133FB603B68FF
:100250001B78002BF0D1FB6818461437BD4680BCD4
:10026000704700BF80B586B000AFF8607A603B6031
:100270000B46FB7200237B617B68013B7B603B6824
:10028000092B1DD93B681D4AA2FB0323DB08F97A21
:100290007A68F868FFF7E6FF78617B69FA681344CB
:1002A000FB6010E0FB7A1946F868FFF7ADFFFB68CA
:1002B0000133FB607B6901337B617B68013B7B60C1
:1002C0007B68002BEEDC39680C4BA3FB0123DA08BA
:1002D00013469B0013445B00CA1AD3B23033DBB21F
:1002E0001946F868FFF790FF02467B6913447B616B
:1002F0007B6918461837BD4680BD00BFCDCCCCCC3D
:1003000080B586B000AFF8607A603B600B46FB7248
:1003100000237B613B68002B03DA3B685B423B6157
:1003200001E03B683B617B68013B7B603B69092BDB
:100330001FD93B68002B0CDA3B692E4AA2FB032332
:10034000DB085B42F97A7A68F868FFF7D9FF7861D1
:100350000AE03B69274AA2FB0323DB08F97A7A68A3
:10036000F868FFF7CDFF78617B69FA681344FB609A
:1003700025E03B68002B11DA7B68013B7B600DE0D8
:10038000FB7A1946F868FFF73FFFFB680133FB6013
:100390007B6901337B617B68013B7B607B68002B61
:1003A000EEDC3B68002B0ADA2D21F868FFF72CFF02
:1003B00002467B6913447B61FB680133FB6039694A
:1003C0000C4BA3FB0123DA0813469B0013445B008C
:1003D000CA1AD3B23033DBB21946F868FFF714FFFC
:1003E00002467B6913447B617B6918461837BD461A
:1003F00080BD00BFCDCCCCCC80B588B002AFF8605A
:100400007A601A460B46FB721346BB7200237B616F
:100410007B68013B7B603B6A1B09002B20D03B6A59
:100420001B09BA7AF97A009313467A68F868FFF7DD
:10043000E3FF02467B6913447B617B69FA681344DE
:10044000FB6010E0FB7A1946F868FFF7DDFEFB68F9
:100450000133FB607B6901337B617B68013B7B601F
:100460007B68002BEEDC3B6A03F00F03092B0BD8F3
:100470003B6ADBB203F00F03DBB23033DBB2194669
:10048000F868FFF7C1FE19E0BB7A002B0BD03B6A7E
:10049000DBB203F00F03DBB23733DBB21946F86887
:1004A000FFF7B2FE0AE03B6ADBB203F00F03DBB2F8
:1004B0005733DBB21946F868FFF7A6FE7B690133B4
:1004C0007B617B6918461837BD4680BD80B58AB010
:1004D00002AFF860B9607A603B600023BB61002323
:1004E0007B61FB68002B00F0FC80FB6800221A7027
:1004F000F7E07B681B78252B0BD0FB685A1CFA6051
:100500007A68511C796012781A707B6901337B61BB
:10051000E7E07B6801331B78252B0BD1FB685A1C65
:10052000FA6025221A707B6802337B607B69013395
:100530007B61D6E02023FB770023BB777B68013308
:100540007B607B681B78302B14D13023FB777B6872
:1005500001337B600EE0BB7F1A46920013445B00C0
:10056000DAB27B681B781344DBB2303BBB777B6825
:1005700001337B607B681B782F2B03D97B681B784A
:10058000392BE8D9BA7F7B6913441A46BB689A4273
:1005900005D9BB68DAB27B69DBB2D31ABB777B685B
:1005A0001B78583B202B00F28E8001A252F823F0DA
:1005B00081060008C7060008C7060008C70600082D
:1005C000C7060008C7060008C7060008C7060008D7
:1005D000C7060008C7060008C7060008B1060008DD
:1005E00035060008C7060008C7060008C706000849
:1005F000C706000835060008C7060008C706000839
:10060000C7060008C7060008C7060008C706000896
:10061000C7060008C7060008C70600089D060008B0
:10062000C70600084D060008C7060008C7060008F0
:1006300065060008B87F3B681A1D3A601B68F97FA1
:100640000246F868FFF75CFEB8613FE0B87F3B68A0
:100650001A1D3A601B68F97F0246F868FFF702FE30
:10066000B86133E0B87F3B681A1D3A601B68F97FB8
:10067000009300230246F868FFF7BEFEB86125E04C
:10068000B87F3B681A1D3A601B68F97F009301230D
:100690000246F868FFF7B0FEB86117E03B681A1D24
:1006A0003A601B681946F868FFF7BEFDB8610DE0B7
:1006B0003B681A1D3A601B68DBB21946F868FFF701
:1006C000A3FDB86102E04FF0FF3325E07B68013302
:1006D0007B60BB69FA681344FB607A69BB691344A9
:1006E0007B617B681B78002B04D07A69BB689A42D7
:1006F000FFF4FFAE7A69BB689A4203D2FB6800221E
:100700001A7008E0FB68013BFB60FB6800221A706E
:100710007B69013B7B617B6918462037BD4680BD04
:1007200080B584B000AFF860B9607A607B68BA6861
:100730006421F868FFF7CAFE034618461037BD4625
:1007400080BD00BF0EB480B585B000AF786007F102
:100750002003BB60BA68F9697868FFF7E1FFF860C9
:10076000FB6818461437BD46BDE8804003B07047AB
:1007700080B500AF1B4A1B4B1B6843F0010313609D
:100780001849184B5A68184B13404B60154A154BC3
:100790001B6823F0847323F480331360114A114BD8
:1007A0001B6823F4802313600E4A0E4B5B6823F40E
:1007B000FE0353600B4A0B4BDB6A23F00F03D3623B
:1007C0000849084B1A6B094B13400B63054B002279
:1007D0009A6000F00FF8064B4FF000629A6000BF7D
:1007E00080BD00BF001002400CC07FF8CCFC00FFB1
:1007F00000ED00E080B483B000AF00237B600023F5
:100800003B60324A314B1B6843F4803313602F4BFB
:100810001B6803F400333B607B6801337B603B68FB
:10082000002B03D17B68B3F5A06FF0D1274B1B6879
:1008300003F40033002B02D001233B6001E00023CE
:100840003B603B68012B3CD1214B12221A601F4AAE
:100850001E4B5B6853601D4A1C4B5B6853601B4A10
:100860001A4B5B6843F480635360184A174B5B680C
:1008700023F47C135360154A144B5B6843F4E8136C
:100880005360124A114B1B6843F08073136000BF22
:100890000E4B1B6803F00073002BF9D00B4A0B4B77
:1008A0005B6823F003035360084A084B5B6843F01E
:1008B0000203536000BF054B5B6803F00C03082B79
:1008C000F9D100BF0C37BD4680BC70470010024014
:1008D00000200240ABBE01E000207047002A00D09B
:1008E000106001207047069801884BF6AB62914278
:1008F00002D1043006907047FEE70000002103E0BB
:100900000A4B5B584350043109480A4B42189A423B
:10091000F6D3094A02E0002342F8043B074B9A420F
:10092000F9D3FFF725FFFFF755FC70474A09000888
:100930000000002000000020000000200000002037
:0A094000FEE70000743D25640A0084
:0400000508000000EF
:00000001FF
